:020000041000EA
:1000000000B5324B212058609868022188439860DF
:10001000D860186158612E4B002199600221596106
:100020000121F02299502B49196001219960352056
:1000300000F044F80222904214D00621196600F024
:1000400034F8196E01211966002018661A6600F04E
:100050002CF8196E196E196E052000F02FF8012189
:100060000842F9D1002199601B49196000215960AB
:100070001A491B48016001219960EB211966A021F2
:10008000196600F012F800219960164914480160C1
:100090000121996001BC002800D000471248134993
:1000A000086003C880F30888084703B5996A0420EC
:1000B0000142FBD001200142F8D103BD02B5186610
:1000C0001866FFF7F2FF186E186E02BD00000240BE
:1000D000000000180000070000035F00212200005C
:1000E000F4000018222000A00001001008ED00E03C
:1000F00000000000000000000000000074B24E7A12
:1001000000200420F7010010C3010010C5010010F9
:10011000C1010010C1010010C1010010C101001097
:10012000C1010010C1010010C1010010C701001081
:10013000C1010010C1010010C9010010CB01001065
:10014000CD010010CD010010CD010010CD01001037
:10015000CD010010CD010010CD010010CD01001027
:10016000CD010010CD010010CD010010CD01001017
:10017000CD010010CD010010CD010010CD01001007
:10018000CD010010CD010010CD010010CD010010F7
:10019000CD010010CD010010CD010010CD010010E7
:1001A000CD010010CD010010CD010010CD010010D7
:1001B000CD010010CD010010CD010010CD010010C7
:1001C00000BE00BE00BE00BE00BE00BE00F04BF888
:1001D000103800BEF2EB88710C5100103451001041
:1001E0003402001090A31AE700202149086006C8D5
:1001F00081F3088810471F48006800282FD10DA4FC
:100200000ECC002902D000F012F8F9E71A491B4A77
:10021000002000E001C19142FCD1194988471949E9
:1002200088471949884700BEFDE701C901C29A42C3
:10023000FBD3704734510010C0000020C4030020DD
:10024000385400100000042000000420385400102E
:1002500000100420001004200000000070470B482C
:1002600002F038FD0047EFF30580C0B27047000090
:1002700008ED00E0000000D0C8030020A008002026
:100280002D1700105D030010E916001057560000EE
:1002900006005250ABB36053284F00100600525076
:1002A000861C0302384F0010060052505422A29DB3
:1002B000484F001005005250DE65F46838540010B5
:1002C000F8B5C0460448054B10B5834203D0044B33
:1002D000002B00D0984710BDC4030020C4030020A9
:1002E0000000000006480749091A8910CB0F591869
:1002F00010B5491003D0044B002B00D0984710BD17
:10030000C4030020C40300200000000010B5074C07
:100310002378002B09D1FFF7D5FF054B002B02D026
:10032000044800E000BF0123237010BDC804002072
:100330000000000068400010054B10B5002B03D0F2
:100340000449054800E000BFFFF7CCFF10BDC046E0
:1003500000000000CC0400206840001010B582B0FE
:1003600003F052FD684603F0F1FD094803F040FD3B
:10037000002405E06B46195D064803F039FD0134A1
:10038000072CF7DD0A2003F0CDFC002002B010BDE1
:10039000684000107C40001010B58300084A944665
:1003A00063441C6840226240C024144080225201F1
:1003B00013431C60C000034B9C466044416010BD69
:1003C00004C0014000400140EFF3108072B6034BBF
:1003D0001B68002BFBD0BFF35F8F70472C0100D050
:1003E000BFF35F8F024B00221A6080F310887047C2
:1003F0002C0100D070B505000E001400FFF7E4FFDB
:10040000F208AA1815780721314001238B402B42AE
:1004100005D1DBB22B431370FFF7E2FF70BD310053
:10042000200001F0FFF90000034B1B680220184078
:10043000431E9841C0B2704700C0064000231F2BE6
:1004400008D8054A9A189200BFF35F8F0021116007
:100450000133F4E77047C04640000034054A107885
:10046000431CDBB21370172B02D9130010221A7031
:100470007047C046F0020020074B9B681030800098
:100480001950BFF35F8FBFF35F8F044B00211960DA
:1004900082F310887047C04600ED00E0240100D0D0
:1004A00010B5091A0B1F0A4A94466144094A914241
:1004B00008D8DA0706D45B105B055B0D06481843C5
:1004C00080B210BD054B064A9921064801F010F98B
:1004D000FC070000FE0F000000E0FFFF904200104C
:1004E000A0400010C042001010B5091A04394C0891
:1004F000090B08D14905490D064A11430180064BF5
:100500002343438010BD054B054AA121054801F056
:10051000EFF8C04600F0FFFF00F8FFFF04410010B5
:10052000AC400010C042001001238340034A106811
:100530001840431E9841C0B27047C04600E100E039
:10054000002904D0034B1860034B18607047034B1D
:100550001860FBE780E200E000E100E080E100E0FD
:1005600010B5012383401800FFF7EAFF10BD00001B
:10057000024B9B6810308000C058704700ED00E0CF
:1005800070B504000D00EFF3108672B60C4B1B68BB
:10059000002BFBD0BFF35F8F2000FFF7E9FF094B73
:1005A000984201D0A84205D1320029002000FFF76F
:1005B00063FF70BD044B054A7C21054801F098F8A3
:1005C000240100D0CD0100105842001084400010DA
:1005D000C0420010F0B5C64600B584B001900D00D1
:1005E000EFF3108672B6554B1B68002BFBD0BFF3A0
:1005F0005F8F534B9A68019C1034A300D758514B1E
:100600009F4207D0AF4200D196E002974E4BFB1AB3
:100610002F2B08D9320039000198FFF72DFF04B0C5
:1006200004BC9046F0BD0198FFF77EFF03900021C7
:100630000198FFF795FFBFF35F8FFFF714FE011ED0
:1006400001D0844211D10123029C9C430020A36865
:10065000AB4212D00622A256002A0DDB53009B1893
:100660009A002000384CA418F1E72C21374B384A67
:10067000FF31384801F03CF82000AB4255D1062349
:10068000E3569846002B36DB5A00424491002E4B2D
:100690005B189A68A260DA79E2719B795BB2A37108
:1006A000002B12DABD200002A08043465B004344C9
:1006B0009A00254B9B18284A11789971434613706C
:1006C00003990198FFF74CFFA4E7201D1E4A8B18E1
:1006D0001A1D9B88D90A1C2907D1590549150231D1
:1006E00049005118FFF7DCFEDEE71C4B1C4AA7212E
:1006F000184800F0FDFF002912D100280ED0FF237A
:100700008371184B8380144A1378A371164B0E49DA
:10071000641A644163431B0D1370D1E7094FF2E77C
:10072000201D1249FFF7E0FECAE76021104B084A7E
:10073000FF31084800F0DCFF024F6BE7240100D0D6
:1007400000ED00E0CD010010F40200202C4200106A
:10075000D4400010C04200109A060020D84100107A
:10076000C440001000BDFFFFAAAA00002E03002015
:1007700050420010F8B50400012606432D4BF31A31
:100780002F2B28D8FFF76FFD00282BD0EFF3108711
:1007900072B6294B1B68002BFBD0BFF35F8F274D30
:1007A00022002449521A524155432D0D6DB2244B5B
:1007B0009B6880001B58B3421BD00023032B32D808
:1007C0005A00D21891001B4A5218927952B2AA428A
:1007D0001FD00133F2E7C2211A4B1B4A49001B48C4
:1007E00000F086FF88211A4B174AFF31174800F0A6
:1007F0007FFF134B9B68174A1A50174B1A78A27148
:100800001D70BFF35F8F0C4B00221A6087F31088B6
:10081000F8BD08495A00D618B0000818FF2686719E
:100820000E4B8380E9E7CC210D4B074A490007486E
:1008300000F05EFFF4020020240100D0AAAA00000C
:1008400000ED00E0F0410010E8400010C042001050
:1008500018420010CD0100109A06002000BDFFFFD5
:10086000244200100022044B02E0044902C301327A
:10087000072AFAD97047C04600E400E080808080F3
:10088000024B9C466144890001607047400000347F
:1008900070B505000C00080000F080FB200000F09F
:1008A00051FC0849200000F091FBFFF7D7FD064BF3
:1008B0009C466044800068602C75A400034BE550A2
:1008C00070BDC046B10B001040000034640600202B
:1008D00010B5002922D003681B7B99421ED8174B04
:1008E0009C466144090183689C4661440C684968E0
:1008F000002A19D003681B7B9A4215D883680F48D9
:100900008446624412019A1810685368020001205C
:100910008B4201D80ED00020C0B210BD084B094A4E
:100920003B21094800F0E4FE054B064A3B210648FE
:1009300000F0DEFEA242EFD8EDE7C046FFFFFF0F5A
:10094000CC44001060430010B445001010B50029DD
:100950001ED0037B99421BD84B005B18033B0468F5
:10096000A4466344002919D0002A1DD0914221D009
:10097000002A25D0047BA24222D8046850008018A7
:10098000033820188170197800291FD11A7010BD02
:10099000104B114A6821114800F0AAFE104B114A71
:1009A0006F310E4800F0A4FE0F4B0E4A70210B4829
:1009B00000F09EFE0D4B0B4A7121084800F098FE96
:1009C000044B054A6821054800F092FE41701A70F8
:1009D000DDE7C04600450010204300101C45001014
:1009E000704500102C4300107C4500108845001015
:1009F00070B506000D001400002914D0002A14D090
:100A0000806873689847002806D0220029003000CB
:100A1000FFF79CFF280007E02A0021003000FFF7C5
:100A200095FF200000E0100070BD0800FCE700000A
:100A300070B5CE4600B583B00500009201930AABB5
:100A40001C780BAB1B789946002C28D003685A7B86
:100A5000944209D10123002B1BD1002C3DD1200051
:100A600003B004BC914670BD002C0CD01A7B94429C
:100A700009D81A6863001B19033BD3189B78002B15
:100A8000E9D00123E7E73F4B3F4A68213F4800F0A8
:100A90002FFE3F4B3F4A65213F4800F029FE036887
:100AA0009C7B002CD9D012D01A7B94420FD86200C4
:100AB0001219033A19688C466244517899730029D7
:100AC00000D1D9730023937053701370C5E72D4B79
:100AD0002D4A68212D4800F00BFE002C3BD02B68DE
:100AE0001B7B9C4237D82D4BE3181B01AA68944608
:100AF00063440099019A19605A60089A9A60099AA9
:100B0000DA602E68002C2CD031D0337B9C422ED85A
:100B100063001B19033B32689446634400229A70B9
:100B20005A701A70717B22003000FFF761FF7073FA
:100B3000844200D093E7287D009A019B00F08EFA52
:100B4000061E02D04B46002B17D00C9B002B00D169
:100B500085E71E7083E7124B124A3B210E4800F0D6
:100B6000C7FD114B114AA521084800F0C1FD054BF6
:100B7000054A6821054800F0BBFD2868210000F007
:100B800097FCE2E700450010204300101C450010D0
:100B9000B443001080430010B4450010FFFFFF0F66
:100BA000CC44001060430010B045001040430010DA
:100BB000F0B5DE4657464E464546E0B58BB0099047
:100BC000002308938200B24BD7583D0052E0B14B4E
:100BD000B14A3F21B14800F08BFDB14BB14A3B21F6
:100BE000B14800F085FD002B01D1002A68D1002119
:100BF000604600F053FCA04219D132687368069237
:100C00000793B3689846F3689A464346002B14D07E
:100C1000002C18D02B681B7B9C4214D8631EEA68FA
:100C2000D35C08931B0218432861002015E09F4BFA
:100C30009F4A8C219C4800F05BFD9E4B9C4A902172
:100C4000994800F055FD964B9B4A4021964800F08C
:100C50004FFD00239A46984600206B68BFF35F8FD4
:100C600000221A6087F310884346002B31D10028F8
:100C700000D105E100F09EF90029A8DB0023002443
:100C8000069307946A68EFF3108772B61368002B17
:100C9000FCD0BFF35F8F2B689C465C7B002CD8D0C8
:100CA0009BD01B7B9C4298D8844BE6183601AB68DE
:100CB0009846464432687368121A8B41002B92DDC5
:100CC00032687368099800F0C9F900239A4698467B
:100CD000C3E7089B1B022343994651461800C047AF
:100CE00006000F006A68EFF3108B72B61368002BD2
:100CF000FCD0BFF35F8F002F26DB002F52DD2B6966
:100D0000002B53D04B4574D100F054F902000B1E58
:100D100075DB0100180092197B41984202D804D17A
:100D2000914202D901225242D317002B6DDB0021E0
:100D30000491013103910294514601914146009181
:100D40002800FFF775FE4BE02B69002BD5D04B45F3
:100D50001CD1069A079B10001900921BBB419942B7
:100D600002D804D1904202D901225242D317002B5B
:100D700012DB00210491013103910294514601914B
:100D8000414600912800FFF753FE29E04C4B484AAA
:100D90009F21454800F0ACFC3E4B3F4A3F213F4875
:100DA00000F0A6FC002F01D1002EA8D12A68002C4B
:100DB00047D0537B9C422ED10123002B41D1D37BC2
:100DC000002B44D1D473002C54D02B681B7B9C4245
:100DD00050D8013CEB689C4664442378013323706F
:100DE00000232B616A68BFF35F8F13608BF3108859
:100DF00040E7334B2E4AA2212B4800F079FC254BCB
:100E0000254A3F21254800F073FC224B224A3F210E
:100E1000224800F06DFC002C0DD0137B9C420AD8B8
:100E200063001B19033B11688C4663449B78002BBD
:100E3000C3D00123C1E7234B234A6821234800F094
:100E400057FC234B234AF621204800F051FC002B8D
:100E50000AD0117B8B4207D85900CB18033B11688D
:100E60008C4663445C70ADE7164B174A68211748FF
:100E700000F03EFC0A4B104A40210B4800F038FCC1
:100E80000BB03CBC90469946A246AB46F0BDC0466E
:100E900064060020DC43001008430010F8430010F3
:100EA000CC44001060430010B445001048440010CA
:100EB00098430010604400106C430010FFFFFF0FC8
:100EC0006C44001000450010204300101C45001029
:100ED000A84400105043001010B50A4B5B68002B6B
:100EE00004D00A210848FFF7CBFC10BD054C2300B5
:100EF000064A1021206800F0EFF903212000FFF7D7
:100F0000C7FCEEE73C03002080060020D10800105B
:100F100070B5EFF305833F2018401038EFF31084CD
:100F200072B6194B1B68002BFBD0BFF35F8F0123F8
:100F300019008140154A5163154A12781500C540C1
:100F40002B4214D0114B5D6A8300124E9B599D4277
:100F500006D38300104D5B598A430D490A7007E0A0
:100F60000A4A031D9B0099589950002300E0002372
:100F7000BFF35F8F044A0021116084F31088002BB7
:100F800000D0984770BDC046280100D00040054001
:100F90009B06002084060020E404002010B5010018
:100FA000024A0348FFF726FA10BDC0461446001057
:100FB00099060020044B596A00E01900024B986A18
:100FC0005B6A9942F9D170470040054070B5040052
:100FD0000D00EFF3108672B61B4B1B68002BFBD085
:100FE000BFF35F8F002D1CD02000FFF7C1FA174B15
:100FF00098420BD019002000FFF7C2FA012120000F
:10100000FFF7AEFA0123A340114A1360A400114B6D
:10101000E550BFF35F8F0C4B00221A6086F31088F7
:1010200070BDA2000B4B0021D1500122A2400A4901
:101030000B7893430B7005492000FFF7CBFA002192
:101040002000FFF78DFAE4E7280100D0110F00100F
:1010500038600540E40400209B060020F0B5DE4621
:1010600000B584B00500140001921E000293FFF742
:10107000A1FF03948E4202D84ED184424CD9EFF3A3
:10108000108B72B6274B1B68002BFBD0BFF35F8F12
:10109000254A17780124AC40E3B23B431370234B3D
:1010A0005C632A1D92000199D150AA002049029840
:1010B00050501B6A234212D11C4B1B6C234208D098
:1010C0000020BFF35F8F174B00221A608BF310884C
:1010D00023E0184B184AC121184800F009FBFFF71C
:1010E00069FF8E4214D802D1039B834210D80E4B65
:1010F0001B78BB420ED00D4B1C625C631F222A4042
:10110000012393400E4A1360074B1F700120D8E75C
:101110000020D6E70120D4E7012004B004BC9346A8
:10112000F0BDC046280100D09B06002000400540CD
:101130008406002038460010F84500105C46001078
:1011400080E200E010B5EFF3108472B60A4B1B6822
:10115000002BFBD0BFF35F8F01238340074A13624C
:1011600007490A789A430A70BFF35F8F024B002247
:101170001A6084F3108810BD280100D0004005409B
:101180009B06002010B500291ED0037B99421BD876
:101190004B005B18033B0468A4466344002919D044
:1011A000002A1DD0914221D0002A25D0047BA242E2
:1011B00022D80468500080180338201881701978EC
:1011C00000291FD11A7010BD104B114A6821114817
:1011D00000F08EFA104B114A6F310E4800F088FA79
:1011E0000F4B0E4A70210B4800F082FA0D4B0B4A50
:1011F0007121084800F07CFA044B054A6821054833
:1012000000F076FA41701A70DDE7C0460045001024
:10121000A84600101C45001070450010B446001090
:101220007C4500108845001070B506000D001400C4
:10123000002914D0002A14D08068736898470028C9
:1012400006D0220029003000FFF79CFF280007E0AD
:101250002A0021003000FFF795FF200000E0100079
:1012600070BD0800FCE7000010B500234373013394
:101270008373037BC3730123027B9A4214D9002B2F
:101280000CD0027B934209D85A00D218033A016865
:101290008C4662440133DBB25370EDE70B4B0C4AD2
:1012A00068210C4800F024FA002A09D0924207D89D
:1012B000016853009A18033A8A180023537010BD2E
:1012C000024B034A6821034800F012FA004500105F
:1012D000A84600101C45001010B5017342608360E1
:1012E000FFF7C2FF10BD000070B50400002901D156
:1012F000080070BD002934D0037B994231D84B00DF
:101300005B18033B0268944663445A78002AEFD086
:101310002DD0037B9A422AD853009B18033B0068C8
:10132000844663445D7800205870002925D0237BD3
:10133000994222D84B005B18033B206884466344E3
:10134000002058702000FFF76FFF060029002000E2
:10135000FFF7CAFF020031002000FFF765FF010020
:10136000C6E7094B094A6821094800F0C1F9064B54
:10137000064A6821064800F0BBF9034B034A68217E
:10138000034800F0B5F9C04600450010A84600101B
:101390001C45001070B505000C001600002928D06F
:1013A0002DD0037B99422AD84B005B18033B02687F
:1013B000944663445A78002A27D19A78002A2AD181
:1013C0001978FFF791FF0300002E03D0EA7B002A73
:1013D00027D1EC73002B37D1002C49D02B7B9C42BA
:1013E00046D82A6863001C19033C14190023637053
:1013F00070BD224B224A3821224800F079F9224B55
:10140000224A6821224800F073F9224B1C4A3A21F3
:101410001C4800F06DF9204B194A3B21194800F097
:1014200067F9002A0AD0297B8A4207D851008A1816
:10143000033A29688C4662445470CAE7124B134A37
:101440006821134800F054F9002B0BD02A7B9342FB
:1014500008D843001B18033B2A68944663440022C3
:101460009A70B9E7084B094A6821094800F040F929
:10147000054B064A6821064800F03AF91447001067
:10148000C84600101C47001000450010A846001078
:101490001C450010604700108847001070B504001C
:1014A0000A00457B2900FFF775FF6073280070BDB7
:1014B00010B50400002966D0437B8B420ED0002972
:1014C00011D0037B99420ED84B005B18033B026896
:1014D000D0188378002B0CD1002055E00121FFF7B4
:1014E000DDFF012050E0294B294A6821294800F0FE
:1014F000FFF8002B1FD0227B93421CD85A00D31830
:10150000033B2268D21813788B421AD0002B1BD0D1
:10151000227B934218D85A00D318033B2268D21872
:1015200053788B4216D0002BF0D11B4B1B4A6721FE
:101530001B4800F0DDF8154B154A6821154800F0EE
:10154000D7F84378137007E0104B114A682111480F
:1015500000F0CEF84378537000238370437001226B
:101560002000FFF717FF0200617B814205D02000B9
:10157000FFF75AFE6073012006E00A4B074A6D210F
:10158000074800F0B5F8002010BDC0460045001027
:10159000A84600101C45001024420010DC46001034
:1015A0001C470010F446001010B50400FEF756FF6B
:1015B00001002000FFF764F9FF232371BFF35F8F61
:1015C00010BD10B50400FEF749FF01002000FFF731
:1015D00057F9FF23237100236371BFF35F8F10BDA1
:1015E00070B505000C00062000F032FAC0002100A2
:1015F00001F0C4FBC60908D00E4B9E4217D87F23CA
:10160000184001303400460800E001246C62AE62EC
:101610002C3580239B011D4300232B60062000F006
:1016200017FA8000A101891901F0A8FB70BD0026FE
:10163000014CEBE7FEFF0000FFFF0000002909D08E
:101640000A22064B9C466044434258414000044BEA
:10165000C252704780225200F3E7C0460080FCBFB0
:101660009C06002070B505000C00062000F0F0F983
:10167000002829D0164B9D4227D08022D203154B3B
:101680001A60154B1A60154B9B6811009943FAD1EB
:1016900000212800FFF7D2FF21002800FFF7A0FF5C
:1016A0002C002C34E96A60224A406E2111408022CD
:1016B0005201224311600A4B2B6380239B01234379
:1016C00010221A600323AB6470BD80221204D6E797
:1016D0000080034000E0004000F0004000C00040F7
:1016E0000103000000BEFDE710B5FFF7FBFF00009F
:1016F00010B582B00C001900002A0CD0084B002A4B
:101700000BD00192009323000200064802F070FB08
:101710000120FFF7E7FF044BF1E7034AF1E7C0467A
:1017200050480010604800105C48001070B52B4B0A
:101730002B4A1A602B4B2C4A1A602C4B9A682A4B66
:101740009343FAD12A4C01E008CC9847294B9C429C
:10175000FAD300F0FDF8234B274A1A60234B9B680D
:10176000DB43DB01FAD1254B40229A675A671A679F
:10177000DA66234C09E0234B234A83212348FFF7F1
:10178000B7FF2000FFF710FF0834214B9C4209D21D
:101790002368002BF5D0012BEDD12000FFF711FFBE
:1017A0000834F2E71B4CA1681B4DC022280002F050
:1017B000CFF9A560FEF757FD002800D000BEFEF768
:1017C0003DFEFFF74FF8FFF787FB144C01E008CC14
:1017D0009847134B9C42FAD370BDC04600E00040CE
:1017E000BFCDFBFE00F00040FE7F3C0000C000408B
:1017F000AC030020BC030020FFFFFF0100F001400C
:10180000A4030020B448001090480010D4480010F1
:10181000AC03002000ED00E000000020BC0300202D
:10182000C40300200FB400B583B0084802F0AEFA3C
:10183000049B002B07D005A90191180002F0B6FA0D
:10184000034802F0A3FA0120FFF74CFFA048001064
:10185000B0480010F0B5DE46574680B583B00700AB
:101860000E0092460A9A93424CD3190E01911B0224
:10187000180000930A9A002301F0C2FA05007B00C9
:10188000DB199C002D4B9C4664446368834200D264
:1018900060603B1FDBB29B46012B39D9C0239B0103
:1018A0002343802212011A60BB00254A995800295F
:1018B00005D0506901F062FA01300138FDD153467C
:1018C0005B0122685340E0221340802252012243F0
:1018D00013605B46012B26D980239B012343802282
:1018E00012011A6065602A0000230098019901F036
:1018F00087FABF00124BF850012003B00CBC92468F
:101900009B46F0BD0F4B104A2D211048FFF7F0FE0B
:10191000012EC3D1C0239B01234303221A60A36875
:10192000DB07FCD5CBE72168714003230B40136034
:10193000A3680122B2401A42FAD0CDE700800040ED
:10194000F4050020304900102049001044490010DF
:1019500030B583B00C2000F021F9FEF765FD0028BA
:101960000DD00023092B05D899002D4A2D48885009
:101970000133F7E72A4B2C4A5A6203B030BD2B4B98
:1019800000229A6700F012F9294B01221A60274BB6
:101990005B6C012BFBD1274B03221A60234B9B6B03
:1019A000012BFBD1013300930433234A0121234847
:1019B00000F054F805230093214A0121214800F04A
:1019C0004DF8214B0093002202210420FFF742FF33
:1019D0001E4D00952B00002201210520FFF73AFF44
:1019E000104C00942300002200210720FFF732FF53
:1019F00000942300002200210820FFF72BFF0A4B50
:101A000000932300002200210920FFF723FF009507
:101A10002B00002200210620FFF71CFFADE7C04687
:101A2000F4050020006CDC021BB7000000800040C1
:101A30003CB0004030B00040002F685900800240A8
:101A4000008C864700C00240001BB7004059730756
:101A50008000014BC0587047F4050020F0B583B0FA
:101A60000500019114001F000C2001F087F9060009
:101A70003D4BE2183D4B9A4242D84201121A930163
:101A80009B1ADB001B189901200001F077F9020076
:101A9000103A98235B009A4238D87B1E062B3BD81D
:101AA000089B013B062B37D8089B9F423AD323095A
:101AB000B3423DD33F04089B1E033E432B68002BDB
:101AC0003CDB2B4B9D424BD080214901294B1960B7
:101AD000294B1960294A92680B009343FAD1019B64
:101AE0002B60A8602A1DC0239B01134321221A608A
:101AF0002A68002AFCDAEE6008221A6003B0F0BD02
:101B00001F4B204A11212048FFF7F2FD1F4B1D4AB1
:101B100019211D48FFF7ECFD1D4B1A4A1C211A48DC
:101B2000FFF7E6FD1B4B174A22211748FFF7E0FDA0
:101B3000194B144A25211448FFF7DAFD2A683F2380
:101B40001340019A9342BCD1AB681B051B0D834225
:101B5000B7D1EB68EE22D2021340B342B1D1CDE748
:101B600080218901B2E7C04680E84BD380F8A932D2
:101B700000C0024000E0004000F0004000C0004013
:101B8000A049001094490010004A0010484A001073
:101B9000644A0010B04A0010C84A001080239B001D
:101BA0000343014AD362704700800540064BAA22D6
:101BB00012011A602F22DA60044B054A1A60024BA8
:101BC0005B68002BFBDA7047004002400060024077
:101BD00000B0FA00704710B5002802D00B684968C1
:101BE000984710BD10B50400002321680A78303AE8
:101BF000D2B2092A08D89800C31858004B1C236099
:101C00000B781B18303BF0E7180010BDF0B5D64636
:101C10004F464646C0B582B00500009190460193FC
:101C20000A9B99460B9C0C9E0D9B9B070CD04E4625
:101C30000C9B9946002C19D0013C571C305D019B30
:101C40000099A8473A00F5E72700A246B74207D215
:101C5000541C019B00992020A84701372200F5E77A
:101C600054460C964E460C9B9946E3E74E460D9B18
:101C70009B0706D4100002B01CBC90469946A246B1
:101C8000F0BD4746D31BB342F4D2541C019B0099CC
:101C90002020A8472200F5E7F0B5CE4600B586B073
:101CA000049205930C9D0D9C0EAE33789946109FBF
:101CB000119B129EB2071BD4002B08D0F20706D549
:101CC0004A46002A02D10C32324200D0013BBC42CB
:101CD00008D21F2C06D830222A550134F7E73022CB
:101CE0002A550134F20703D59C4201D21F2CF6D9A4
:101CF000F20615D5720505D4002C03D0BC4223D0C2
:101D00009C4221D00F9A102A2AD00F9A102A2FD045
:101D10000F9A022A34D01F2C02D830272F550134B5
:101D20001F2C05D84A46002A30D02D272F550134C4
:101D30000396029301940095059B049AFFF766FFB2
:101D400006B004BC9146F0BD671E002F06D00F9A66
:101D5000102A01D03C00D5E7023CD3E73C00D1E794
:101D6000B206D2D41F2CD0D878272F550134D2E711
:101D7000B206CDD51F2CCBD858272F550134CAE732
:101D80001F2CC8D862272F550134C4E7720703D52A
:101D90002B272F550134CBE73207C9D520272F55E4
:101DA0000134C5E7F0B5CE46474680B595B00890FA
:101DB00009910A920B931CAB10CB1B7898461E9D81
:101DC000219B9946002C03D110234A469A43914601
:101DD0008027FF004B461F4018D0002C22D0002740
:101DE00014E04A4692061BD54121C918C9B20A39E6
:101DF000C9B27E1C0CABD9552900200000F0BEFFF3
:101E0000AC4210D31F2E0ED837000400290020004A
:101E100000F0B4FFCBB2092BE3D83033D9B2E8E7F6
:101E20006121E2E726004B460693209B05931F9B0A
:101E3000049303954346029301960CAB00930B9BCE
:101E40000A9A09990898FFF727FF15B00CBC90462D
:101E50009946F0BDF0B5DE46574680B597B00A907A
:101E60000B910C920D931E9A08921F9C20AB1B782D
:101E70009B46229B0993239D269B9A462243131E31
:101E800003D1103352469A4392468026F6005346B9
:101E90001E4006D0089A1300234333D00026370093
:101EA0001AE0370018E05246920621D54122D21896
:101EB000D2B20A3AD2B27E1C0EABDA55099A2B0086
:101EC0000898210000F09CFFA5421DD812D01F2EBB
:101ED00016D8370008900C00099A2B0008982100AA
:101EE00000F08EFFD3B2092BDDD83033DAB2E2E74F
:101EF0006122DCE7099B089A9342E8D9370004E0A5
:101F0000370002E0002700E0370053460693259B88
:101F10000593249B0493099B03935B4602930197CB
:101F20000EAB00930D9B0C9A0B990A98FFF7B4FE29
:101F300017B00CBC92469B46F0BD0000F0B5D646EB
:101F40004F464646C0B594B00A9006910B9207934F
:101F50001C9C08941D9D099522002B00200029003F
:101F600001F0DDF9002800D0E8E001225242D64B12
:101F70002000290001F0CEF9002800D0DEE0012287
:101F80005242D24B2000290001F0AEF9002800D0C7
:101F9000D4E000220023089D2800099C210001F0C4
:101FA000A3F9002800D0DFE0089E099F8023DB0012
:101FB000209A1A409046131E01D106331E930C96A8
:101FC0000D973A00324300D1D5E0380D4005400D61
:101FD000BF4A944660443A03120BBE4B13431D00A4
:101FE00001F0B0F9BC4ABD4B01F03BF9BC4ABD4B16
:101FF00001F010F90C900D910022BB4B300029002C
:1020000001F0FFF8B94ABA4B01F02BF902000B00BE
:102010000C980D9901F0FEF801F0ACF9824601F040
:1020200091F9B44AB44B0C900D9101F01AF90022C9
:10203000B24B01F0EFF801F09DF90500B04AB14B49
:102040000C980D9901F00DF90C900D91280001F0FC
:1020500079F9AD4AAD4B01F004F902000B000C9880
:102060000D9901F0CEF802000B000E900F9101F0D7
:10207000F8F810901191A64B9C4665442B050D93E2
:1020800000230C930E9C0F9D22002B0020002900A2
:1020900001F0C0F80E900F9122002B00002080214B
:1020A000C90501F0AEF8129013910022994B109CD3
:1020B000119D2000290001F0B6F80022964B01F096
:1020C000A9F802000B002000290001F0ACF8002262
:1020D000924B01F09FF802000B002000290001F054
:1020E000A2F802000B001298139901F093F8020075
:1020F0000B000E980F9901F096F80022754B01F035
:1021000089F80C9A0D9B01F0ACF802000B000C92C0
:102110000D9332003B0004000D0001F0FBF8002895
:102120002BD001235B429C46E24400227A4B2000E4
:10213000290001F078F80C900D911EE0209B04938B
:102140001F9B03931E9B0293089A099B0092019385
:10215000079B0B9A06990A9800F0F4F814B01CBC7F
:1021600090469946A246F0BD2E0080231B069C4651
:10217000644427001AE700239A4653466333C62B6C
:1021800021D80425209B1B0529D50C9A0D9B1900ED
:10219000114310D0624A634B3000390001F0B2F8AD
:1021A000002800D182E000225F4B3000390001F0AE
:1021B0009BF800287AD01E9B534506DD52469C1A98
:1021C000631E1E9303E00525DCE700231E93802396
:1021D000DB00209A1A432092002500239A461F9B79
:1021E0009D426DD25B1B99460223209A1A4090466D
:1021F00003D0002D01D0002399465346002B07D071
:102200000C9A0D9B3000390001F00DF806000F000C
:10221000002200230898099901F066F8002800D0F0
:1022200086E0424B209A134004934B4603931E9B37
:10223000029300960197079B0B9A06990A9800F063
:1022400081F8002D00D189E7209B9B0675D5452696
:10225000471C079B0200069930000A9EB047504673
:10226000C2178318534005220592013D04950022B0
:1022700003920A320292C40F01940093079B3A0022
:1022800006993000FFF78EFD4346002B00D165E72D
:1022900002000A9E0B9C1F9D131BAB424FD2571C82
:1022A000079B06992020B0473A00F5E71E9B002BBC
:1022B00095D04346002B92D01E9B013B1E938EE788
:1022C0000023994690E7C046FFFFEF7FFFFFEFFF37
:1022D00001FCFFFF0000F03FFB799F501344D33F08
:1022E000B3C8608B288AC63F0000F83F61436F6324
:1022F000A787D23F71A379094F930A400000E03FBE
:102300001655B5BBB16B0240EF39FAFE422EE63FDF
:10231000FF03000000002C40000024400000184093
:102320002D431CEBE2361A3F80842E41FFF7FFFF5E
:10233000802109067B181F0073E7652688E71000D7
:102340000CE7C046F0B5D646474680B597B0069034
:10235000079108920993209F1E9A1F9B1000190055
:1023600000F0DDFF002839D101225242BC4B1E98FB
:102370001F9900F0B9FF00283FD101225242B94B0A
:102380001E981F9900F0C6FF002845D10022B64BC9
:102390001E981F9900F0BEFF002856D10022B34BB3
:1023A0001E981F9900F0A0FF00284ED100220023A4
:1023B0001E981F9900F098FF002856D100239A46D6
:1023C000229B5B055CD500261F2E5BD8092F59D9AF
:1023D0000EAB30229A55013F0136F5E7229B03935D
:1023E000219B029303230193A14B0093099B089A1D
:1023F00007990698FFF70AFC03E1229B0393219BB0
:102400000293042301939B4B0093099B089A07991D
:102410000698FFF7FBFBF4E00423229A134010D048
:10242000954A002B0FD00423229903912199029100
:1024300001930092099B089A07990698FFF7E6FB1B
:10244000DFE08E4AEDE70323EEE7229B0493219B16
:10245000039302971E9B1F9C00930194099B089A6B
:1024600007990698FFF76AFDCBE01E9A1F9B002094
:10247000002100F0C6FE1E901F9101239A469FE79F
:102480000627A0E71E981F9900F074FF040000F0D3
:1024900059FF02000B001E981F9900F0B2FEFA00CF
:1024A000774B9B181A685B680C920D9300F0D9FE6D
:1024B0000A900B9100F082FF050000F03FFF020040
:1024C0000B000A980B9900F09CFE0A900B910022D9
:1024D0006C4B00F01FFF00282CD00135280000F0C5
:1024E0002DFF02000B000C980D9900F003FF00284F
:1024F00001D001340025002F2AD1200000F022FF56
:1025000002000B001E981F9900F07BFE00225D4B1D
:102510000A900B9100F0E8FE002844D10022594BAC
:102520000A980B9900F0F6FE00283CD1E3073AD553
:10253000013438E00022534B0A980B9900F0D4FE86
:102540000028D8D1002D01D0EB07D4D50135D2E732
:102550000A941F2E11D8013F0A21280000F00EFC1A
:10256000741C30310EAB99550A21280000F006FC8E
:10257000092D0ED905002600EBE70A9C1F2E0CD86A
:102580007B1E002F09D00EAA302191551F00013665
:10259000F4E7A0460A9C4646F0E71F2E03D80EAB90
:1025A0002E229A5501361F2E10D80A21200000F045
:1025B000BDFB751C30310EAB99550A21200000F08F
:1025C000B5FB041E01D02E00EDE72E000323229A56
:1025D0001340012B1AD01F2E06D85346002B2FD0A4
:1025E0000EAB2D229A550136229B0393219B029319
:1025F00001960EAB0093099B089A07990698FFF77E
:1026000005FB17B00CBC90469A46F0BD219B002BF1
:102610000AD05346002B02D10C3313420ED0219B1B
:10262000013B2193190000E021998E42D3D21F2E45
:10263000D1D80EAB30229A550136F6E72199F4E74E
:10264000229B5B0704D50EAB2B229A550136CBE7B4
:10265000229B1B07C8D50EAB20229A550136C3E733
:10266000FFFFEFFFFFFFEF7F65CDCD4165CDCDC112
:10267000D04C0010D44C0010C84C0010C44C0010BA
:10268000E04C00100000E03FF0B5DE4657464E46F5
:102690004546E0B593B083460B910A921193002909
:1026A00000D1E6E200275C46119B1878002800D193
:1026B000E2E2252809D07D1C0A9B3A000B99A0472D
:1026C000119B013311932F00EEE701331193002684
:1026D0001DE00B00303BDBB2092B37D92A293AD059
:1026E00000239B46119B1A782E2A44D0002398463B
:1026F000119A1378683BD9B2122900D980E08B0077
:10270000CB49CB589F4601231E4301321192119AA7
:1027100011780B00203BD8B21028DAD88300C548C6
:10272000C3589F4602231E4301321192EFE7042350
:102730001E4301321192EAE708231E43013211922F
:10274000E5E710231E4301321192E0E711A8FFF7DD
:1027500049FA8346C6E71C9B1A1D1C921B68002B76
:1027600004DB9B46119B01331193BBE70222164306
:102770005B429B46F6E78022D20016435A1C119218
:102780005A781300303BDBB2092B04D92A2A07D030
:1027900000239846ACE711A8FFF724FA8046A7E784
:1027A0001C9B1A1D1C921B68002B04DB9846119B76
:1027B000013311939CE70023F8E780235B00334348
:1027C000511C119152786C2A01D01E0018E0C023D0
:1027D0009B001E430131119112E080233343511CB1
:1027E00011915278682A01D01E0009E0C0231E43CF
:1027F0000131119104E080235B001E4301321192EC
:10280000119B18780300253BDAB2532A00D926E23F
:102810009300894AD3589F4680239B001E43013270
:102820001192EDE780235B001E4301321192E7E72E
:10283000782809D0582838D06F2838D0622838D066
:1028400010239E430A2500E01025582833D069281C
:1028500003D0642801D00C229643730501D50122D0
:10286000964369282AD0642828D0B30500D59FE074
:10287000F30500D5B8E0730600D4CAE01C9A111D18
:102880001C911168FF220A4005965B46049343465B
:10289000039302950023019300920A9B3A000B993F
:1028A0002000FFF77FFA070027E01025CDE7082575
:1028B000CBE70225C9E720221643C8E7B30520D499
:1028C000F30550D4730666D51C9A111D1C9111682E
:1028D000FF220A40D317D118594005965B4604934E
:1028E000434603930295D20F019200910A9B3A004E
:1028F0000B992000FFF756FA0700119B0133119343
:10290000D2E61C9BDA1D07218A43110008311C9175
:10291000116853689C46DB170C930D930C9A0D9B22
:10292000100048400E90624653400F930E980F9946
:102930000C9A0D9B801A99410E900F9108965B4658
:102940000793434606930495002305936346DA0FE5
:102950000292009001910A9B3A000B992000FFF728
:1029600079FA0700C9E71C9A111D1C911268D31748
:10297000D118594005965B4604934346039302954C
:10298000D20F019200910A9B3A000B992000FFF7A9
:1029900009FA0700B1E7330605D51C9A111D1C91F1
:1029A0000023D25E96E71C9A111D1C91126891E7D4
:1029B0001C9BDA1D07218A43110008311C910896DF
:1029C0005B460793434606930495002305930293C1
:1029D00053681268009201930A9B3A000B992000F9
:1029E000FFF738FA070088E71C9A111D1C9105961D
:1029F0005B460493434603930295002301931368B7
:102A000000930A9B3A000B992000FFF7CBF90700CF
:102A100073E7330606D51C9A111D1C911268120427
:102A2000120C31E71C9A111D1C9112682CE7C0464C
:102A3000E44A0010304B0010744B001046281AD0A6
:102A40001C9B0733072293431A0008321C920496FA
:102A50005A460392424602921A685B6800920193BA
:102A60000A9B3A000B992000FFF76CFC0700119BB2
:102A70000133119318E620231E43E1E7672801D0B4
:102A8000472802D180231B011E43452801D0472837
:102A900001D120231E431C9B0733072293431A00B6
:102AA00008321C9204965A460392424602921A68D1
:102AB0005B68009201930A9B3A000B992000FFF794
:102AC0003DFA0700119B01331193EDE502233340DA
:102AD0009A461ED001261C9B1A1D1C927D1C18783C
:102AE0000A9B3A000B99A0475346002B15D1119B26
:102AF000013311932F00D7E5551C0A9B0B99202019
:102B0000A04733002A005E1C9F42F5D8BB46170041
:102B1000E1E701233A005F46F5E72A00A0465C465C
:102B200006E0571C0A9B0B992020C0472E003A0054
:102B3000751CB442F5D815004446D8E71C9B1A1DF5
:102B40001C921B689A464346002B00D1013B554618
:102B50002A78002A05D05A1E002B02D00135130016
:102B6000F6E75346ED1A8023DB003340994602D046
:102B7000454500D9454602233340109308D03A001A
:102B8000564629004D4623004446984689461FE094
:102B90003A0023005C469B4606E0571C0A9B0B99B3
:102BA0002020D84735003A006E1CAC42F5D83500DD
:102BB0005B46A346564629004D46444698468946FC
:102BC00006E01C000136571C0A9B0B99C0473A00CF
:102BD0003078002804D0002DF4D0631E002CF0D1F2
:102BE00017004D464446109B002B03D1119B013327
:102BF000119359E55C4606E0571C0A9B0B9920206F
:102C0000C04735003A006E1CAC42F5D81700444668
:102C1000ECE7212333431C9A111D1C91126800928A
:102C20000593082304934346039310230293002340
:102C300001930A9B3A000B992000FFF7B3F80700B5
:102C4000119B013311932FE57D1C0A9B3A000B99D0
:102C50002520A047119B013311932F0024E57D1CF3
:102C60000A9B3A000B99A047119B013311932F0047
:102C70001AE50B4B9B4615E5A3460A9B9F420CD3D6
:102C80005A1E0A9B0B990020D847380013B03CBC51
:102C900090469946A246AB46F0BD3A00F1E7C046E1
:102CA000D51B001000B585B002900391012100935F
:102CB00013004A4202A90248FFF7E6FC05B000BD36
:102CC000D71B001001480421014B18477003002056
:102CD000F52C001010B5010018231B881422108851
:102CE000984710BD10B5010018231B8816221088C4
:102CF000984710BDF0B5C64600B507000E00002588
:102D00000123984600E00135B5420AD2AC003C19D7
:102D10002068FFF7DFFF20600028F4D100239846E9
:102D2000F1E7404604BC9046F0BD0000124A936FA4
:102D30009B0815D29066D166002905D0FFE7FFE712
:102D4000FFE7516F106F704704B580210906C21765
:102D50005140002800D0C84301F06EF9002104BDA5
:102D6000F0B5146E556E576F166FFFF7E3FF1466DC
:102D7000556657671667F0BD000000D0114A936F83
:102D80009B0813D210665166002905D0FFE7FFE7C4
:102D9000FFE7516F106F704704B5002801D0002085
:102DA000C04301F049F9002104BDC046F0B5146EDE
:102DB000556E576F166FFFF7E5FF14665566576738
:102DC0001667F0BD000000D094464E4A926F9208FC
:102DD000624601D230E0C046F0B54A4EB56F6D088C
:102DE000FCD3346E756E776F366F00F025F894461D
:102DF000444A14665566576716676246F0BDC0467A
:102E00009446404A926F9208624601D258E0C0460A
:102E1000F0B53C4EB56F6D08FCD3346E756E776FB0
:102E2000366F00F04DF89446364A1466556657677B
:102E300016676246F0BDC046002B24DB11D0002986
:102E40003EDA00B5C943404200D1013100F038F804
:102E5000C943404200D10131DB43524200D101332A
:102E600000BD002AEBD1002801D1002905D00020A7
:102E7000C90FC90701D1C043410800B501F0D4F81A
:102E80000022002300BD00B500290ADBDB435242CB
:102E900000D1013300F014F8C943404200D10131A0
:102EA00000BDC943404200D10131DB43524200D151
:102EB000013300F005F8DB43524200D1013300BD7D
:102EC000002923D1002B18D1002A0CD0BC460D4F6D
:102ED00038667A6600210023FFE7FFE7FFE77A6F95
:102EE000386F67467047002801D00748010000B5D9
:102EF00001F09AF80022002300BD02000B00002020
:102F000000217047000000D0FFFFFFFF002B00D022
:102F1000BFE0130C28D1002AE7D080B4114F3966E6
:102F20007A66FFE7FFE730B4040C7B6F396F1B0450
:102F300023433B667A66FFE7FFE7FFE7C04684B2BC
:102F40007B6F3D6F1B0423433B667A66FFE7FFE719
:102F5000C04600232C042D0C7A6F386F001969418C
:102F6000B0BC7047000000D0F0B594460025140EA8
:102F700001D112020835140F01D112010435940F4A
:102F800001D192000235D40F01D152000135D40B8A
:102F90000134254F7C66254C3C660E0C93B2FFE74E
:102FA000FFE7FFE73C6F6643360C7703BE4673438B
:102FB000DF0B5B04C01AB941130C7343DB18C91A49
:102FC000CE086643360CB64493B273431F0F1B0101
:102FD000C01AB941130C73431F0B1B05C01AB9412A
:102FE000860D8F023E436643360C092D24DB520AC0
:102FF0007243801A7703460A6643360C16235B1B1E
:10300000DE40DF40BF1964466643821B70460435CC
:1030100006330100D940A840C01900D30131A242B3
:1030200006D20023F0BD0000000000D0FFFFFFFF2C
:10303000121B0130F3D3F1E709277F1BFE406446E2
:10304000A2B27243801A00D20139220C7243130CCF
:103050001204821A99410B0070460435133701009F
:10306000F940A840801900D30131002B02D1A242BF
:103070000AD2F0BD013000D30131121BFAD2013B5C
:10308000F8D1A24200D2F0BD013000D30131121BB1
:10309000F7E7F0B51C0C00D080E00CB400251C0A4A
:1030A00004D11B02160E3343120208351C0B04D147
:1030B0001B01160F3343120104359C0B04D19B00F6
:1030C000960F334392000235DC0B02D192185B411C
:1030D00001351C00971864410134464F7C66464C0C
:1030E0003C660E0CFFE7FFE7FFE7C0463C6F664318
:1030F000360C7703BE4697B27743C01B00D2013926
:10310000C01B00D201399FB27743C91BC91B170CE2
:1031100077437E04FF0B801BB941CE086643360C13
:103120000C2D33DBB644120B1F053A431B0B97B231
:103130007743C01B00D201399FB27743C91B170CDC
:1031400077433E043F0C801BB941860D8F023E43FE
:10315000664329277F1BFE400C3D7746AF40BF19D1
:1031600030BCA2B2ABB272437343801A9941220CB5
:103170007243130C1204801A994102000B000137AC
:10318000001BA941F9D2781E0021F0BD0C277F1B3E
:10319000FE4077467F0BAF40FF19E0E700245D1C3F
:1031A00007D0144F7D663966FFE7FFE7FFE7FFE7CB
:1031B0003C6F95B29EB265436643401BB141150C0E
:1031C0001E0C6543664336042F0C3E432D04401B02
:1031D000B141994204D202000B0020000021F0BD51
:1031E00001D19042F7D3801A994101349942F2D328
:1031F000F6E70000000000D0FFFFFFFF484041401D
:10320000484018B41B4B5B68FC46019308BD04DFC3
:10321000D734001018B4174B1B68FC46019308BD47
:1032200000DFE13400109446134A926F920809D2ED
:10323000624618B40F4BDB68FC46019308BD0CDFF7
:10324000993700100C4AF0B5146E556E576F166F13
:103250006246FFF7EEFF084A146655665767166721
:10326000F0BD18B4034B9B68FC46019308BD08DF12
:103270003D360010A0060020000000D0FFB55040F1
:103280004240504059404B40594000E0FFB5154F77
:103290004C00640D03D0BC4204D10C0314D80020B0
:1032A000090D09055C00640D03D0BC4204D11C0368
:1032B0000AD800221B0D1B0501264B4009D44B40A8
:1032C00003D58B4200D18242FFBD9942FCD190428E
:1032D000FFBD0B43DB1803431343F5D0C943491823
:1032E000FFBD0000FF07000000B5FFF7CFFF8041E2
:1032F00000BDC04600B5FFF7C9FF01D9002000BDE1
:10330000012000BD00B5FFF7B9FF01D9002000BDC5
:10331000012000BD00B5FFF7B1FF804100BD0120D5
:1033200040054A00121804D85A00121801D800208B
:1033300070470120704700207047000000210028DE
:1033400005D17047C1174840401AFAD0C90713B5D4
:10335000064B1B6898470CBC441CA2401005120B7E
:103360000349091B09051943114310BD7C060020C0
:103370001F04000010B54C00620D8023D218DB0042
:10338000D21A5B057E2A10DD9E3A13DACC170903A8
:10339000490819435242D140640001341532202AB1
:1033A00005DAD0400843604310BD002010BD084638
:1033B000604310BDC80FC018013810BD18B4044BCD
:1033C0005B6AFC46019308BD24DF49390010000008
:1033D000A006002070B513231C78012C0CD0012C02
:1033E00013DC022C02DC1F4A1F4B9A641F48FFF7B4
:1033F00071FC1F4B186070BD00231F2BEFD8990084
:103400001848194A88500133F7E71A48FFF76AFC51
:1034100005001948FFF766FC023803789B007F2BF4
:1034200019DD80222900104800F092FB022CD8D12F
:10343000124B1A88B5231B029A4209D1104B1A88E5
:10344000104B9A4204D1104B1A88104B9A42C8D0A4
:103450000020FEF7E7F90E4B0E4A32210E48FEF728
:1034600047F9C0469D340010A00600204C330000F0
:103470007C060020534400005346000054380000EE
:10348000D8380000494600009C380000594600002A
:10349000304D0010E44D0010904D001007B560460F
:1034A000002800D100BE01880A0A0230DF2AFAD1C2
:1034B000C9B2820804D3028840880004104300E0A7
:1034C0000068024A5050039007BD0000A00600208B
:1034D0000FB403BC0CBCF0B50124E407634000E06A
:1034E000F0B50C0DCF0F661E3605891B640503D39E
:1034F000C943404200D30131640D03D0661CF60A73
:1035000007D0E41B00207F00791C89078912803CCA
:1035100024031D0DDF0F6E1E36059B1B6D0503D3A7
:10352000DB43524200D301336D0D03D06E1CF60A0B
:1035300007D0ED1B00227F007B1C9B079B12803D68
:103540002D032F1B661B58D4A446202E46DA2037A5
:103550001400BC401D00BD40F24033412A43801896
:103560005941CB0F05D0C943C043002264425041AA
:10357000514162464D0D28D10D0D07D100281FD0B5
:10358000241940414941013A0D0DF9D0640006D398
:10359000013000D30131002C01D140084000013A34
:1035A0000BD4941CE40A04D112051144DB0719441E
:1035B000F0BDD907204B194300E0D9070020F0BD2A
:1035C0000029DDD1002CDBD1F0BD0132C607400857
:1035D000CD0728434908002EE1D0D9E73C2E29DA4F
:1035E000203E40371400BC4000D00124F240144378
:1035F0001A00BB401C43D317ACE7AC46202F08DAB7
:1036000020360400B4400D00B540F840394128434D
:10361000A5E73C2F0CDA203F40360400B44000D030
:103620000124F84004430800B1400C43C117EAE705
:1036300010001900002494E70000F07FF0B50C0D95
:10364000661E3605891BE60A6405640D02D0651CFA
:10365000ED0A04D0002001210905803C2403A44682
:103660001C0D671E3F05DB1BE70A6405640D02D0D5
:10367000651CED0A04D0002201231B05803C2403B5
:103680007740644497B484B296B27443070C7E4387
:10369000150C6F4380B26843361802D30120000432
:1036A0003F183004350C00197D41844688B29AB227
:1036B00050430C0C62431F0C7C438EB27E43921924
:1036C00002D301263604A4191604170C36186741D4
:1036D00001BC81B29AB25143040C62431B0C5C439F
:1036E00080B25843121802D3012000042418100499
:1036F000130C401863412D185E410020474106BC61
:1037000088B293B258430C0C6343120C544389B2F1
:1037100051435B1802D301210904641819041A0CDF
:10372000091862416D1856410020474118BCF90242
:10373000720D1143F0026A0D1043ED020A0D03D120
:103740006D1940414941013B124E9B1B7600B3422B
:103750000ED26D0007D30130002671416646354315
:1037600001D1400840001B05C918E4072144F0BD01
:103770000BDA013306D1013004D101314F0D01D0F4
:103780004908F2E7E1070020F0BD013631050020CD
:10379000EBE70000FF030000F0B51C0D671E3F05BE
:1037A000DB1BE70A6405640D02D0661CF60A04D030
:1037B000002201231B05803C2403D0252D06002672
:1037C000F6432E661E096E66CE0FF619B446490002
:1037D0004F0D02D07E1CF60A03D000200021403F8E
:1037E0003F033E1BB600B444013F7F05C91B490897
:1037F0002E6F013676089C02950D25437543ED1317
:103800007543AD1301356D10F603761B0CB4CC0275
:10381000450D2C43A2B2B3B25A43270C7B43350C5F
:103820006F43A4B26C431B1902D3012424043F1933
:103830001C041D0CA4187D4124196D41009A91B2FD
:10384000ACB26143170C7C432B0C5F4392B25A43DA
:10385000A41802D301221204BF182204230C521808
:103860007B41019C6C431B19520ED9010A43440150
:10387000A01A81B2B2B2514303145A43360C7343B7
:1038800087B27743D617D21900277E4136049B1999
:103890001704160C7F185E417316ED18F30100260D
:1038A00080337541A90F06D16400690AE8055B0AF7
:1038B000184309D22FE00422944480337541A90AA9
:1038C000A8059B0A184326D3404149412404009A85
:1038D000019B0D005543641B4343E41A95B286B225
:1038E0007543170C7E43030C5F4392B25A43B618DC
:1038F00002D301221204BF183204330C52197B4147
:1039000052429C41002C02D4002201305141400817
:10391000CA071043490802B06246D7079210084B05
:10392000D218084B9A4203D212058918C919F0BD62
:103930000020002A01DC3900F0BD01331905F5E74C
:10394000FD030000FE070000002200B5203200F059
:1039500004F8080000BD000000220B150AD410B5C1
:10396000944600F031F81414013400DA0021CB172A
:10397000144C20470020002170476244343A0CD494
:103980000C2A07DA04009140904052422032D44081
:10399000214310BDD843D94310BD203207D40C4673
:1039A0009440524220321141D040204310BD0800C3
:1039B000C917203203D452422032104110BD1800E2
:1039C000190010BD7B3900100A0DCC0F531E1B05CA
:1039D000C91A520503D3C943404200D30131520DE5
:1039E00003D0531CDB0A07D0121B00206400611CAB
:1039F00089078912803A1203014BD21A70470000DE
:103A0000FF03000070B513231D782A48FFF76AF9F9
:103A10000400012D11D0012D09DDA31E1B789B0090
:103A20007F2B40DD80222100234800F091F82348BD
:103A3000FFF750F9224B186070BD542201001E4858
:103A400000F086F81F4B1A881F4B9A421CD1A723FF
:103A50009B011A881D4B9A4216D11D4B1A881D4B8B
:103A60009A4211D11C4B1A8894239B019A420BD184
:103A70001A4B1A881A4B9A4206D11A4B1A681A4BDB
:103A80009A4201D1152307E01848FDF7CBFE9900B3
:103A90001748094A885001331F2BF8D9144A064B9E
:103AA0001A62DA61B7E7134B134A42211348FDF754
:103AB0001FFEC04653460000A00700204C33000004
:103AC0007C060020EE290000C40F0000C20D00009B
:103AD000962B0000C0B50000182B0000CC2A000077
:103AE00010B50000FC2C000051ED87645C4800100C
:103AF000013B0010F84D00107C4E00102C4E0010C1
:103B000007B56046002800D100BE01880A0A0230CD
:103B1000DF2AFAD1C9B2820804D30288408800049F
:103B2000104300E00068024A5050039007BD0000B7
:103B3000A007002001480421014B18478003002002
:103B4000F52C0010014B1B68184700008003002073
:103B5000014B5B68184700008003002010B50C0083
:103B6000036811002000984710BD0000F8B5070059
:103B70000D001600437C002B02D0002400200CE036
:103B800003681100280098472DE03B7C10E00221DB
:103B900015483B689847601C0134B44214DA002C85
:103BA000F3DD2B19013B1B780D3B5A425341DBB22D
:103BB0002A5D0A2AF0D1002BEED1A042E7DA211AC1
:103BC00028183B689847E2E7B04203DA311A281810
:103BD0003B689847002E06DDAD19013D2B780D3B63
:103BE0005A4253413B74F8BD544F001070B5050064
:103BF0000368002B16D00C4B1C6805E0290004C993
:103C00002000FFF7B3FFE468002C09D02368002BE5
:103C1000F9D0064B1B68002BF0D0A342F3D1EDE79F
:103C200000232B6070BDC0465C06002060060020AB
:103C300070B505000C000B68802B05D023685A1C5A
:103C40002260E418257170BD0800FFF7CFFFF5E78B
:103C500010B582B0D0231B0600241C5701A90748C9
:103C600000F0F2F9002806D1019B9C4203D00348E2
:103C700000F0F2F9012002B010BDC046A4030020FC
:103C800010B5024800F0C8F910BDC046A4030020DA
:103C9000F0B5C64600B584B001900D0016001C00BA
:103CA000FFF7D6FF80466B1C05D0002C08D0194FBB
:103CB000194B1C6807E0019800F070F90500F4E763
:103CC000164FF5E7E468002C16D02368002BF9D0D6
:103CD000134B1B68002B01D0A342F3D12A0001999A
:103CE0002000B847002EEDD002ABD91D0A230B707F
:103CF00001222000B847E5E74346002B06D1681EA5
:103D00008541E8B204B004BC9046F0BDFFF7B8FFAF
:103D1000F5E7C0465D3B00105C0600206D3B0010DF
:103D20006006002010B582B004006B46D81D0470F8
:103D3000002300220121FFF7ABFF200002B010BDDD
:103D4000094A1368002B0BD0834202D00C331A00AF
:103D5000F7E7002907D1C36813600023C36002E0BE
:103D6000002900D0106070475C06002010B5064B9B
:103D70001C6800E0E468002C04D06368002BF9D0D4
:103D80009847F7E710BDC0465C06002070B50500F7
:103D900000F004F904000023012201002800FFF7CD
:103DA00077FFFFF7E3FF200070BD000070B5A2B001
:103DB00004000E00FFF74CFF05008422002101A83B
:103DC000FFF7C0FE3300220001A90848FEF76AFF92
:103DD000040001A8FFF70AFFFFF7C8FF002D02D17A
:103DE000200022B070BDFFF74BFFF9E7313C001017
:103DF0000FB400B583B004A901C90191FFF7D6FF44
:103E000003B008BC04B0184710B500F083F810BD2B
:103E1000F0B583B000251AE06B4607330D241C7003
:103E2000002403E01F78176001340133002C1CD1FB
:103E30009769BF06FCD4F5E71E781660013401339C
:103E4000002C03D19669B606FCD4F5E701358D4206
:103E500010DA094B1A68465D084BD3185C4263417F
:103E60005B00074C1B5FB342D6D06B4607331E7016
:103E70000024E5E703B0F0BD940600200080FCBFFD
:103E80009C060020F0B583B0070000200EE0136808
:103E90002B7001340135002C03D19369DB06FCD46F
:103EA000F5E76B4607331B780370300088420ADA67
:103EB000084A1268956910242C4004D1461C381811
:103EC0006B46DD1DE7E7002801D003B0F0BD0338E5
:103ED000FBE7C0469406002070B515001C000B4B94
:103EE0001860FDF7BFFB002D06DA002C09DA01216E
:103EF0000748FFF725FF70BD02212800FCF74CFAA8
:103F0000F3E702212000FCF747FAF0E794060020CF
:103F10009003002010B5064B1B78064B1B78E1215F
:103F20000123002249020448FFF7D6FF10BDC04616
:103F30002C510010305100100040034010B50248D1
:103F400000F00CF810BDC0467406002010B5082221
:103F50000149FFF7FDFD10BD7406002030B589B0A2
:103F6000040004AD0D2200212800FFF7EBFD0D2217
:103F700000216846FFF7E6FD4B232B700D226946B2
:103F8000280000F041F8002304E05A1D69468A5CCD
:103F9000E2540133072BF8DD09B030BD10B58307BB
:103FA00027D00378002B26D00300032102E01A78E3
:103FB000002A1CD001330B42F9D119680F4A104C6A
:103FC0008A188A4322420FD1043319680B4A8A188F
:103FD0008A43224208D104331968084A8A188A435E
:103FE0002242F1D000E001331A78002AFBD1181ADE
:103FF00010BD0300E1E70020FAE7C046FFFEFEFE29
:1040000080808080F8B5C04601B40248844601BC77
:10401000604700BF0502002001B40248844601BC8D
:10402000604700BF5101002001B40248844601BC32
:10403000604700BFD902002001B40248844601BC99
:10404000604700BFD902002001B40248844601BC89
:10405000604700BF0901002001B40248844601BC4A
:08406000604700BFC100002011
:10406800556E69717565206964656E746966696500
:10407800723A000020253032780000006972715FC2
:104088007365745F6578636C75736976655F68617D
:104098006E646C65720000006D616B655F627261D1
:1040A8006E636800696E736572745F6272616E63D5
:1040B800685F616E645F6C696E6B00007265736F38
:1040C8006C76655F6272616E636800006972715F29
:1040D80072656D6F76655F68616E646C657200000D
:1040E8006972715F6164645F7461696C5F746F5F4A
:1040F800667265655F6C69737400000021286465E9
:104108006C7461203E3E2031317529006972715FFF
:1041180068616E6465725F636861696E5F66726527
:10412800655F736C6F745F68656164203E3D203025
:1041380000000000767461626C655F68616E646C93
:104148006572203D3D205F5F756E68616E646C65C9
:10415800645F757365725F69727100002128282891
:104168002875696E747074725F7429767461626CF4
:10417800655F68616E646C657229202D202828753A
:10418800696E747074725F74296972715F68616EA8
:10419800646C65725F636861696E5F736C6F74737A
:1041A80029202D2031292573697A656F6628737453
:1041B80072756374206972715F68616E646C657290
:1041C8005F636861696E5F736C6F74292900000012
:1041D80030783163203D3D20282A696E7374293E6A
:1041E8003E3131750000000069735F736861726564
:1041F800645F6972715F7261775F68616E646C6534
:104208007228736C6F745F68616E646C65722900E4
:10421800657863657074696F6E000000666F756E0F
:104228006400000021657863657074696F6E207C96
:104238007C20657863657074696F6E203D3D206EE3
:10424800756D202B2031360066616C7365000000A7
:1042580063757272656E74203D3D205F5F756E6890
:10426800616E646C65645F757365725F69727120F5
:104278007C7C2063757272656E74203D3D20686198
:104288006E646C657200000064656C7461203E3D6C
:10429800202D323034382026262064656C74612045
:1042A8003C3D203230343620262620212864656C97
:1042B80074612026203129002F686F6D652F626F89
:1042C800656D6D656C73656261737469616E2F707D
:1042D80069636F2F7069636F2D73646B2F737263DB
:1042E8002F7270325F636F6D6D6F6E2F68617264CD
:1042F800776172655F6972712F6972712E63000050
:104308007570646174655F75735F73696E63655F0B
:10431800626F6F740000000070685F6765745F6E9D
:104328006F64650070685F6164645F6368696C648A
:104338005F6E6F646500000070685F696E73657218
:10434800745F6E6F6465000070685F667265655FB4
:104358006E6F6465000000006765745F656E747257
:10436800790000006765745F656E7472795F6964CF
:104378005F686967680000006164645F616C61720E
:104388006D5F756E6465725F6C6F636B0000000033
:10439800616C61726D5F706F6F6C5F616C61726D83
:1043A8005F63616C6C6261636B0000002170685F21
:1043B800636F6E7461696E735F6E6F646528706F8A
:1043C8006F6C2D3E686561702C2072657573655F32
:1043D8006964290075735F73696E63655F626F6FE7
:1043E80074203C3D20494E5436345F4D41580000FE
:1043F8002F686F6D652F626F656D6D656C73656293
:1044080061737469616E2F7069636F2F7069636F70
:104418002D73646B2F7372632F636F6D6D6F6E2FC7
:104428007069636F5F626173652F696E636C756431
:10443800652F7069636F2F74797065732E6800003B
:1044480072656D6F7665645F6964203D3D206E65B9
:1044580078745F696400000063616C6C6261636B0F
:1044680000000000706F6F6C2D3E616C61726D5FB3
:10447800696E5F70726F6772657373203D3D206D62
:10448800616B655F7075626C69635F6964286964F4
:104498005F686967682C206E6578745F69642900B5
:1044A8006964202626202170685F636F6E746169D5
:1044B8006E735F6E6F646528686561702C2069642F
:1044C800290000006964202626206964203C3D20DC
:1044D800706F6F6C2D3E686561702D3E6D61785F01
:1044E8006E6F646573000000256C6C642028686931
:1044F8002025303278290000696420262620696446
:10450800203C3D20686561702D3E6D61785F6E6F5F
:10451800646573002F686F6D652F626F656D6D65DB
:104528006C73656261737469616E2F7069636F2F54
:104538007069636F2D73646B2F7372632F636F6D74
:104548006D6F6E2F7069636F5F7574696C2F696E1C
:10455800636C7564652F7069636F2F7574696C2F50
:1045680070686561702E6800706172656E745F694D
:10457800640000006368696C645F6964000000009F
:10458800706172656E745F696420213D206368699B
:104598006C645F696400000072742D3E616C617226
:1045A8006D5F6964203D3D20696400002F686F6D70
:1045B800652F626F656D6D656C7365626173746993
:1045C800616E2F7069636F2F7069636F2D73646BF1
:1045D8002F7372632F636F6D6D6F6E2F7069636FCA
:1045E8005F74696D652F74696D652E630000000046
:1045F80068617264776172655F616C61726D5F7327
:1046080065745F7461726765740000004861726464
:104618007761726520616C61726D20256420616C20
:10462800726561647920636C61696D65640000007E
:1046380074696D65725F68772D3E696E74732026A4
:10464800203175203C3C20616C61726D5F6E756D28
:10465800000000002F686F6D652F626F656D6D65D6
:104668006C73656261737469616E2F7069636F2F13
:104678007069636F2D73646B2F7372632F7270325E
:104688005F636F6D6D6F6E2F6861726477617265BD
:104698005F74696D65722F74696D65722E630000B1
:1046A80070685F6765745F6E6F64650070685F61EE
:1046B80064645F6368696C645F6E6F6465000000C2
:1046C80070685F72656D6F76655F616E795F68654A
:1046D8006164000070685F72656D6F76655F616E1A
:1046E800645F667265655F6E6F6465006E65775FAF
:1046F8007375625F7472656520213D20686561701D
:104708002D3E726F6F745F6964000000726F6F7482
:104718005F6964002F686F6D652F626F656D6D65E9
:104728006C73656261737469616E2F7069636F2F52
:104738007069636F2D73646B2F7372632F636F6D72
:104748006D6F6E2F7069636F5F7574696C2F706819
:104758006561702E630000002170685F6765745F93
:104768006E6F646528686561702C20726F6F745F66
:104778006964292D3E7369626C696E6700000000E8
:104788002170685F6765745F6E6F6465286865612E
:10479800702C20726F6F745F6964292D3E7061728E
:1047A800656E74006D757465785F6578697400006E
:1047B800746F74616C0000002F686F6D652F626FF5
:1047C800656D6D656C73656261737469616E2F7078
:1047D80069636F2F7069636F2D73646B2F737263D6
:1047E8002F636F6D6D6F6E2F7069636F5F73796E76
:1047F800632F6D757465782E630000006D74782DD5
:104808003E636F72652E7370696E5F6C6F636B00C9
:104818006C6F636B5F69735F6F776E65725F6964F6
:104828005F76616C6964286D74782D3E6F776E656C
:10483800722900006D74782D3E656E7465725F6331
:104848006F756E74000000002C2066756E637469C5
:104858006F6E3A2000000000617373657274696FAF
:104868006E2022257322206661696C65643A206691
:10487800696C6520222573222C206C696E652025C1
:1048880064257325730A000072756E74696D655F1F
:10489800696E6974000000000A2A2A2A2050414ED5
:1048A8004943202A2A2A0A000A00000031203D3DF7
:1048B800202875696E747074725F74296C2D3E734C
:1048C80070696E5F6C6F636B000000002F686F6D1E
:1048D800652F626F656D6D656C7365626173746970
:1048E800616E2F7069636F2F7069636F2D73646BCE
:1048F8002F7372632F7270325F636F6D6D6F6E2FDF
:104908007069636F5F72756E74696D652F72756E0D
:1049180074696D652E630000636C6F636B5F636F12
:104928006E666967757265007372635F667265713A
:10493800203E3D2066726571000000002F686F6D93
:10494800652F626F656D6D656C73656261737469FF
:10495800616E2F7069636F2F7069636F2D73646B5D
:104968002F7372632F7270325F636F6D6D6F6E2F6E
:1049780068617264776172655F636C6F636B732FD4
:10498800636C6F636B732E6300000000706C6C5F68
:10499800696E69740000000076636F5F6672657106
:1049A800203E3D20285049434F5F504C4C5F5643B2
:1049B8004F5F4D494E5F465245515F4D485A202A38
:1049C800204D485A292026262076636F5F66726537
:1049D80071203C3D20285049434F5F504C4C5F5656
:1049E800434F5F4D41585F465245515F4D485A20ED
:1049F8002A204D485A2900002F686F6D652F626F75
:104A0800656D6D656C73656261737469616E2F7035
:104A180069636F2F7069636F2D73646B2F73726393
:104A28002F7270325F636F6D6D6F6E2F6861726485
:104A3800776172655F706C6C2F706C6C2E63000010
:104A48006662646976203E3D20313620262620663F
:104A580062646976203C3D203332300028706F73E1
:104A6800745F64697631203E3D203120262620700F
:104A78006F73745F64697631203C3D2037292026A6
:104A8800262028706F73745F64697632203E3D205B
:104A98003120262620706F73745F64697632203C5B
:104AA8003D20372900000000706F73745F646976D9
:104AB80032203C3D20706F73745F6469763100006A
:104AC8007265665F6D687A203C3D202876636F5F6B
:104AD80066726571202F203136290000DA27001010
:104AE800002800101828001000280010BA2700100D
:104AF80000280010002800100028001000280010CE
:104B0800002800100028001000280010F6270010C8
:104B180000280010002800100028001000280010AD
:104B2800002800102428001038270010D226001072
:104B3800D226001042270010D2260010D2260010DC
:104B4800D2260010D2260010D2260010D22600103D
:104B5800D22600102E270010D2260010242700107D
:104B6800D2260010D226001006270010482C00106C
:104B78005E2C00105E2C00105E2C00105E2C0010C5
:104B88005E2C00105E2C00105E2C00105E2C0010B5
:104B98005E2C00105E2C00105E2C00105E2C0010A5
:104BA8005E2C00105E2C00105E2C00105E2C001095
:104BB8005E2C00105E2C00105E2C00105E2C001085
:104BC8005E2C00105E2C00105E2C00105E2C001075
:104BD8005E2C00105E2C00105E2C00105E2C001065
:104BE8005E2C00105E2C00105E2C00107C2A001039
:104BF8003C2A00107C2A00105E2C00105E2C00104D
:104C08005E2C00105E2C00105E2C00105E2C001034
:104C18005E2C00105E2C00105E2C00105E2C001024
:104C28005E2C00105E2C00105E2C00105E2C001014
:104C38005E2C00105E2C0010302800105E2C001036
:104C48005E2C00105E2C00105E2C00105E2C0010F4
:104C58005E2C00105E2C00105E2C00105E2C0010E4
:104C680030280010CC2A0010302800107C2A0010B0
:104C78003C2A00107C2A00105E2C001030280010FE
:104C88005E2C00105E2C00105E2C00105E2C0010B4
:104C98005E2C001030280010122C00105E2C001022
:104CA8005E2C00103C2B00105E2C001030280010E9
:104CB8005E2C00105E2C001030280010666E690013
:104CC800666E692B000000006E616E00666E692DCD
:104CD8000000000000000000000000000000F03F9D
:104CE80000000000000024400000000000005940BF
:104CF8000000000000408F40000000000088C34012
:104D080000000000006AF8400000000080842E4186
:104D180000000000D01263410000000084D79741D2
:104D28000000000065CDCD412A282875696E7438C9
:104D38005F74202A29282828766F6964202A297216
:104D48006F6D5F646174615F6C6F6F6B75702872F3
:104D58006F6D5F7461626C655F636F64652827536C
:104D6800272C202746272929292D322929202A209E
:104D780034203E3D2053465F5441424C455F5632F5
:104D88005F53495A450000002F686F6D652F626FA9
:104D9800656D6D656C73656261737469616E2F70A2
:104DA80069636F2F7069636F2D73646B2F73726300
:104DB8002F7270325F636F6D6D6F6E2F7069636FE6
:104DC8005F646F75626C652F646F75626C655F698F
:104DD8006E69745F726F6D2E630000005F5F6165BE
:104DE8006162695F646F75626C655F696E697400A2
:104DF8002A282875696E74385F74202A2928726FEA
:104E08006D5F7461626C652D322929202A20342057
:104E18003E3D2053465F5441424C455F56325F53F6
:104E2800495A45002F686F6D652F626F656D6D6516
:104E38006C73656261737469616E2F7069636F2F3B
:104E48007069636F2D73646B2F7372632F72703286
:104E58005F636F6D6D6F6E2F7069636F5F666C6FE8
:104E680061742F666C6F61745F696E69745F726FCD
:104E78006D2E63005F5F61656162695F666C6F617B
:104E8800745F696E6974000006005250BBFF3CB63F
:104E9800304F0010060052509A235618D84E001072
:104EA80006005250E182887FC84E0010060052501A
:104EB800D3F07542C04E001044656275670000006B
:104EC800626F6F74325F77323571303830000000AE
:104ED80068747470733A2F2F6769746875622E63EB
:104EE8006F6D2F72617370626572727970692F705D
:104EF80069636F2D6578616D706C65732F74726569
:104F0800652F484541442F73797374656D2F756E0D
:104F1800697175655F626F6172645F696400000042
:104F2800312E342E300000007069636F00000000DD
:104F3800756E697175655F626F6172645F6964003F
:104F48004A756C2020372032303232000D0A0000BA
:104F58000600525053B4F4A1844F00100800525078
:104F6800920000005541525420737464696E000029
:104F780055415254207374646F75740055415254EE
:104F880020737464696E202F207374646F757400C5
:104F9800666C6173685F646F5F636D640000000036
:104FA800666C6173685F6F666673202B20636F752C
:104FB8006E74203C3D205049434F5F464C41534856
:104FC8005F53495A455F4259544553002F686F6DE6
:104FD800652F626F656D6D656C7365626173746969
:104FE800616E2F7069636F2F7069636F2D73646BC7
:104FF8002F7372632F7270325F636F6D6D6F6E2FD8
:1050080068617264776172655F666C6173682F6648
:105018006C6173682E630000636F6E6E6563745F06
:10502800696E7465726E616C5F666C617368202668
:105038002620666C6173685F657869745F7869704B
:1050480020262620666C6173685F72616E67655FF3
:10505800657261736520262620666C6173685F66D9
:105068006C7573685F63616368650000636F6E6E7B
:105078006563745F696E7465726E616C5F666C619E
:10508800736820262620666C6173685F657869748A
:105098005F78697020262620666C6173685F72618C
:1050A8006E67655F70726F6772616D202626206675
:1050B8006C6173685F666C7573685F63616368656C
:1050C80000000000636F6E6E6563745F696E7465DF
:1050D800726E616C5F666C61736820262620666C50
:1050E8006173685F657869745F7869702026262027
:1050F800666C6173685F666C7573685F636163682B
:04510800650000003E
:10510C00B4020010A80200109C020010904E001077
:10511C00900200109C4E0010A84E0010B44E0010CF
:08512C00584F0010644F001001
:1051340010B5D0231B0600241C570268EFF310811E
:1051440072B61368002BFCD0BFF35F8F0423C356E1
:10515400002B08DB0368BFF35F8F00221A6081F322
:10516400108820BFE9E704710368BFF35F8F002252
:105174001A6081F3108810BD10B50268EFF3108433
:1051840072B61368002BFCD0BFF35F8F0423C356A1
:10519400002B0CDB002911D00B6000210368BFF346
:1051A4005F8F00221A6084F31088080010BDD0239A
:1051B4001B061B785BB203710121EFE70021EDE7C9
:1051C40010B50268EFF3108172B61368002BFCD09F
:1051D400BFF35F8F0423C356002B0ADBFF23037145
:1051E4000368BFF35F8F00221A6081F3108840BF09
:1051F40010BD034B034AA921034800F0A9F8C04697
:1052040018480010AC470010C0470010094B1B7829
:10521400002B0DD13F2B08DC9A0080214905511841
:105224000868054950500133F4E7024B01221A7013
:105234007047C04698060020F404002010B5024BC5
:105244000133984710BDC046F404002000280AD05A
:1052540003231B02054A12685340C02292001340E4
:10526400034A136070470223F3E7C0460C800140F1
:105274000C900140F0B5D6464F464646C0B50600F0
:105284000D001400182398461B88142738882849D1
:105294009847824643461B88388826499847814662
:1052A40043461B8838882449984707005346002BF7
:1052B4000DD04B46002B0AD0002808D0FFF7A6FFDC
:1052C400D047C8470020FFF7C1FF21000FE01B4B68
:1052D4001B4A80211B4800F03BF8002B07D0002913
:1052E40005D0C0235B051B6E2B70013901352300EB
:1052F4000B4312D0C0235B059A6A0823134092071C
:10530400EBD5002CE9D00A1B0D2AE6D83078C02250
:1053140052051066013C0136DFE70120FFF796FFD6
:10532400B847FFF78BFF1CBC90469946A246F0BDD8
:10533400494600004558000046430000CC50001088
:10534400984F0010D44F00107047C0460000000072
:1053540001B40248844601BC604700BFF116001046
:105364001000000000000000000001000000000028
:105374000000000000000200000000000000000027
:105384000000030000000000000000000000FF0017
:105394000000000000B5486801318E4600477046A1
:1053A40009380149884700BD7507001054030020DF
:1053B40000000000C80300201C06002000000000BC
:1053C400000000002C060020000000000000000087
:1053D40010000000000000000000000000000000B9
:1053E400503300004C3300005433000052330000AB
:1053F4004D5300004D43000053340000433400007B
:10540400113E001000000000853E00100000000066
:10541400000100000000000000000000353B001007
:10542400C52C0010D5330010053A001039030010C4
:045434003D3F0010E8
:04000005100001E9FD
:00000001FF
