:020000041000EA
:1000000000B5324B212058609868022188439860DF
:10001000D860186158612E4B002199600221596106
:100020000121F02299502B49196001219960352056
:1000300000F044F80222904214D00621196600F024
:1000400034F8196E01211966002018661A6600F04E
:100050002CF8196E196E196E052000F02FF8012189
:100060000842F9D1002199601B49196000215960AB
:100070001A491B48016001219960EB211966A021F2
:10008000196600F012F800219960164914480160C1
:100090000121996001BC002800D000471248134993
:1000A000086003C880F30888084703B5996A0420EC
:1000B0000142FBD001200142F8D103BD02B5186610
:1000C0001866FFF7F2FF186E186E02BD00000240BE
:1000D000000000180000070000035F00212200005C
:1000E000F4000018222000A00001001008ED00E03C
:1000F00000000000000000000000000074B24E7A12
:1001000000200420F7010010C3010010C5010010F9
:10011000C1010010C1010010C1010010C101001097
:10012000C1010010C1010010C1010010C701001081
:10013000C1010010C1010010C9010010CB01001065
:10014000CD010010CD010010CD010010CD01001037
:10015000CD010010CD010010CD010010CD01001027
:10016000CD010010CD010010CD010010CD01001017
:10017000CD010010CD010010CD010010CD01001007
:10018000CD010010CD010010CD010010CD010010F7
:10019000CD010010CD010010CD010010CD010010E7
:1001A000CD010010CD010010CD010010CD010010D7
:1001B000CD010010CD010010CD010010CD010010C7
:1001C00000BE00BE00BE00BE00BE00BE00F04BF888
:1001D000103800BEF2EB8871648F0010908F001011
:1001E0003402001090A31AE700202149086006C8D5
:1001F00081F3088810471F48006800282FD10DA4FC
:100200000ECC002902D000F012F8F9E71A491B4A77
:10021000002000E001C19142FCD1194988471949E9
:1002200088471949884700BEFDE701C901C29A42C3
:10023000FBD37047908F0010C000002014050020F1
:10024000E49300100000042000000420E493001058
:1002500000100420001004200000000070470B482C
:1002600003F0DEF90047EFF30580C0B270470000ED
:1002700008ED00E0000000D018050020A4120020C6
:10028000AD1F00105D030010691F001057560000DD
:1002900006005250ABB36053448700100600525022
:1002A000861C030254870010060052505422A29D5F
:1002B0006087001005005250DE65F468E49300107A
:1002C000F8B5C0460448054B10B5834203D0044B33
:1002D000002B00D0984710BD140500201405002005
:1002E0000000000006480749091A8910CB0F591869
:1002F00010B5491003D0044B002B00D0984710BD17
:1003000014050020140500200000000010B5074C63
:100310002378002B09D1FFF7D5FF054B002B02D026
:10032000044800E000BF0123237010BD2006002018
:100330000000000050770010054B10B5002B03D0D3
:100340000449054800E000BFFFF7CCFF10BDC046E0
:1003500000000000240600205077001010B504F0C3
:10036000DDFA07F06DF92B4B02221A602A4B1A684E
:100370008023DB015340E022D2011340274A13605F
:1003800004F0CCFA192000F073F8D0231B06802269
:1003900092045A6208E0D0231B06802292049A61DC
:1003A000FA20800001F084F91A4B04221A601A4BDB
:1003B0001B68DB05FBD5184B58680004000C04F0E3
:1003C00075F8174904F03BF804F092F8154A164BFB
:1003D00003F0BDFB154A164B03F0CBFB02000B00EC
:1003E0000020144903F0B3FB03F09AFC041C04F052
:1003F0007FF802000B00104804F084FA0F49201C1B
:1004000004F04EF80028C6D0D0231B0680229204A8
:100410005A61C5E700E0044000C0044000D0044039
:100420003333533A643BDF4F8D97E63F7FC2D9ADFC
:1004300065325C3F00003B40507700100000B04147
:1004400010B58300084A944663441C684022624009
:10045000C02414408022520113431C60C000034B8F
:100460009C466044416010BD04C001400040014012
:1004700010B501238340D0221206936293610521B7
:10048000FFF7DEFF10BD0000EFF3108072B6034BE4
:100490001B68002BFBD0BFF35F8F70472C0100D08F
:1004A000BFF35F8F024B00221A6080F31088704701
:1004B0002C0100D070B505000E001400FFF7E4FF1A
:1004C000F208AA1815780721314001238B402B42EE
:1004D00005D1DBB22B431370FFF7E2FF70BD310093
:1004E000200001F0DFFDF0B583B00700019114009A
:1004F0001E00FFF7C9FFB4420ED8E208BA181578FB
:100500000721214001238B402B4201D00134F2E727
:10051000DBB22B43137001E001246442FFF7C0FFFC
:10052000002C02DB200003B0F0BD019B002BF9D0B2
:10053000089801F0B7FD0000034B1B68022018402B
:10054000431E9841C0B2704700C0064000231F2BD5
:1005500008D8054A9A189200BFF35F8F00211160F6
:100560000133F4E77047C04640000034054A107874
:10057000431CDBB21370172B02D9130010221A7020
:100580007047C0460804002000B583B00100044B4A
:1005900000931F2318220348FFF7A5FF03B000BDF7
:1005A00060770010E00A0020074B9B681030800045
:1005B0001950BFF35F8FBFF35F8F044B00211960A9
:1005C00082F310887047C04600ED00E0240100D09F
:1005D00010B5091A0B1F0A4A94466144094A914210
:1005E00008D8DA0706D45B105B055B0D0648184394
:1005F00080B210BD054B064A9921064801F0B8FCAF
:10060000FC070000FE0F000000E0FFFFA0790010D3
:1006100098770010D079001010B5091A04394C08E9
:10062000090B08D14905490D064A11430180064BC3
:100630002343438010BD054B054AA121054801F025
:1006400097FCC04600F0FFFF00F8FFFF1478001091
:10065000A4770010D079001001238340034A10686A
:100660001840431E9841C0B27047C04600E100E008
:10067000002904D0034B1860034B18607047034BEC
:100680001860FBE780E200E000E100E080E100E0CC
:1006900010B5012383401800FFF7EAFF10BD0000EA
:1006A00001238340014A13607047C04600E200E026
:1006B000024B9B6810308000C058704700ED00E08E
:1006C00010B5FFF7F5FF002805D0054BC01A2F28FD
:1006D00003D8012010BD0020FCE70020FAE7C04647
:1006E0000C04002070B504000D00EFF3108672B604
:1006F0000C4B1B68002BFBD0BFF35F8F2000FFF774
:10070000D7FF094B984201D0A84205D132002900F9
:100710002000FFF749FF70BD044B054A7C210548C6
:1007200001F026FC240100D0CD01001068790010F2
:100730007C770010D0790010F0B5DE4657464E4663
:100740004546E0B589B0019003911700EFF3108B97
:1007500072B6714B1B68002BFBD0BFF35F8F6F4BE2
:1007600000255D57002D40DB6B005B199A006C483B
:100770001318029306229A56684B1A70694B9A68AE
:10078000019B10339B00D6583400331A2F2B38D9D5
:10079000654B9E422FD105AC644B23806B009A467B
:1007A0005B1998005E4E801902306149FFF710FF17
:1007B0006080604BA380FF23A371E771039BA3605C
:1007C0005544AB00F6180ECC0EC60126029B3343EF
:1007D0001E005A4631000198FFF7E6FE09B03CBC06
:1007E00090469946A246AB46F0BD534B534ACD21A5
:1007F000534801F0BDFB534B504AD421504801F0FF
:10080000B7FBC04330180C2102F05EFF002912D163
:1008100001239C43A24623000024DA79BA4211D96D
:100820000621595600290CDB4A00521891001C0081
:100830003B4B5B18F1E7444B404AE021404801F054
:1008400097FB1C00002C3BD005AB404A1A80813A34
:100850005A800623E3569846002B18DABD20000282
:1008600005AB9A46988042469A71DF71039A0792C7
:10087000201D0299FFF7ACFEA080A5716B005D19E9
:10088000AA00274B9B18524613CA13C3A1E76B005B
:100890005B199800224BC0180430221DA388D90A86
:1008A0001C2907D159054915023149005118FFF794
:1008B0008FFED5E7264B274AA721214801F058FB98
:1008C00005AC1A4B23806B005B199800144E8046D0
:1008D000B0444346981C1649FFF77AFE60804346B1
:1008E000181D5146FFF774FEA0801B4B5246921B09
:1008F000524153431B0DA371E771039BA36046460E
:100900000ECC0EC6114B52461380813B53800126FC
:10091000029B33431E005CE7240100D0DA0F002065
:100920000C04002000ED00E0CD01001000A1FFFF4D
:100930003C04002000BDFFFF24780010CC7700109D
:10094000D07900104C780010747800100148000035
:10095000E8780010BC770010AAAA0000F0B5C646DF
:1009600000B584B001900D00EFF3108672B6554BC0
:100970001B68002BFBD0BFF35F8F534B9A68019C21
:100980001034A300D758514B9F4207D0AF4200D13B
:1009900096E002974E4BFB1A2F2B08D932003900F4
:1009A0000198FFF701FE04B004BC9046F0BD019829
:1009B000FFF752FE039000210198FFF769FEBFF395
:1009C0005F8FFFF750FC011E01D0844211D101233B
:1009D000029C9C430020A368AB4212D00622A25680
:1009E000002A0DDB53009B189A002000384CA418F5
:1009F000F1E72C21374B384AFF31384801F0B8FA7B
:100A00002000AB4255D10623E3569846002B36DB37
:100A10005A00424491002E4B5B189A68A260DA7922
:100A2000E2719B795BB2A371002B12DABD20000248
:100A3000A08043465B0043449A00254B9B18284AFC
:100A4000117899714346137003990198FFF720FEBE
:100A5000A4E7201D1E4A8B181A1D9B88D90A1C2941
:100A600007D159054915023149005118FFF7B0FD6A
:100A7000DEE71C4B1C4AA721184801F079FA00292F
:100A800012D100280ED0FF238371184B8380144AA3
:100A90001378A371164B0E49641A644163431B0D0E
:100AA0001370D1E7094FF2E7201D1249FFF7B4FD9B
:100AB000CAE76021104B084AFF31084801F058FA94
:100AC000024F6BE7240100D000ED00E0CD010010E3
:100AD0000C0400203C790010E4770010D07900105D
:100AE000DA0F0020E8780010BC77001000BDFFFF8F
:100AF000AAAA00004604002060790010F8B504009E
:100B0000012606432D4BF31A2F2B28D8FFF7ABFBFA
:100B100000282BD0EFF3108772B6294B1B68002BEF
:100B2000FBD0BFF35F8F274D22002449521A524158
:100B300055432D0D6DB2244B9B6880001B58B3426A
:100B40001BD00023032B32D85A00D21891001B4A25
:100B50005218927952B2AA421FD00133F2E7C22151
:100B60001A4B1B4A49001B4801F002FA88211A4B14
:100B7000174AFF31174801F0FBF9134B9B68174ADE
:100B80001A50174B1A78A2711D70BFF35F8F0C4B70
:100B900000221A6087F31088F8BD08495A00D61859
:100BA000B0000818FF2686710E4B8380E9E7CC2140
:100BB0000D4B074A4900074801F0DAF90C04002000
:100BC000240100D0AAAA000000ED00E00079001086
:100BD000F8770010D079001028790010CD010010AE
:100BE000DA0F002000BDFFFF347900100022044B13
:100BF00002E0044902C30132072AFAD97047C0460D
:100C000000E400E08080808000B583B00100D02344
:100C10001B061868064B1818064B00930523002284
:100C2000FFF761FC002801DB1F23181A03B000BD89
:100C3000D40F0020187A0010024B9C4661448900B2
:100C400001607047400000340A4B1A68EFF31081CE
:100C500072B61368002BFCD0BFF35F8F054B1B6887
:100C6000BFF35F8F00221A6081F3108840BF00201D
:100C700000217047A00F002070B505000C0008008F
:100C800000F0A6FD200000F089FE0849200000F0D9
:100C9000C9FDFFF76BFC064B9C4660448000686012
:100CA0002C75A400034BE55070BDC046990F001091
:100CB00040000034840F002010B5002922D00368C2
:100CC0001B7B99421ED8174B9C46614409018368DF
:100CD0009C4661440C684968002A19D003681B7B54
:100CE0009A4215D883680F488446624412019A18C4
:100CF00010685368020001208B4201D80ED00020FA
:100D0000C0B210BD084B094A3B21094801F030F937
:100D1000054B064A3B21064801F02AF9A242EFD8CA
:100D2000EDE7C046FFFFFF0F507C00108C7A0010EB
:100D30005C7D001010B500291ED0037B99421BD8A2
:100D40004B005B18033B0468A4466344002919D098
:100D5000002A1DD0914221D0002A25D0047BA24236
:100D600022D8046850008018033820188170197840
:100D700000291FD11A7010BD104B114A682111486B
:100D800001F0F6F8104B114A6F310E4801F0F0F8FF
:100D90000F4B0E4A70210B4801F0EAF80D4B0B4A3D
:100DA0007121084801F0E4F8044B054A6821054820
:100DB00001F0DEF841701A70DDE7C046A87C001033
:100DC0004C7A0010C47C0010187D0010587A001076
:100DD000247D0010307D001070B506000D00140059
:100DE000002914D0002A14D080687368984700281E
:100DF00006D0220029003000FFF79CFF280007E002
:100E00002A0021003000FFF795FF200000E01000CD
:100E100070BD0800FCE7000070B5CE4600B583B099
:100E20000500009201930AAB1C780BAB1B78994626
:100E3000002C28D003685A7B944209D10123002B4F
:100E40001BD1002C3DD1200003B004BC914670BDE5
:100E5000002C0CD01A7B944209D81A6863001B1925
:100E6000033BD3189B78002BE9D00123E7E73F4BE6
:100E70003F4A68213F4801F07BF83F4B3F4A6521DC
:100E80003F4801F075F803689C7B002CD9D012D044
:100E90001A7B94420FD862001219033A19688C46E3
:100EA000624451789973002900D1D973002393705B
:100EB00053701370C5E72D4B2D4A68212D4801F062
:100EC00057F8002C3BD02B681B7B9C4237D82D4B0E
:100ED000E3181B01AA68944663440099019A1960BB
:100EE0005A60089A9A60099ADA602E68002C2CD011
:100EF00031D0337B9C422ED863001B19033B3268F0
:100F00009446634400229A705A701A70717B2200D2
:100F10003000FFF761FF7073844200D093E7287DB3
:100F2000009A019B00F0C6FC061E02D04B46002B27
:100F300017D00C9B002B00D185E71E7083E7124B66
:100F4000124A3B210E4801F013F8114B114AA5211A
:100F5000084801F00DF8054B054A6821054801F0E5
:100F600007F82868210000F0CFFEE2E7A87C001017
:100F70004C7A0010C47C0010107B0010C47A001062
:100F80005C7D0010FFFFFF0F507C00108C7A00107A
:100F9000587D00106C7A0010F0B5DE4657464E467C
:100FA0004546E0B58BB00990002308938200B24B10
:100FB000D7583D0052E0B14BB14A3F21B14800F053
:100FC000D7FFB14BB14A3B21B14800F0D1FF002B14
:100FD00001D1002A68D10021604600F08BFEA042BA
:100FE00019D13268736806920793B3689846F3681C
:100FF0009A464346002B14D0002C18D02B681B7B3C
:101000009C4214D8631EEA68D35C08931B02184301
:101010002861002015E09F4B9F4A8C219C4800F0DE
:10102000A7FF9E4B9C4A9021994800F0A1FF964B48
:101030009B4A4021964800F09BFF00239A46984621
:1010400000206B68BFF35F8F00221A6087F310885F
:101050004346002B31D1002800D105E100F0C4FB4C
:101060000029A8DB00230024069307946A68EFF3A5
:10107000108772B61368002BFCD0BFF35F8F2B680C
:101080009C465C7B002CD8D09BD01B7B9C4298D884
:10109000844BE6183601AB6898464644326873685C
:1010A000121A8B41002B92DD32687368099800F0A8
:1010B00001FC00239A469846C3E7089B1B02234382
:1010C000994651461800C04706000F006A68EFF3C2
:1010D000108B72B61368002BFCD0BFF35F8F002F0C
:1010E00026DB002F52DD2B69002B53D04B4574D1EA
:1010F00000F07AFB02000B1E75DB0100180092194C
:101100007B41984202D804D1914202D90122524235
:10111000D317002B6DDB0021049101310391029460
:1011200051460191414600912800FFF775FE4BE0C2
:101130002B69002BD5D04B451CD1069A079B10007C
:101140001900921BBB41994202D804D1904202D9A6
:1011500001225242D317002B12DB002104910131EE
:101160000391029451460191414600912800FFF7F6
:1011700053FE29E04C4B484A9F21454800F0F8FEB9
:101180003E4B3F4A3F213F4800F0F2FE002F01D185
:10119000002EA8D12A68002C47D0537B9C422ED128
:1011A0000123002B41D1D37B002B44D1D473002CDD
:1011B00054D02B681B7B9C4250D8013CEB689C466A
:1011C000644423780133237000232B616A68BFF3E2
:1011D0005F8F13608BF3108840E7334B2E4AA221B8
:1011E0002B4800F0C5FE254B254A3F21254800F03D
:1011F000BFFE224B224A3F21224800F0B9FE002CBC
:101200000DD0137B9C420AD863001B19033B116865
:101210008C4663449B78002BC3D00123C1E7234B4A
:10122000234A6821234800F0A3FE234B234AF621DA
:10123000204800F09DFE002B0AD0117B8B4207D87E
:101240005900CB18033B11688C4663445C70ADE7D2
:10125000164B174A6821174800F08AFE0A4B104ABD
:1012600040210B4800F084FE0BB03CBC90469946F0
:10127000A246AB46F0BDC046840F0020387B00106C
:10128000347A0010547B0010507C00108C7A0010CF
:101290005C7D0010A47B0010DC7A0010BC7B001089
:1012A000987A0010FFFFFF0FC87B0010A87C001089
:1012B0004C7A0010C47C0010047C00107C7A001072
:1012C00010B50A4B5B68002B04D00A210848FFF7D1
:1012D000B3FC10BD054C2300064A1021206800F025
:1012E00027FC03212000FFF7C7FCEEE75404002091
:1012F000A00F0020B90C001010B5064B5B68002B46
:1013000001D0044810BD044B044A5C21044800F09D
:101310002FFEC04654040020847C0010AC7A0010DC
:101320005C7D0010F0B5D6464F464646C0B588B045
:10133000804616001F00109B994612AB1B789A46F8
:101340001F236B4400221A7032E0002809D0424665
:101350001268127B904204D8421E4146C9688A5CDA
:1013600042E03F4B3F4A40213F4800F001FE002051
:10137000002B6DD05346002B6AD01199C84704004A
:101380000D0003000B4369D000293FDB00F02CFA6D
:1013900000294FDB24184D41A94202D804D1A042B4
:1013A00002D901246442E517002D49DB26002F00F5
:1013B00043465A68EFF3108472B61368002BFCD0D2
:1013C000BFF35F8F1F236B440493002303930293A7
:1013D000119B01934B46009332003B004046FFF7C0
:1013E0001BFD031EB1D1020041464968BFF35F8F68
:1013F00000250D6084F31088002B27D01F236B4439
:101400001B78002BB3D112021043B1E732003B002E
:10141000361BAF41BB4202D804D1B24202D90126E9
:101420007642F717002FC3DA104B114A3F211148BB
:1014300000F09EFD0D4B0E4A3F210E4800F098FD36
:101440000A4B0B4A3F210B4800F092FD012040421D
:1014500008B01CBC90469946A246F0BD0020F7E7B4
:10146000507C0010987A00105C7D0010387B0010D2
:10147000347A0010547B001070B504004268EFF31A
:10148000108572B61368002BFCD0BFF35F8FCAB211
:101490002668737B9A421BD1012000284AD0236919
:1014A0008B422DD0090AC9B2002A30D023681B7B99
:1014B0009A422CD8531EE068C35C8B422DD000208A
:1014C0006368BFF35F8F00221A6085F3108870BDD8
:1014D000002A0DD0337B9A420AD853009B18033B55
:1014E0003068844663449B78002B07D10020D4E702
:1014F000134B144A6821144800F03AFD0120CCE750
:101500008521124B124A4900124800F031FD124B5E
:10151000124A40210F4800F02BFD1100300000F06E
:10152000F3FB0028CCD112210D4B094AFF310948A9
:1015300000F01EFD23698B42C2D100232361BFE767
:10154000A87C00104C7A0010C47C0010287C00108D
:10155000F87A00105C7D0010507C0010987A001022
:101560004C7C0010F0B587B006000F00FEF77BFE44
:1015700000281ED106246442E517A4197D41BD420E
:1015800002D803D1B44201D900240025002D13DB79
:101590000494059500F028F9002913DB241A8D41E5
:1015A000002D17DC14D03000390000F029F907B005
:1015B000F0BD234800F076FD224B234A3F2123480B
:1015C00000F0D6FC1F4B204A3F21204800F0D0FC01
:1015D000002CE8D0FFF790FE0023029301931C4BF0
:1015E0000093049A059BFFF79DFE002818DADAE7BE
:1015F000002300E00023002BD5D1164B1A68EFF32F
:10160000108172B61368002BFCD0BFF35F8F114BB3
:101610001B68BFF35F8F00221A6081F3108820BF20
:101620000499059A0C4B5B6A9A42E3D80A48806A8F
:10163000884203D29A42DBD00123DCE70123DAE7B8
:10164000A07D0010387B0010347A0010547B00100D
:10165000490C0010A00F00200040054070B50400A8
:101660000D0000F0C1F8002910DB02000B0000198A
:1016700069418B4202D804D1824202D90120404202
:10168000C117002908DBFFF76DFF70BD054B064A47
:101690003F21064800F06CFC024B034A3F210348FF
:1016A00000F066FC387B0010347A0010547B001088
:1016B00010B5FA2292000023002102F083FEFFF70A
:1016C000CDFF10BD70B584B005000C00FFF714FE0F
:1016D000002302930193194B00932A002300FFF784
:1016E00021FE061E12DC164B5B6A9C4209D8144A86
:1016F000926AAA4208D29C4201D0012002E0002056
:1017000000E0002004B070BD0120FBE720BFFFF720
:10171000F3FD3100FFF7B0FE094B5B6A9C4209D82C
:10172000074A926AAA4207D29C4201D00120E9E707
:101730000020E7E70020E5E70120E3E7490C00107F
:101740000040054070B5EFF305833F201840103886
:10175000EFF3108472B6194B1B68002BFBD0BFF35C
:101760005F8F012319008140154A5163154A127891
:101770001500C5402B4214D0114B5D6A8300124EF8
:101780009B599D4206D38300104D5B598A430D49F6
:101790000A7007E00A4A031D9B00995899500023DC
:1017A00000E00023BFF35F8F044A0021116084F33F
:1017B0001088002B00D0984770BDC046280100D08B
:1017C00000400540DE0F0020AC0F0020D0090020B3
:1017D00010B50100024A0348FEF76CFE10BDC0467A
:1017E0000C7E0010D90F0020044B596A00E019004C
:1017F000024B986A5B6A9942F9D1704700400540F4
:10180000074B5B6A8B4204D2054B5B6AFAE7044BD9
:101810005B6A8B4203D1024B9B6A8342F7D37047CA
:101820000040054070B504000D00EFF3108672B65D
:101830001B4B1B68002BFBD0BFF35F8F002D1CD010
:101840002000FEF735FF174B98420BD019002000FF
:10185000FEF748FF01212000FEF71AFF0123A340F5
:10186000114A1360A400114BE550BFF35F8F0C4B7E
:1018700000221A6086F3108870BDA2000B4B002175
:10188000D1500122A2400A490B7893430B700549BD
:101890002000FFF763F800212000FEF7F9FEE4E7DF
:1018A000280100D04517001038600540D0090020FD
:1018B000DE0F0020F0B5DE4600B584B00500140050
:1018C00001921E000293FFF78FFF03948E4202D80D
:1018D0004ED184424CD9EFF3108B72B6274B1B6864
:1018E000002BFBD0BFF35F8F254A17780124AC4053
:1018F000E3B23B431370234B5C632A1D92000199B2
:10190000D150AA002049029850501B6A234212D19C
:101910001C4B1B6C234208D00020BFF35F8F174B7A
:1019200000221A608BF3108823E0184B184AC1215B
:10193000184800F01DFBFFF757FF8E4214D802D164
:10194000039B834210D80E4B1B78BB420ED00D4B2D
:101950001C625C631F222A40012393400E4A1360DD
:10196000074B1F700120D8E70020D6E70120D4E7FD
:10197000012004B004BC9346F0BDC046280100D04D
:10198000DE0F002000400540AC0F0020307E00102C
:10199000F07D0010547E001080E200E010B5EFF3FF
:1019A000108472B60A4B1B68002BFBD0BFF35F8F0D
:1019B00001238340074A136207490A789A430A7051
:1019C000BFF35F8F024B00221A6084F3108810BDB2
:1019D000280100D000400540DE0F002010B500298E
:1019E0001ED0037B99421BD84B005B18033B046855
:1019F000A4466344002919D0002A1DD0914221D069
:101A0000002A25D0047BA24222D804685000801806
:101A1000033820188170197800291FD11A7010BD61
:101A2000104B114A6821114800F0A2FA104B114ADC
:101A30006F310E4800F09CFA0F4B0E4A70210B4894
:101A400000F096FA0D4B0B4A7121084800F090FA0D
:101A5000044B054A6821054800F08AFA41701A7063
:101A6000DDE7C046A87C0010A07E0010C47C0010FA
:101A7000187D0010AC7E0010247D0010307D001019
:101A800070B506000D001400002914D0002A14D0EF
:101A9000806873689847002806D02200290030002B
:101AA000FFF79CFF280007E02A0021003000FFF725
:101AB00095FF200000E0100070BD0800FCE700006A
:101AC00010B50023437301338373037BC373012376
:101AD000027B9A4214D9002B0CD0027B934209D886
:101AE0005A00D218033A01688C4662440133DBB2D3
:101AF0005370EDE70B4B0C4A68210C4800F038FAA4
:101B0000002A09D0924207D8016853009A18033A74
:101B10008A180023537010BD024B034A6821034802
:101B200000F026FAA87C0010A07E0010C47C0010F3
:101B300010B5017342608360FFF7C2FF10BD000063
:101B400070B50400002901D1080070BD002934D00F
:101B5000037B994231D84B005B18033B02689446E3
:101B600063445A78002AEFD02DD0037B9A422AD8BA
:101B700053009B18033B0068844663445D78002053
:101B80005870002925D0237B994222D84B005B183E
:101B9000033B206884466344002058702000FFF710
:101BA0006FFF060029002000FFF7CAFF0200310086
:101BB0002000FFF765FF0100C6E7094B094A6821CD
:101BC000094800F0D5F9064B064A6821064800F09E
:101BD000CFF9034B034A6821034800F0C9F9C04616
:101BE000A87C0010A07E0010C47C001070B5050019
:101BF0000C001600002928D02DD0037B99422AD84A
:101C00004B005B18033B0268944663445A78002AF1
:101C100027D19A78002A2AD11978FFF791FF03007B
:101C2000002E03D0EA7B002A27D1EC73002B37D19A
:101C3000002C49D02B7B9C4246D82A6863001C1993
:101C4000033C14190023637070BD224B224A3821D3
:101C5000224800F08DF9224B224A6821224800F0E8
:101C600087F9224B1C4A3A211C4800F081F9204B8D
:101C7000194A3B21194800F07BF9002A0AD0297B38
:101C80008A4207D851008A18033A29688C46624470
:101C90005470CAE7124B134A6821134800F068F9E0
:101CA000002B0BD02A7B934208D843001B18033B20
:101CB0002A689446634400229A70B9E7084B094A9F
:101CC0006821094800F054F9054B064A6821064886
:101CD00000F04EF90C7F0010C07E0010147F001041
:101CE000A87C0010A07E0010C47C0010587F00105B
:101CF000807F001070B504000A00457B2900FFF7C3
:101D000075FF6073280070BD10B50400002966D00F
:101D1000437B8B420ED0002911D0037B99420ED811
:101D20004B005B18033B0268D0188378002B0CD162
:101D3000002055E00121FFF7DDFF012050E0294B95
:101D4000294A6821294800F013F9002B1FD0227B73
:101D500093421CD85A00D318033B2268D218137838
:101D60008B421AD0002B1BD0227B934218D85A00EA
:101D7000D318033B2268D21853788B4216D0002B1D
:101D8000F0D11B4B1B4A67211B4800F0F1F8154BA3
:101D9000154A6821154800F0EBF84378137007E006
:101DA000104B114A6821114800F0E2F84378537053
:101DB00000238370437001222000FFF717FF020009
:101DC000617B814205D02000FFF75AFE607301203D
:101DD00006E00A4B074A6D21074800F0C9F80020C9
:101DE00010BDC046A87C0010A07E0010C47C00106E
:101DF00034790010D47E0010147F0010EC7E0010A7
:101E000010B50400FEF7B2FB01002000FEF714FF3E
:101E1000FF232371BFF35F8F10BD10B50400FEF7E1
:101E2000A5FB01002000FEF707FFFF23237100231D
:101E30006371BFF35F8F10BD034B9C466144890003
:101E40000160BFF35F8F70474000003410B504009D
:101E50000120FEF799FB01002000FFF7EDFF10BD08
:101E600070B505000C00062000F032FAC000210019
:101E700001F02AFCC60908D00E4B9E4217D87F23DA
:101E8000184001303400460800E001246C62AE6264
:101E90002C3580239B011D4300232B60062000F07E
:101EA00017FA8000A101891901F00EFC70BD00260F
:101EB000014CEBE7FEFF0000FFFF0000002909D006
:101EC0000A22064B9C466044434258414000044B62
:101ED000C252704780225200F3E7C0460080FCBF28
:101EE000E00F002070B505000C00062000F0F0F9AE
:101EF000002829D0164B9D4227D08022D203154BB3
:101F00001A60154B1A60154B9B6811009943FAD162
:101F100000212800FFF7D2FF21002800FFF7A0FFD3
:101F20002C002C34E96A60224A406E211140802244
:101F30005201224311600A4B2B6380239B012343F0
:101F400010221A600323AB6470BD80221204D6E70E
:101F50000080034000E0004000F0004000C000406E
:101F60000103000000BEFDE710B5FFF7FBFF000016
:101F700010B582B00C001900002A0CD0084B002AC2
:101F80000BD00192009323000200064802F0BAFC35
:101F90000120FFF7E7FF044BF1E7034AF1E7C046F2
:101FA00078800010888000105C77001070B52B4B93
:101FB0002B4A1A602B4B2C4A1A602C4B9A682A4BDE
:101FC0009343FAD12A4C01E008CC9847294B9C4214
:101FD000FAD300F0FDF8234B274A1A60234B9B6885
:101FE000DB43DB01FAD1254B40229A675A671A6717
:101FF000DA66234C09E0234B234A83212348FFF769
:10200000B7FF2000FFF7FCFE0834214B9C4209D2A9
:102010002368002BF5D0012BEDD12000FFF7FDFE4A
:102020000834F2E71B4CA1681B4DC022280002F0C7
:1020300027FBA560FEF717F9002800D000BEFEF7C9
:1020400085FAFEF7D3FDFFF73BF9144C01E008CC0D
:102050009847134B9C42FAD370BDC04600E0004045
:10206000BFCDFBFE00F00040FE7F3C0000C0004002
:10207000FC0400200C050020FFFFFF0100F00140E0
:10208000F4040020DC800010B8800010FC800010F8
:10209000FC04002000ED00E0000000200C05002002
:1020A000140500200FB400B583B0084802F0F8FB17
:1020B000049B002B07D005A90191180002F000FC39
:1020C000034802F0EDFB0120FFF74CFFC880001031
:1020D000D8800010F0B5DE46574680B583B00700C3
:1020E0000E0092460A9A93424CD3190E01911B029C
:1020F000180000930A9A002301F028FB05007B00DA
:10210000DB199C002D4B9C4664446368834200D2DB
:1021100060603B1FDBB29B46012B39D9C0239B017A
:102120002343802212011A60BB00254A99580029D6
:1021300005D0506901F0C8FA01300138FDD153468D
:102140005B0122685340E022134080225201224367
:1021500013605B46012B26D980239B0123438022F9
:1021600012011A6065602A0000230098019901F0AD
:10217000EDFABF00124BF850012003B00CBC9246A0
:102180009B46F0BD0F4B104A2D211048FFF7F0FE83
:10219000012EC3D1C0239B01234303221A60A368ED
:1021A000DB07FCD5CBE72168714003230B401360AC
:1021B000A3680122B2401A42FAD0CDE70080004065
:1021C000E40A002058810010488100106C81001042
:1021D00030B583B00C2000F021F9FEF7ADF90028EE
:1021E0000DD00023092B05D899002D4A2D48885081
:1021F0000133F7E72A4B2C4A5A6203B030BD2B4B10
:1022000000229A6700F078F9294B01221A60274BC7
:102210005B6C012BFBD1274B03221A60234B9B6B7A
:10222000012BFBD1013300930433234A01212348BE
:1022300000F054F805230093214A0121214800F0C1
:102240004DF8214B0093002202210420FFF742FFAA
:102250001E4D00952B00002201210520FFF73AFFBB
:10226000104C00942300002200210720FFF732FFCA
:1022700000942300002200210820FFF72BFF0A4BC7
:1022800000932300002200210920FFF723FF00957F
:102290002B00002200210620FFF71CFFADE7C046FF
:1022A000E40A0020006CDC021BB700000080004044
:1022B0003CB0004030B00040002F68590080024020
:1022C000008C864700C00240001BB70040597307CE
:1022D0008000014BC0587047E40A0020F0B583B07D
:1022E0000500019114001F000C2001F0EDF906001B
:1022F0003D4BE2183D4B9A4242D84201121A9301DB
:102300009B1ADB001B189901200001F0DDF9020087
:10231000103A98235B009A4238D87B1E062B3BD894
:10232000089B013B062B37D8089B9F423AD32309D1
:10233000B3423DD33F04089B1E033E432B68002B52
:102340003CDB2B4B9D424BD080214901294B19602E
:10235000294B1960294A92680B009343FAD1019BDB
:102360002B60A8602A1DC0239B01134321221A6001
:102370002A68002AFCDAEE6008221A6003B0F0BD79
:102380001F4B204A11212048FFF7F2FD1F4B1D4A29
:1023900019211D48FFF7ECFD1D4B1A4A1C211A4854
:1023A000FFF7E6FD1B4B174A22211748FFF7E0FD18
:1023B000194B144A25211448FFF7DAFD2A683F23F8
:1023C0001340019A9342BCD1AB681B051B0D83429D
:1023D000B7D1EB68EE22D2021340B342B1D1CDE7C0
:1023E00080218901B2E7C04680E84BD380F8A9324A
:1023F00000C0024000E0004000F0004000C000408B
:10240000C8810010BC81001028820010708200106A
:102410008C820010D8820010F082001080239B0074
:102420000343014AD362704700800540024B1A689B
:10243000024B5A607047C0467C0F00200080054068
:1024400010B5164B8022D2051A60154B154A1A603A
:1024500000290AD0144BE022D2041A60002809D1C6
:10246000114B802212061A6010BD0C4BE022D204E0
:102470001A60F3E743011B1A9B00181803010B4A6B
:1024800013600B4A934201D9084B1A60FFF7CEFF45
:10249000054B8022D2051A60E6E7C04600B0054031
:1024A00008200140FCFF010000A005407C0F002037
:1024B000FFFFFF0010B50C4B8024E4051C600028D2
:1024C0000ED001230343094C0948E06109485840F4
:1024D00020626162A36200211000FFF7B1FF10BD0E
:1024E000024B0021D961F6E700B0054000800540AD
:1024F000D3C007B02D3FF84F064BAA2212011A6035
:102500002F22DA60044B054A1A60024B5B68002BED
:10251000FBDA7047004002400060024000B0FA0061
:10252000704710B5002802D00B684968984710BD65
:1025300010B50400002321680A78303AD2B2092A83
:1025400008D89800C31858004B1C23600B781B1840
:10255000303BF0E7180010BDF0B5D6464F46464672
:10256000C0B582B005000091904601930A9B994640
:102570000B9C0C9E0D9B9B070CD04E460C9B9946CA
:10258000002C19D0013C571C305D019B0099A847D5
:102590003A00F5E72700A246B74207D2541C019B38
:1025A00000992020A84701372200F5E754460C96F1
:1025B0004E460C9B9946E3E74E460D9B9B0706D47F
:1025C000100002B01CBC90469946A246F0BD47469A
:1025D000D31BB342F4D2541C019B00992020A8477E
:1025E0002200F5E7F0B5CE4600B586B0049205931B
:1025F0000C9D0D9C0EAE33789946109F119B129E38
:10260000B2071BD4002B08D0F20706D54A46002A91
:1026100002D10C32324200D0013BBC4208D21F2C06
:1026200006D830222A550134F7E730222A550134E2
:10263000F20703D59C4201D21F2CF6D9F20615D51C
:10264000720505D4002C03D0BC4223D09C4221D07B
:102650000F9A102A2AD00F9A102A2FD00F9A022AE6
:1026600034D01F2C02D830272F5501341F2C05D809
:102670004A46002A30D02D272F5501340396029365
:1026800001940095059B049AFFF766FF06B004BC11
:102690009146F0BD671E002F06D00F9A102A01D078
:1026A0003C00D5E7023CD3E73C00D1E7B206D2D4E8
:1026B0001F2CD0D878272F550134D2E7B206CDD5BC
:1026C0001F2CCBD858272F550134CAE71F2CC8D848
:1026D00062272F550134C4E7720703D52B272F55E6
:1026E0000134CBE73207C9D520272F550134C5E780
:1026F000F0B5CE46474680B595B0089009910A924C
:102700000B931CAB10CB1B7898461E9D219B9946C2
:10271000002C03D110234A469A4391468027FF009C
:102720004B461F4018D0002C22D0002714E04A4608
:1027300092061BD54121C918C9B20A39C9B27E1CFB
:102740000CABD9552900200000F0BEFFAC4210D3DD
:102750001F2E0ED8370004002900200000F0B4FF1F
:10276000CBB2092BE3D83033D9B2E8E76121E2E7F5
:1027700026004B460693209B05931F9B04930395CD
:102780004346029301960CAB00930B9B0A9A09995E
:102790000898FFF727FF15B00CBC90469946F0BD8E
:1027A000F0B5DE46574680B597B00A900B910C9273
:1027B0000D931E9A08921F9C20AB1B789B46229B70
:1027C0000993239D269B9A462243131E03D110335F
:1027D00052469A4392468026F60053461E4006D043
:1027E000089A1300234333D0002637001AE037003D
:1027F00018E05246920621D54122D218D2B20A3AA6
:10280000D2B27E1C0EABDA55099A2B000898210033
:1028100000F09CFFA5421DD812D01F2E16D83700FD
:1028200008900C00099A2B000898210000F08EFFF8
:10283000D3B2092BDDD83033DAB2E2E76122DCE72C
:10284000099B089A9342E8D9370004E0370002E078
:10285000002700E0370053460693259B0593249BF1
:102860000493099B03935B46029301970EAB00937D
:102870000D9B0C9A0B990A98FFF7B4FE17B00CBC8D
:1028800092469B46F0BD0000F0B5D6464F46464600
:10289000C0B594B00A9006910B9207931C9C0894C3
:1028A0001D9D099522002B002000290001F0DDF973
:1028B000002800D0E8E001225242D64B2000290037
:1028C00001F0CEF9002800D0DEE001225242D24BC6
:1028D0002000290001F0AEF9002800D0D4E0002249
:1028E0000023089D2800099C210001F0A3F900287D
:1028F00000D0DFE0089E099F8023DB00209A1A4069
:102900009046131E01D106331E930C960D973A0084
:10291000324300D1D5E0380D4005400DBF4A944602
:1029200060443A03120BBE4B13431D0001F0B0F993
:10293000BC4ABD4B01F03BF9BC4ABD4B01F010F95C
:102940000C900D910022BB4B3000290001F0FFF8E4
:10295000B94ABA4B01F02BF902000B000C980D9903
:1029600001F0FEF801F0ACF9824601F091F9B44AA9
:10297000B44B0C900D9101F01AF90022B24B01F00A
:10298000EFF801F09DF90500B04AB14B0C980D9994
:1029900001F00DF90C900D91280001F079F9AD4A84
:1029A000AD4B01F004F902000B000C980D9901F0F9
:1029B000CEF802000B000E900F9101F0F8F8109085
:1029C0001191A64B9C4665442B050D9300230C9357
:1029D0000E9C0F9D22002B002000290001F0C0F862
:1029E0000E900F9122002B0000208021C90501F0DC
:1029F000AEF8129013910022994B109C119D20006B
:102A0000290001F0B6F80022964B01F0A9F8020067
:102A10000B002000290001F0ACF80022924B01F0DD
:102A20009FF802000B002000290001F0A2F802002C
:102A30000B001298139901F093F802000B000E9806
:102A40000F9901F096F80022754B01F089F80C9A65
:102A50000D9B01F0ACF802000B000C920D933200BC
:102A60003B0004000D0001F0FBF800282BD00123EF
:102A70005B429C46E24400227A4B2000290001F090
:102A800078F80C900D911EE0209B04931F9B0393FC
:102A90001E9B0293089A099B00920193079B0B9A35
:102AA00006990A9800F0F4F814B01CBC90469946B8
:102AB000A246F0BD2E0080231B069C4664442700DE
:102AC0001AE700239A4653466333C62B21D80425C0
:102AD000209B1B0529D50C9A0D9B1900114310D082
:102AE000624A634B3000390001F0B2F8002800D18F
:102AF00082E000225F4B3000390001F09BF8002893
:102B00007AD01E9B534506DD52469C1A631E1E93C7
:102B100003E00525DCE700231E938023DB00209AD9
:102B20001A432092002500239A461F9B9D426DD296
:102B30005B1B99460223209A1A40904603D0002D31
:102B400001D0002399465346002B07D00C9A0D9BC9
:102B50003000390001F00DF806000F0000220023BC
:102B60000898099901F066F8002800D086E0424BE9
:102B7000209A134004934B4603931E9B02930096A6
:102B80000197079B0B9A06990A9800F081F8002D8F
:102B900000D189E7209B9B0675D54526471C079BDE
:102BA0000200069930000A9EB0475046C2178318AB
:102BB000534005220592013D0495002203920A32FA
:102BC0000292C40F01940093079B3A0006993000CB
:102BD000FFF78EFD4346002B00D165E702000A9EF9
:102BE0000B9C1F9D131BAB424FD2571C079B069992
:102BF0002020B0473A00F5E71E9B002B95D04346B6
:102C0000002B92D01E9B013B1E938EE7002399461A
:102C100090E7C046FFFFEF7FFFFFEFFF01FCFFFFE4
:102C20000000F03FFB799F501344D33FB3C8608B43
:102C3000288AC63F0000F83F61436F63A787D23FF1
:102C400071A379094F930A400000E03F1655B5BBC8
:102C5000B16B0240EF39FAFE422EE63FFF0300005F
:102C600000002C4000002440000018402D431CEBC5
:102C7000E2361A3F80842E41FFF7FFFF80210906CC
:102C80007B181F0073E7652688E710000CE7C04635
:102C9000F0B5D646474680B597B0069007910892A2
:102CA0000993209F1E9A1F9B1000190000F0DDFF62
:102CB000002839D101225242BC4B1E981F9900F0C6
:102CC000B9FF00283FD101225242B94B1E981F99EB
:102CD00000F0C6FF002845D10022B64B1E981F9970
:102CE00000F0BEFF002856D10022B34B1E981F995A
:102CF00000F0A0FF00284ED1002200231E981F994B
:102D000000F098FF002856D100239A46229B5B05CD
:102D10005CD500261F2E5BD8092F59D90EAB302267
:102D20009A55013F0136F5E7229B0393219B0293BD
:102D300003230193A14B0093099B089A07990698D6
:102D4000FFF70AFC03E1229B0393219B02930423D8
:102D500001939B4B0093099B089A07990698FFF7EC
:102D6000FBFBF4E00423229A134010D0954A002B79
:102D70000FD004232299039121990291019300928B
:102D8000099B089A07990698FFF7E6FBDFE08E4A51
:102D9000EDE70323EEE7229B0493219B0393029725
:102DA0001E9B1F9C00930194099B089A0799069803
:102DB000FFF76AFDCBE01E9A1F9B0020002100F068
:102DC000C6FE1E901F9101239A469FE70627A0E7A3
:102DD0001E981F9900F074FF040000F059FF0200D4
:102DE0000B001E981F9900F0B2FEFA00774B9B185B
:102DF0001A685B680C920D9300F0D9FE0A900B9153
:102E000000F082FF050000F03FFF02000B000A986F
:102E10000B9900F09CFE0A900B9100226C4B00F085
:102E20001FFF00282CD00135280000F02DFF0200E4
:102E30000B000C980D9900F003FF002801D001341D
:102E40000025002F2AD1200000F022FF02000B00F5
:102E50001E981F9900F07BFE00225D4B0A900B919B
:102E600000F0E8FE002844D10022594B0A980B9943
:102E700000F0F6FE00283CD1E3073AD5013438E0F3
:102E80000022534B0A980B9900F0D4FE0028D8D1A9
:102E9000002D01D0EB07D4D50135D2E70A941F2EBF
:102EA00011D8013F0A21280000F00EFC741C3031BB
:102EB0000EAB99550A21280000F006FC092D0ED909
:102EC00005002600EBE70A9C1F2E0CD87B1E002F66
:102ED00009D00EAA302191551F000136F4E7A04613
:102EE0000A9C4646F0E71F2E03D80EAB2E229A55B9
:102EF00001361F2E10D80A21200000F0BDFB751CE2
:102F000030310EAB99550A21200000F0B5FB041EAC
:102F100001D02E00EDE72E000323229A1340012B4F
:102F20001AD01F2E06D85346002B2FD00EAB2D22C1
:102F30009A550136229B0393219B029301960EAB77
:102F40000093099B089A07990698FFF705FB17B0AD
:102F50000CBC90469A46F0BD219B002B0AD05346EC
:102F6000002B02D10C3313420ED0219B013B219345
:102F7000190000E021998E42D3D21F2ED1D80EAB7A
:102F800030229A550136F6E72199F4E7229B5B0738
:102F900004D50EAB2B229A550136CBE7229B1B079B
:102FA000C8D50EAB20229A550136C3E7FFFFEFFFCD
:102FB000FFFFEF7F65CDCD4165CDCDC1F884001019
:102FC000FC840010F0840010EC84001008850010D0
:102FD0000000E03FF0B5DE4657464E464546E0B5B8
:102FE00093B083460B910A921193002900D1E6E237
:102FF00000275C46119B1878002800D1E2E22528C2
:1030000009D07D1C0A9B3A000B99A047119B013304
:1030100011932F00EEE70133119300261DE00B0002
:10302000303BDBB2092B37D92A293AD000239B4603
:10303000119B1A782E2A44D000239846119A1378AF
:10304000683BD9B2122900D980E08B00CB49CB581C
:103050009F4601231E4301321192119A11780B00F1
:10306000203BD8B21028DAD88300C548C3589F4601
:1030700002231E4301321192EFE704231E43013263
:103080001192EAE708231E4301321192E5E710236B
:103090001E4301321192E0E711A8FFF749FA834677
:1030A000C6E71C9B1A1D1C921B68002B04DB9B4669
:1030B000119B01331193BBE7022216435B429B46EF
:1030C000F6E78022D20016435A1C11925A78130058
:1030D000303BDBB2092B04D92A2A07D000239846BB
:1030E000ACE711A8FFF724FA8046A7E71C9B1A1D3E
:1030F0001C921B68002B04DB9846119B0133119333
:103100009CE70023F8E780235B003343511C1191B7
:1031100052786C2A01D01E0018E0C0239B001E4389
:103120000131119112E080233343511C11915278E7
:10313000682A01D01E0009E0C0231E43013111910D
:1031400004E080235B001E4301321192119B18782A
:103150000300253BDAB2532A00D926E29300894ABC
:10316000D3589F4680239B001E4301321192EDE706
:1031700080235B001E4301321192E7E7782809D0D3
:10318000582838D06F2838D0622838D010239E4372
:103190000A2500E01025582833D0692803D0642878
:1031A00001D00C229643730501D50122964369286C
:1031B0002AD0642828D0B30500D59FE0F30500D5B8
:1031C000B8E0730600D4CAE01C9A111D1C91116866
:1031D000FF220A4005965B460493434603930295FB
:1031E0000023019300920A9B3A000B992000FFF7FD
:1031F0007FFA070027E01025CDE70825CBE7022559
:10320000C9E720221643C8E7B30520D4F30550D4FC
:10321000730666D51C9A111D1C911168FF220A4085
:10322000D317D118594005965B4604934346039340
:103230000295D20F019200910A9B3A000B9920004F
:10324000FFF756FA0700119B01331193D2E61C9B3E
:10325000DA1D07218A43110008311C911168536857
:103260009C46DB170C930D930C9A0D9B1000484065
:103270000E90624653400F930E980F990C9A0D9B37
:10328000801A99410E900F9108965B46079343462A
:1032900006930495002305936346DA0F029200908B
:1032A00001910A9B3A000B992000FFF779FA070079
:1032B000C9E71C9A111D1C911268D317D1185940E7
:1032C00005965B460493434603930295D20F019201
:1032D00000910A9B3A000B992000FFF709FA0700BA
:1032E000B1E7330605D51C9A111D1C910023D25E4F
:1032F00096E71C9A111D1C91126891E71C9BDA1D20
:1033000007218A43110008311C9108965B460793F8
:10331000434606930495002305930293536812686D
:10332000009201930A9B3A000B992000FFF738FAAC
:10333000070088E71C9A111D1C9105965B460493B3
:1033400043460393029500230193136800930A9B5D
:103350003A000B992000FFF7CBF9070073E733061B
:1033600006D51C9A111D1C9112681204120C31E72B
:103370001C9A111D1C9112682CE7C0460C8300108A
:10338000588300109C83001046281AD01C9B0733DA
:10339000072293431A0008321C9204965A4603925D
:1033A000424602921A685B68009201930A9B3A00B7
:1033B0000B992000FFF76CFC0700119B0133119360
:1033C00018E620231E43E1E7672801D0472802D1F1
:1033D00080231B011E43452801D0472801D120230B
:1033E0001E431C9B0733072293431A0008321C928A
:1033F00004965A460392424602921A685B6800920B
:1034000001930A9B3A000B992000FFF73DFA070051
:10341000119B01331193EDE5022333409A461ED0F0
:1034200001261C9B1A1D1C927D1C18780A9B3A00D1
:103430000B99A0475346002B15D1119B01331193D3
:103440002F00D7E5551C0A9B0B992020A04733007D
:103450002A005E1C9F42F5D8BB461700E1E7012316
:103460003A005F46F5E72A00A0465C4606E0571C96
:103470000A9B0B992020C0472E003A00751CB442CD
:10348000F5D815004446D8E71C9B1A1D1C921B68F2
:103490009A464346002B00D1013B55462A78002A24
:1034A00005D05A1E002B02D001351300F6E7534613
:1034B000ED1A8023DB003340994602D0454500D900
:1034C000454602233340109308D03A00564629005F
:1034D0004D4623004446984689461FE03A002300A3
:1034E0005C469B4606E0571C0A9B0B992020D84758
:1034F00035003A006E1CAC42F5D835005B46A34659
:10350000564629004D4644469846894606E01C002A
:103510000136571C0A9B0B99C0473A0030780028A7
:1035200004D0002DF4D0631E002CF0D117004D46BE
:103530004446109B002B03D1119B0133119359E595
:103540005C4606E0571C0A9B0B992020C0473500BB
:103550003A006E1CAC42F5D817004446ECE7212334
:1035600033431C9A111D1C91126800920593082385
:1035700004934346039310230293002301930A9B71
:103580003A000B992000FFF7B3F80700119B0133B5
:1035900011932FE57D1C0A9B3A000B992520A0472B
:1035A000119B013311932F0024E57D1C0A9B3A00E7
:1035B0000B99A047119B013311932F001AE50B4B78
:1035C0009B4615E5A3460A9B9F420CD35A1E0A9BB5
:1035D0000B990020D847380013B03CBC9046994660
:1035E000A246AB46F0BD3A00F1E7C04621250010E7
:1035F00000B585B0029003910121009313004A4267
:1036000002A90248FFF7E6FC05B000BD2325001023
:1036100001480421014B1847800400204136001066
:1036200010B5010018231B8814221088984710BD7C
:1036300010B5010018231B8816221088984710BD6A
:10364000F0B5C64600B507000E00002501239846D8
:1036500000E00135B5420AD2AC003C192068FFF702
:10366000DFFF20600028F4D100239846F1E74046B0
:1036700004BC9046F0BD0000124A936F9B0815D21F
:103680009066D166002905D0FFE7FFE7FFE7516F9D
:10369000106F704704B580210906C21751400028F9
:1036A00000D0C84304F034F8002104BDF0B5146E16
:1036B000556E576F166FFFF7E3FF14665566576731
:1036C0001667F0BD000000D0114A936F9B0813D21B
:1036D00010665166002905D0FFE7FFE7FFE7516F4D
:1036E000106F704704B5002801D00020C04304F0DB
:1036F0000FF8002104BDC046F0B5146E556E576F2B
:10370000166FFFF7E5FF1466556657671667F0BD3D
:10371000000000D094464E4A926F9208624601D251
:1037200030E0C046F0B54A4EB56F6D08FCD3346E3C
:10373000756E776F366F00F025F89446444A14662C
:103740005566576716676246F0BDC0469446404AC4
:10375000926F9208624601D258E0C046F0B53C4EE6
:10376000B56F6D08FCD3346E756E776F366F00F0F1
:103770004DF89446364A1466556657671667624692
:10378000F0BDC046002B24DB11D000293EDA00B585
:10379000C943404200D1013100F038F8C9434042EA
:1037A00000D10131DB43524200D1013300BD002A78
:1037B000EBD1002801D1002905D00020C90FC9078D
:1037C00001D1C043410800B503F09AFF0022002355
:1037D00000BD00B500290ADBDB43524200D10133B2
:1037E00000F014F8C943404200D1013100BDC94383
:1037F000404200D10131DB43524200D1013300F09D
:1038000005F8DB43524200D1013300BD002923D12A
:10381000002B18D1002A0CD0BC460D4F38667A66B2
:1038200000210023FFE7FFE7FFE77A6F386F674665
:103830007047002801D00748010000B503F060FF81
:103840000022002300BD02000B0000200021704771
:10385000000000D0FFFFFFFF002B00D0BFE0130CE3
:1038600028D1002AE7D080B4114F39667A66FFE785
:10387000FFE730B4040C7B6F396F1B0423433B66B6
:103880007A66FFE7FFE7FFE7C04684B27B6F3D6FD4
:103890001B0423433B667A66FFE7FFE7C04600232D
:1038A0002C042D0C7A6F386F00196941B0BC704739
:1038B000000000D0F0B594460025140E01D112028C
:1038C0000835140F01D112010435940F01D1920073
:1038D0000235D40F01D152000135D40B0134254FEC
:1038E0007C66254C3C660E0C93B2FFE7FFE7FFE7D2
:1038F0003C6F6643360C7703BE467343DF0B5B04B5
:10390000C01AB941130C7343DB18C91ACE086643B9
:10391000360CB64493B273431F0F1B01C01AB94152
:10392000130C73431F0B1B05C01AB941860D8F0280
:103930003E436643360C092D24DB520A7243801A3B
:103940007703460A6643360C16235B1BDE40DF40D6
:10395000BF1964466643821B704604350633010076
:10396000D940A840C01900D30131A24206D2002399
:10397000F0BD0000000000D0FFFFFFFF121B013070
:10398000F3D3F1E709277F1BFE406446A2B27243DE
:10399000801A00D20139220C7243130C1204821ACD
:1039A00099410B007046043513370100F940A840D7
:1039B000801900D30131002B02D1A2420AD2F0BDFE
:1039C000013000D30131121BFAD2013BF8D1A242DF
:1039D00000D2F0BD013000D30131121BF7E7F0B582
:1039E0001C0C00D080E00CB400251C0A04D11B0282
:1039F000160E3343120208351C0B04D11B01160F9F
:103A00003343120104359C0B04D19B00960F3343C2
:103A100092000235DC0B02D192185B4101351C008B
:103A2000971864410134464F7C66464C3C660E0C48
:103A3000FFE7FFE7FFE7C0463C6F6643360C7703BE
:103A4000BE4697B27743C01B00D20139C01B00D2DB
:103A500001399FB27743C91BC91B170C77437E04FA
:103A6000FF0B801BB941CE086643360C0C2D33DBAF
:103A7000B644120B1F053A431B0B97B27743C01B8A
:103A800000D201399FB27743C91B170C77433E041C
:103A90003F0C801BB941860D8F023E4366432927A8
:103AA0007F1BFE400C3D7746AF40BF1930BCA2B231
:103AB000ABB272437343801A9941220C7243130CC8
:103AC0001204801A994102000B000137001BA94122
:103AD000F9D2781E0021F0BD0C277F1BFE407746EF
:103AE0007F0BAF40FF19E0E700245D1C07D0144FA7
:103AF0007D663966FFE7FFE7FFE7FFE73C6F95B2BA
:103B00009EB265436643401BB141150C1E0C6543D4
:103B1000664336042F0C3E432D04401BB1419942AD
:103B200004D202000B0020000021F0BD01D1904220
:103B3000F7D3801A994101349942F2D3F6E7000095
:103B4000000000D0FFFFFFFF48404140484018B44C
:103B50001B4B5B68FC46019308BD04DF3B3E001035
:103B600018B4174B1B68FC46019308BD00DF453EA7
:103B700000109446134A926F920809D2624618B414
:103B80000F4BDB68FC46019308BD0CDFFD400010C5
:103B90000C4AF0B5146E556E576F166F6246FFF7FC
:103BA000EEFF084A1466556657671667F0BD18B4ED
:103BB000034B9B68FC46019308BD08DFA13F001042
:103BC000E40F0020000000D0FFB5504042405040BC
:103BD00059404B40594000E0FFB5154F4C00640D73
:103BE00003D0BC4204D10C0314D80020090D0905F0
:103BF0005C00640D03D0BC4204D11C030AD800222F
:103C00001B0D1B0501264B4009D44B4003D58B42AD
:103C100000D18242FFBD9942FCD19042FFBD0B43CF
:103C2000DB1803431343F5D0C9434918FFBD000017
:103C3000FF07000000B5FFF7CFFF804100BDC04681
:103C400000B5FFF7C9FF01D9002000BD012000BD6C
:103C500000B5FFF7B9FF01D9002000BD012000BD6C
:103C600000B5FFF7B1FF804100BD012040054A00CB
:103C7000121804D85A00121801D8002070470120E9
:103C800070470020704700000021002805D17047D0
:103C9000C1174840401AFAD0C90713B5064B1B6834
:103CA00098470CBC441CA2401005120B0349091B89
:103CB00009051943114310BD9C0F00201F0400008B
:103CC00010B54C00620D8023D218DB00D21A5B05C0
:103CD0007E2A10DD9E3A13DACC17090349081943EE
:103CE0005242D140640001341532202A05DAD04016
:103CF0000843604310BD002010BD0846604310BD5E
:103D0000C80FC018013810BD18B4044B5B6AFC46DC
:103D1000019308BD24DFAD4200100000E40F002035
:103D200018B4044BDB6FFC46019308BD7CDF2D43C8
:103D300000100000E40F002070B513231C78012C44
:103D40000CD0012C13DC022C02DC1F4A1F4B9A649E
:103D50001F48FFF765FC1F4B186070BD00231F2B29
:103D6000EFD899001848194A88500133F7E71A48E4
:103D7000FFF75EFC05001948FFF75AFC023803788C
:103D80009B007F2B19DD80222900104800F078FC71
:103D9000022CD8D1124B1A88B5231B029A4209D1A2
:103DA000104B1A88104B9A4204D1104B1A88104BB2
:103DB0009A42C8D00020FEF775F90E4B0E4A322108
:103DC0000E48FEF7D5F8C046013E0010E40F002073
:103DD0004C3300009C0F0020534400005346000069
:103DE00054380000D8380000494600009C380000D4
:103DF00059460000588500100C860010B885001048
:103E000007B56046002800D100BE01880A0A0230CA
:103E1000DF2AFAD1C9B2820804D30288408800049C
:103E2000104300E00068024A5050039007BD0000B4
:103E3000E40F00200FB403BC0CBCF0B50124E40770
:103E4000634000E0F0B50C0DCF0F661E3605891BF0
:103E5000640503D3C943404200D30131640D03D04C
:103E6000661CF60A07D0E41B00207F00791C890736
:103E70008912803C24031D0DDF0F6E1E36059B1B2F
:103E80006D0503D3DB43524200D301336D0D03D0E4
:103E90006E1CF60A07D0ED1B00227F007B1C9B07DF
:103EA0009B12803D2D032F1B661B58D4A446202E49
:103EB00046DA20371400BC401D00BD40F2403341BB
:103EC0002A4380185941CB0F05D0C943C043002273
:103ED00064425041514162464D0D28D10D0D07D12C
:103EE00000281FD0241940414941013A0D0DF9D055
:103EF000640006D3013000D30131002C01D1400809
:103F00004000013A0BD4941CE40A04D11205114478
:103F1000DB071944F0BDD907204B194300E0D9074E
:103F20000020F0BD0029DDD1002CDBD1F0BD013235
:103F3000C6074008CD0728434908002EE1D0D9E73D
:103F40003C2E29DA203E40371400BC4000D001242A
:103F5000F24014431A00BB401C43D317ACE7AC46F5
:103F6000202F08DA20360400B4400D00B540F84098
:103F700039412843A5E73C2F0CDA203F40360400A6
:103F8000B44000D00124F84004430800B1400C4381
:103F9000C117EAE710001900002494E70000F07F41
:103FA000F0B50C0D661E3605891BE60A6405640D26
:103FB00002D0651CED0A04D0002001210905803CD7
:103FC0002403A4461C0D671E3F05DB1BE70A64059E
:103FD000640D02D0651CED0A04D0002201231B05EC
:103FE000803C24037740644497B484B296B274430F
:103FF000070C7E43150C6F4380B26843361802D31A
:10400000012000043F183004350C00197D4184461E
:1040100088B29AB250430C0C62431F0C7C438EB2A0
:104020007E43921902D301263604A4191604170CF4
:104030003618674101BC81B29AB25143040C624305
:104040001B0C5C4380B25843121802D301200004B9
:1040500024181004130C401863412D185E410020F1
:10406000474106BC88B293B258430C0C6343120C10
:10407000544389B251435B1802D3012109046418E7
:1040800019041A0C091862416D1856410020474165
:1040900018BCF902720D1143F0026A0D1043ED02D3
:1040A0000A0D03D16D1940414941013B124E9B1B42
:1040B0007600B3420ED26D0007D301300026714165
:1040C0006646354301D1400840001B05C918E40786
:1040D0002144F0BD0BDA013306D1013004D10131A6
:1040E0004F0D01D04908F2E7E1070020F0BD01368D
:1040F00031050020EBE70000FF030000F0B51C0DC8
:10410000671E3F05DB1BE70A6405640D02D0661CD1
:10411000F60A04D0002201231B05803C2403D0258D
:104120002D060026F6432E661E096E66CE0FF61982
:10413000B44649004F0D02D07E1CF60A03D0002081
:104140000021403F3F033E1BB600B444013F7F05C2
:10415000C91B49082E6F013676089C02950D254330
:104160007543ED137543AD1301356D10F603761BE2
:104170000CB4CC02450D2C43A2B2B3B25A43270C67
:104180007B43350C6F43A4B26C431B1902D301244B
:1041900024043F191C041D0CA4187D4124196D41F1
:1041A000009A91B2ACB26143170C7C432B0C5F4375
:1041B00092B25A43A41802D301221204BF18220457
:1041C000230C52187B41019C6C431B19520ED901E0
:1041D0000A434401A01A81B2B2B2514303145A43B4
:1041E000360C734387B27743D617D21900277E4126
:1041F00036049B191704160C7F185E417316ED18D0
:10420000F301002680337541A90F06D16400690AC5
:10421000E8055B0A184309D22FE004229444803356
:104220007541A90AA8059B0A184326D34041494174
:104230002404009A019B0D005543641B4343E41A78
:1042400095B286B27543170C7E43030C5F4392B25E
:104250005A43B61802D301221204BF183204330C99
:1042600052197B4152429C41002C02D40022013061
:1042700051414008CA071043490802B06246D707B7
:104280009210084BD218084B9A4203D21205891893
:10429000C919F0BD0020002A01DC3900F0BD01334E
:1042A0001905F5E7FD030000FE070000002200B538
:1042B000203200F004F8080000BD000000220B15B9
:1042C0000AD410B5944600F05FF81414013400DAF3
:1042D0000021CB17144C2047002000217047624476
:1042E000343A0CD40C2A07DA040091409040524230
:1042F0002032D440214310BDD843D94310BD2032D1
:1043000007D40C469440524220321141D040204301
:1043100010BD0800C917203203D452422032104188
:1043200010BD1800190010BDDF4200104A00520DE8
:10433000144BD21A13DDFF2A1EDAD205CB0FDB078E
:104340001A43C300400F0903490A084310435B00A6
:1043500001D301D0013070474308FBD2704702D02F
:10436000C80FC00770470A0312130132F8D1420F79
:10437000072AF5D1012200E0FF22C80F00028018B1
:10438000C0057047800300000A0DCC0F531E1B05AB
:10439000C91A520503D3C943404200D30131520D1B
:1043A00003D0531CDB0A07D0121B00206400611CE1
:1043B00089078912803A1203014BD21A7047000014
:1043C000FF03000051434343C9188C46110C83B2CC
:1043D0004B4310B4040C614392B280B25043624329
:1043E0001C041B0C001910BC59411304120CC018FA
:1043F000514161447047000048404140484000231B
:104400009C46114B5B68184700239C460E4B1B686B
:1044100018470E4A936F9B0804D200239C460A4B10
:10442000DB681847F0B5146E556E576F166FFFF7BF
:10443000F4FF064A1466556657671667F0BD0023F9
:104440009C46014B9B681847E4100020000000D0F8
:1044500007B548404140484001E0C04607B542002A
:10446000120E03D0FF2A03D1420218D8C00DC00596
:104470004A00120E03D0FF2A03D14A020FD8C90DF9
:10448000C9050122414005D4414001D5814207BD03
:10449000884207BD0143491801D0C043001807BD39
:1044A00000B5FFF7D5FF804100BD0000C10FC9076F
:1044B00000D54042002817D0F44603B40B4B1B68CC
:1044C000984706BC81409E384042803107D20B0697
:1044D00007D04900490AC00510430843604701302E
:1044E000F8E7490A8902F5E7704700009C0F0020B1
:1044F000034BDB6FFC4618477CDF3546001000009D
:10450000E410002070B513231D782A48FFF790F8B7
:104510000400012D11D0012D09DDA31E1B789B0085
:104520007F2B40DD80222100234800F0A9F823489A
:10453000FFF776F8224B186070BD542201001E4828
:1045400000F09EF81F4B1A881F4B9A421CD1A723DC
:104550009B011A881D4B9A4216D11D4B1A881D4B80
:104560009A4211D11C4B1A8894239B019A420BD179
:104570001A4B1A881A4B9A4206D11A4B1A681A4BD0
:104580009A4201D1152307E01848FDF78BFD9900E9
:104590001748094A885001331F2BF8D9144A064B93
:1045A0001A62DA61B7E7134B134A42211348FDF749
:1045B000DFFCC04653460000E41000204C330000EE
:1045C0009C0F0020EE290000C40F0000C20D000067
:1045D000962B0000C0B50000182B0000CC2A00006C
:1045E00010B50000FC2C000051ED87645C770010D2
:1045F0000146001020860010A4860010548600108A
:1046000007B56046002800D100BE01880A0A0230C2
:10461000DF2AFAD1C9B2820804D302884088000494
:10462000104300E00068024A5050039007BD0000AC
:10463000E4100020C30FDB0741000A0E07D0FF2A59
:1046400008D00909054A891819434007704719001D
:10465000002070470249C918FAE70000000000383E
:104660000000F07F01480421014B1847900400200E
:1046700041360010014B1B681847000090040020D1
:10468000014B5B68184700009004002010B50C0037
:10469000036811002000984710BD0000F8B507001E
:1046A0000D001600437C002B02D0002400200CE0FB
:1046B00003681100280098472DE03B7C10E00221A0
:1046C00015483B689847601C0134B44214DA002C4A
:1046D000F3DD2B19013B1B780D3B5A425341DBB2F2
:1046E0002A5D0A2AF0D1002BEED1A042E7DA211A86
:1046F00028183B689847E2E7B04203DA311A2818D5
:104700003B689847002E06DDAD19013D2B780D3B27
:104710005A4253413B74F8BD6C87001070B50500D8
:104720000368002B16D00C4B1C6805E0290004C957
:104730002000FFF7B3FFE468002C09D02368002BAA
:10474000F9D0064B1B68002BF0D0A342F3D1EDE764
:1047500000232B6070BDC046740B0020780B002036
:1047600070B505000C000B68802B05D023685A1C1F
:104770002260E418257170BD0800FFF7CFFFF5E750
:1047800010B582B0D0231B0600241C5701A907488E
:1047900002F0C6FF002806D1019B9C4203D00348CB
:1047A00002F0CEFF012002B010BDC046F40400208C
:1047B00010B5024802F09CFF10BDC046F404002072
:1047C000F0B5C64600B584B001900D0016001C007F
:1047D000FFF7D6FF80466B1C05D0002C08D0194F80
:1047E000194B1C6807E0019802F044FF0500F4E74C
:1047F000164FF5E7E468002C16D02368002BF9D09B
:10480000134B1B68002B01D0A342F3D12A0001995E
:104810002000B847002EEDD002ABD91D0A230B7043
:1048200001222000B847E5E74346002B06D1681E69
:104830008541E8B204B004BC9046F0BDFFF7B8FF74
:10484000F5E7C0468D460010740B00209D46001011
:10485000780B0020094A1368002B0BD0834202D04A
:104860000C331A00F7E7002907D1C368136000234F
:10487000C36002E0002900D010607047740B002074
:1048800010B5064B1C6800E0E468002C04D0636897
:10489000002BF9D09847F7E710BDC046740B0020F5
:1048A00070B5050002F0E6FE0400002301220100BD
:1048B0002800FFF785FFFFF7E3FF200070BD000031
:1048C00070B5A2B004000E00FFF75AFF0500842265
:1048D000002101A8FFF7CEFE3300220001A90848FD
:1048E000FEF786FE040001A8FFF718FFFFF7C8FFD8
:1048F000002D02D1200022B070BDFFF759FFF9E76B
:10490000614700100FB400B583B004A901C901913B
:10491000FFF7D6FF03B008BC04B0184710B500F08D
:1049200085F800F0EBF910BDF0B583B000251AE072
:104930006B4607330D241C70002403E01F781760BA
:1049400001340133002C1CD19769BF06FCD4F5E774
:104950001E78166001340133002C03D19669B60627
:10496000FCD4F5E701358D4210DA094B1A68465D33
:10497000084BD3185C4263415B00074C1B5FB3429A
:10498000D6D06B4607331E700024E5E703B0F0BDB8
:10499000BC0F00200080FCBFE00F0020F0B583B00A
:1049A000070000200EE013682B7001340135002C45
:1049B00003D19369DB06FCD4F5E76B4607331B781C
:1049C0000370300088420ADA084A12689569102498
:1049D0002C4004D1461C38186B46DD1DE7E7002843
:1049E00001D003B0F0BD0338FBE7C046BC0F002088
:1049F00070B515001C000B4B1860FDF773FA002D05
:104A000006DA002C09DA01210748FFF723FF70BD01
:104A100002212800FBF714FDF3E702212000FBF739
:104A20000FFDF0E7BC0F0020A004002010B5064BDE
:104A30001B78064B1B78E121012300224902044820
:104A4000FFF7D6FF10BDC046848F0010888F00107E
:104A50000040034070470000014B00221A7070476D
:104A6000DB0F00204B79FF2B0CD18B79002B0BD166
:104A7000CB79012B0AD1082A0AD98A78054B1A70FA
:104A8000092000E0002070470020FCE70020FAE742
:104A90000020F8E7DB0F00200120704770B50029E7
:104AA0002BD1117953791B020B43154909788B429D
:104AB00001D0002070BD5378012B03D0022B15D0FC
:104AC0000020F7E79178D3781B020B43DA050BD56A
:104AD0005A0A012595407F241C400A48FEF7A0FD94
:104AE00003002100280098470025F4E764220021F4
:104AF0000020FDF7DFFC0120DCE70120DAE7C046FB
:104B0000DB0F00205542000001230370004870476E
:104B1000B087001010B50B784A7812021A438B78D0
:104B20001B041A43CB781B0613439622D2009342F0
:104B300000D010BD0348FEF773FD030000210800FC
:104B40009847C0465542000030B583B004000D00C0
:104B500001A9184802F0E4FD002808D1D0231B0663
:104B60001B68019A9A4221D0124802F0E9FD002008
:104B700001F054FE002807D1032464420D4802F0DE
:104B8000B7FD200003B030BD002001F069FE002811
:104B900002D103246442F1E72A002100002001F041
:104BA0006BFE041EEAD103246442E7E70324644257
:104BB000E7E7C046A40F002010B50021054802F029
:104BC000AFFD002800D110BD01F0C2FB014802F08A
:104BD0008FFDF8E7A40F0020F0B5C64600B582B0FF
:104BE00080460D0001A92E4802F09AFD002808D148
:104BF000D0231B061B68019A9A420FD0284802F066
:104C00009FFD002001F00AFE002847D1254B00201F
:104C1000002118605960224802F06AFD02B004BC0D
:104C20009046F0BD01F094FB002001F039FE002019
:104C300001F0F4FD0028EED0002001F0B3FE0028C2
:104C40001DD0AC42E7DA2E1B002001F0ABFE8642FD
:104C500000DC30000028E5D043461919020000208E
:104C600001F084FE060001F073FB002001F018FE45
:104C7000A419FCF7B9FD0B4B18605960E1E7FCF78C
:104C8000B3FD084B1E685F68074A002392197B41F9
:104C90009942C0D8D5D19042D3D9BCE70024D0E7FF
:104CA000A40F00201806002020A1070010B50A4B11
:104CB0001A78D0231B061B689A4207D1074B187835
:104CC000FBF7EEFCFA208000002110BD044B054AE2
:104CD00032210548FDF74CF9DD0F0020DC0F0020E4
:104CE0000C880010EC8700103488001010B5024BBF
:104CF0001878FBF7D5FC10BDDC0F002070B584B030
:104D0000D0231B061A782C4B1A702C4B1B7802F000
:104D100089F82B48FDF774F80120FBF775FFC0B246
:104D2000284C20702849FBF7DDFC20780121FBF797
:104D3000AFFC0520FBF7C4FC041E0BD00022234966
:104D40000520FBF7F9FC01212148FFF783FD200036
:104D500004B070BDFCF7D0FA0400FCF745FD002953
:104D60001DDBFA229200002312184B41994202D80F
:104D700004D1904202D901225242D317002B14DBF6
:104D80000121029100210191124900912000FCF7BC
:104D9000C9FA441EA041C4B2002CD8D0D3E70E4BB0
:104DA0000E4A3F210E48FDF7E3F80B4B0B4A3F211B
:104DB0000B48FDF7DDF8C046DD0F00208C8F00109A
:104DC000A40F0020DC0F0020B94B0010ED4C0010A8
:104DD000B4040020AD4C0010387B0010D4870010C4
:104DE000547B001000487047048900100048704749
:104DF000B088001010B50400154B1B78002B0DD0A7
:104E0000002C10D1134B144A5A80012301335B004C
:104E1000C022920013430F48038010BD11210C489B
:104E200002F0BEFBECE7052C0FD8A4000B4BE458B6
:104E3000002304E00133590006484252DBB2122B32
:104E4000E4D8E25C002AF5D1E0E70020E5E7C046BF
:104E5000C00F00204C0B002009040000188900102E
:104E60007F230340C209580080184001014BC0183D
:104E70007047C0467C0B002010B582B001AB002209
:104E80001A7080325A70002406E001AB185DFFF7FB
:104E9000E7FF0123C3700134012CF6D902B010BD25
:104EA00010B5838B3F333F229343022915D0124C18
:104EB0002268C260D31823609C0610D10F4C624058
:104EC000634080246401A3420FD8890611438023E4
:104ED0001B0619434368196010BD5B00E7E7084BE8
:104EE000084A54210848FDF743F8084B054A562163
:104EF0000548FDF73DF8C046800F00200000105027
:104F00009089001030890010C0890010208A00109C
:104F1000F8B505000E001400FFF7A2FF7F232B4019
:104F2000EF0985707A427A4142700022C27086830E
:104F30008477012F0DD0DA0012498C4662448260DA
:104F4000826800211160002B09D143600E4BC360C1
:104F5000F8BDDA000D498C4662448260F0E7012F0B
:104F600009D0013BDB000A4A9446634443602100B8
:104F7000FFF796FFECE7013BDB00064A94466344EB
:104F80004360F4E78400105000011050800010507E
:104F90000C0010500800105010B500230E2B09D83B
:104FA0000133DA0000210848115084466244516000
:104FB000DBB2F3E7F022920000210448FFF75AFB2E
:104FC000034B044A1A6010BD00001050BC0B0020B7
:104FD000800F002080011050F0B5CE46474680B5C6
:104FE00083B01D4B9F6D0024012614E04B465B00EF
:104FF00043445B01194AD3189A8A99780123009394
:105000000023002000F02AFE280000F025FAB74314
:1050100076000134E4B2002F18D01F2C16D83E427F
:10502000F6D00F4B9E656308994601236340012229
:105030001A4090464B465D0045446D01074BED1804
:10504000280000F099FA0028E1D0CFE703B00CBCAB
:1050500090469946F0BDC046000011507C0B0020E0
:105060000030115070B52A4A9823D5588024640224
:105070002C400AD1EB0616D4EB0419D46B0429D4C6
:105080002B0433D4AC423ED170BDFFF7F5FE0122B4
:105090002049002000F0C8FD1F4B802292021A65B3
:1050A00080246402E6E710231C43FFF795FFE3E743
:1050B00080235B011C43164B00221A60FFF76CFF34
:1050C00001220021002000F099FD134B80221203E1
:1050D0001A65D3E78023DB011C4301220421002051
:1050E00000F078FD0C4B10221A65C9E780231B02E3
:1050F0001C4301220521002000F06CFD064B80229C
:1051000012011A65BEE7210069400448FCF7CAFF96
:10511000000011500000105000301150608A001043
:1051200070B50C001500FFF79BFE2A00210000F06F
:10513000FFF970BD10B5002804D101210520FBF74F
:10514000A7FA10BDB921034B034A49000348FCF7F5
:105150000FFFC046548A001050890010C08900100B
:1051600010B5002805D1002200218020FFF7D8FFCC
:1051700010BDBF21024B034A49000348FCF7F8FE6B
:10518000548A001060890010C0890010024B8022F0
:105190005202DA647047C0460020115070B5051EF7
:1051A00025D100F033F9154C0C23A36714490520D1
:1051B000FBF798FA402200211248FFF75BFA002221
:1051C00040210020FFF7A4FE002240218020FFF7AD
:1051D0009FFEFFF7E1FE0123236480239B05E36428
:1051E0009023094AE2502800FFF7D0FF70BD4E21FE
:1051F000064B074AFF310748FCF7BAFE0000115082
:10520000655000107C0B002010D00100548A001063
:1052100044890010C08900100B785B0602D14B78DE
:10522000052B00D070478A78014B1A60FAE7C04618
:105230000000115010B50C0000280DD109796279D9
:10524000072313401B021943E2789207920FA078BC
:10525000FFF75EFE012010BDD621034B034A490033
:105260000348FCF785FEC046548A00107089001080
:10527000C089001010B5FFF78FFE10BD10B50C00EF
:105280001100002805D11A002000FFF749FF012076
:1052900010BDBC21024B034AFF310348FCF768FEF6
:1052A000548A001080890010C089001010B54B0688
:1052B00005D1CB09012B0BD00222064B9A660800C0
:1052C000FFF7CEFD80221201002100F0CBF810BDC7
:1052D0000122F2E70020115010B54B0600D110BD9D
:1052E0000800FFF7BDFD0023C3700022014900F054
:1052F000B9F8F4E7FFF7FFFFF8B504000F00438AA1
:10530000828B1E1C934200D9161CB6B29B1B638273
:105310008025ED003543E378002B13D080229201E5
:10532000154301225340E3706378002B0CD0638A4D
:10533000002B02D18023DB011D43002F00D02D0460
:105340002800F8BD0022EBE7B801E3689C46604402
:105350003200A169FFF794F9A3699C466644A661EF
:1053600080231B021D43E2E770B5040083681B68BD
:10537000002900D01B0C9D05AD0D6278002A11D1CB
:105380001B0409D4A38A5B19A382A38BAB4201D966
:1053900000236382280070BD0E4B0F4AD7210F48AF
:1053A000FCF7E6FD1B040ED58901E3689C466144C9
:1053B0002A00A069FFF764F9A38A5B19A382A36995
:1053C0005B19A361E1E7064B034ADE210348FCF7C2
:1053D000CFFDC046088B0010748A0010288B001087
:1053E000888B001010B5040083681B680021FFF74C
:1053F000BBFF63681B685B0002D5A38B834200D0B0
:1054000010BD01212000FFF7AFFFF9E710B58023A1
:105410005B040C4A13600C4A13600C4B9A6880239F
:105420005B049343F9D10A4C9C2200212000FFF732
:1054300021F98022520100210648FFF71BF90923B8
:10544000636710BD00E0004000F0004000C0004075
:105450000000115000001050002303744382838227
:105460008361704710B5002902D083681B6819401A
:10547000002A0FD0114353050CD5826813685B05D1
:105480000BD40B4B0B401360FFE7FFE7FFE7FFE791
:10549000FFE7FFE78368196010BD83787F2119401B
:1054A000DB099B00034A9A580348FCF7FBFDC04602
:1054B000FFFBFFFFC8040020848A001070B50400C1
:1054C00043681E680021FFF717FF80256D01054323
:1054D000144B1B6C9B0704D4A378DB0914D1013354
:1054E00000E00023628A002A01D0002B0ED00E4B70
:1054F0001E4080239B053343626813602A0000210D
:105500002000FFF7AFFF70BD0023EBE70121200073
:10551000FFF7F2FE0543054B1E40A023DB05334396
:10552000EAE7C04600001150FFFFFFAFFFFFFFDFBB
:1055300070B504000D001600037C002B09D16682B3
:105540000023A38201332374A5612000FFF7B6FF77
:1055500070BD83787F211940DB099B00044A9A586B
:105560000448FFF7CFF92000FFF776FFE7E7C046D2
:10557000C8040020D08A001070B50400057C002DFE
:1055800006D0FFF72FFF638A002B08D1280070BDDB
:1055900081787F231940044A0448FCF783FD2000EA
:1055A000FFF78CFF0025F1E7C8040020A48A001053
:1055B00070B5050000240EE062001219D100184BEE
:1055C0001B685B1802E0230010E000235B682800E2
:1055D00098470134E4B2134B1B78A3420ED3124A0E
:1055E000002AF0D0A342E7D8E31ADBB2002BECD1BB
:1055F0005A00D318DA000D4B9B18E7E70C4C5322E6
:1056000000212000FFF736F8E01C1022FF21FFF7F1
:1056100031F8200013302022FF21FFF72BF870BD56
:105620003C060020D60F0020094B0010C88C00104B
:105630007409002010B5FFF7BBFF01F02FF810BD73
:1056400070B505000C001600C86801F031F8E36879
:10565000320000212800984770BD0000F0B5DE46FA
:1056600057464646C0B582B001900139C8B2FFF72F
:10567000BDFB002803D043789846022B0BD0554A37
:1056800055495648FFF73EF9002002B01CBC904631
:105690009A46A346F0BDC5796B110122504C1340C8
:1056A000190123781026B343AD112A4052010B4350
:1056B00020218B4313432370050009358278C3787A
:1056C0001B02134382469A4462E0EB789B462B7898
:1056D000ED1864E0434A40494048FFF713F90020C1
:1056E000D3E763001B19DB003F4A1668F61802E097
:1056F000230018E00026009A29000198B768B847EF
:105700000700082802D9009B834214D20134E4B276
:10571000364B1B78A34237D3354A002AE8D0A34240
:10572000DFD8E31ADBB2002BE4D15A00D318DB0038
:10573000304EF618DFE75B46012B10D00022934570
:105740001AD9AB789B18DBB22549C918C978FF294B
:105750000BD12349CB18DC700132D2B2EFE7B2682B
:10576000254B9A42EAD1C346E8E7244A1A491B4826
:10577000FFF7C8F8002088E7194823003A002900FD
:10578000133001F0BDFBED19184B1B78A3420FD36A
:10579000554515D26B780B2B97D001239B466B7820
:1057A000042B97D153465E1BB3B200930024AFE79E
:1057B000F322920008490948FFF7A4F8002064E7A3
:1057C0000F4B002B03D000E000BF01205DE701205C
:1057D0005BE7C0467B030000688C0010E08C001083
:1057E00074090020960300003C060020D60F00201C
:1057F000094B0010C88C0010BD6A0010BD030000EA
:105800000000000070B504000D008B78C87800021D
:105810001843020AC0B20F2A55D893003049CB581A
:105820009F46FFF7DFFA020012232900200000F054
:10583000E3FE70BD2B4B002B47D000E000BF020001
:105840008178C3781B020B432900200000F0D4FEAE
:10585000EFE7022A10D0244B002B38D000E000BF25
:1058600000280CD08278C3781B0213430200290061
:10587000200000F0C1FEDCE7FFF7B8FAF0E71B4AB2
:105880001B491C48FFF73EF80020D2E72B796979C5
:1058900009021943FFF7AEFA00281AD00378020074
:1058A0002900200000F0A8FEC3E7134B002B12D004
:1058B00000E000BF002810D003780200290020007B
:1058C00000F09AFEB5E70020B3E70020B1E7002022
:1058D000AFE70020ADE70020ABE70020A9E7C04616
:1058E000A88B00100000000000000000140400005D
:1058F0007C8C0010E08C001000000000024B5878F7
:10590000431E9841C0B2704774090020024B1878BA
:105910004007C00F7047C04674090020014B18783B
:105920007047C046D70F002070B50500274B187888
:10593000002800D070BD532200212548FEF79AFEB2
:10594000244C2000FCF75CFA234B1C60234C200005
:105950001C30FCF77BFA200001F0D5FD204B1C60C9
:10596000204B002B04D02048FFF7CEF81F4B1860C7
:1059700000240DE062001219D1001C4B1B685B185B
:1059800002E023000FE000231B6898470134E4B2D3
:10599000154B1B78A3420ED3124A002AF1D0A34222
:1059A000E8D8E31ADBB2002BEDD15A00D318DA00A5
:1059B0000F4B9B18E8E72800FFF7F0FB2800FFF7E4
:1059C000B9FB024B01221A700120B3E7D70F002068
:1059D000740900202C090020C8090020D0040020F0
:1059E000CC090020094B0010D60F00203C060020F7
:1059F000C88C001030B585B004004378032B00D16B
:105A00008BE02DD9042B5FD0052B00D0B8E06D4B77
:105A10001B78DB0750D56B4A137804218B43137036
:105A2000694B1D68EA69EFF3108172B61368002BA9
:105A3000FCD0BFF35F8F29622100280001F028FD10
:105A4000EA692B6ABFF35F8F0021116083F310882E
:105A5000002831D1A8225D495D48FEF753FF2BE0B5
:105A6000022B00D08CE0574B1A7801218A431A7020
:105A70001A7801318A431A7000225A701A7802315A
:105A80008A431A70504B1D68EA69EFF3108172B6B1
:105A90001368002BFCD0BFF35F8F29622100280020
:105AA00001F0F6FCEA692B6ABFF35F8F00211160F9
:105AB00083F31088002801D005B030BDA8224349E7
:105AC0004348FEF71FFFF7E73E4B1B78DB07F3D594
:105AD0003C4A137804210B4313703B4B1D68EA6961
