:020000041000EA
:1000000000B5324B212058609868022188439860DF
:10001000D860186158612E4B002199600221596106
:100020000121F02299502B49196001219960352056
:1000300000F044F80222904214D00621196600F024
:1000400034F8196E01211966002018661A6600F04E
:100050002CF8196E196E196E052000F02FF8012189
:100060000842F9D1002199601B49196000215960AB
:100070001A491B48016001219960EB211966A021F2
:10008000196600F012F800219960164914480160C1
:100090000121996001BC002800D000471248134993
:1000A000086003C880F30888084703B5996A0420EC
:1000B0000142FBD001200142F8D103BD02B5186610
:1000C0001866FFF7F2FF186E186E02BD00000240BE
:1000D000000000180000070000035F00212200005C
:1000E000F4000018222000A00001001008ED00E03C
:1000F00000000000000000000000000074B24E7A12
:1001000000200420F7010010C3010010C5010010F9
:10011000C1010010C1010010C1010010C101001097
:10012000C1010010C1010010C1010010C701001081
:10013000C1010010C1010010C9010010CB01001065
:10014000CD010010CD010010CD010010CD01001037
:10015000CD010010CD010010CD010010CD01001027
:10016000CD010010CD010010CD010010CD01001017
:10017000CD010010CD010010CD010010CD01001007
:10018000CD010010CD010010CD010010CD010010F7
:10019000CD010010CD010010CD010010CD010010E7
:1001A000CD010010CD010010CD010010CD010010D7
:1001B000CD010010CD010010CD010010CD010010C7
:1001C00000BE00BE00BE00BE00BE00BE00F04BF888
:1001D000103800BEF2EB8871CC830010F48300105D
:1001E0003402001090A31AE700202149086006C8D5
:1001F00081F3088810471F48006800282FD10DA4FC
:100200000ECC002902D000F012F8F9E71A491B4A77
:10021000002000E001C19142FCD1194988471949E9
:1002200088471949884700BEFDE701C901C29A42C3
:10023000FBD37047F4830010C0000020400400206E
:100240008087001000000420000004208087001038
:1002500000100420001004200000000070470B482C
:1002600003F03AF90047EFF30580C0B27047000091
:1002700008ED00E0000000D0500400202C0E00200B
:10028000311F0010F9050010ED1E00105756000038
:1002900006005250ABB36053AC7D001006005250C4
:1002A000861C0302BC7D0010060052505422A29D01
:1002B000D87D001005005250DE65F468808700107C
:1002C000F8B5C0460448054B10B5834203D0044B33
:1002D000002B00D0984710BD4004002040040020AF
:1002E0000000000006480749091A8910CB0F591869
:1002F00010B5491003D0044B002B00D0984710BD17
:1003000040040020400400200000000010B5074C0D
:100310002378002B09D1FFF7D5FF054B002B02D026
:10032000044800E000BF0123237010BD50050020E9
:1003300000000000886C0010054B10B5002B03D0A6
:100340000449054800E000BFFFF7CCFF10BDC046E0
:100350000000000054050020886C001030B589B002
:1003600004000D00002005F0F5FE002844D0022C0A
:1003700038D012D9032C41D0042C3DD10B220021BE
:1003800005A803F0FBFF002D58D1394B1B78002B3B
:1003900067D1374B00221A702EE0012C2CD1002D92
:1003A00007D1344B1B78002B15D1324B00221A7029
:1003B00022E005AC06220021200003F0DFFF042329
:1003C0002370230000220121002005F02DFF294B7E
:1003D00001221A7010E0002300220121002005F004
:1003E00023FFE2E7002302930193053300930022E9
:1003F0000221002005F037FF09B030BD002D0AD1E1
:1004000005AB00221A801C4B1B78002B0FD11A4B16
:1004100000221A70F0E705AAEA231380E83B0321C3
:10042000002005F0BFFE144B01221A70E4E70223FE
:1004300005AA0321002005F0B5FEE8E705AA01247E
:1004400094711B236B44012119700021597099701C
:10045000D9700B230431002005F0A4FE044B1C705E
:10046000CAE70B2305AA0421002005F09BFE90E7B4
:10047000600B0020610B00205F0B0020024BFA2272
:1004800092001A607047C04630030020014BFA22E8
:100490001A60704730030020014B024A1A6070470F
:1004A00030030020C4090000024BFA2292001A60B7
:1004B0007047C0463003002010B501F033F9002921
:1004C0000BDB10D0FA229200002303F09BF8124BB2
:1004D0001B68C01A09280BD810BD104B104A3F21C9
:1004E000104801F007FDFA21890003F049F8EEE712
:1004F0000A33094A136004F06FF9040004F0D8FECF
:10050000002801D0002C04D121000120FFF726FF94
:10051000E2E704F0D5FEDFE73C0B0020A06C001002
:10052000886C0010BC6C001010B50C780134E4B27B
:10053000042C00D910BD04F04FF901002000FFF792
:100540000DFFF7E70020704710B502A80088022AC7
:1005500000D010BD0129FCD10028FAD01B789B07E0
:1005600006D5074B00221A60012004F027F9F0E7B6
:10057000002004F023F9024BFA2292001A60E8E707
:100580003003002010B5164B1B68002B00D110BDA6
:1005900001F0C8F8002918DB1DD0FA2292000023D0
:1005A00003F030F80F4B1B68C01A0D4A12689042D6
:1005B000EDD39B180B4A13600B4C207804F0FEF827
:1005C0002378012253402370E1E7084B084A3F217A
:1005D000084801F08FFCFA21890002F0D1FFE1E721
:1005E00030030020400B0020630B0020A06C0010A3
:1005F000886C0010BC6C001010B504F0C7F806F051
:1006000071F805F065FBFFF7BDFFFFF755FFF8E751
:1006100000487047346D001000487047486D001066
:1006200000487047106D001070B5002815D00328E1
:1006300023D88000124BC558280006F0B7FAC0B284
:100640001F2800D91F20002398420ED95A1CEC5CA9
:1006500051000C4BCC52D3B2F6E7094B196809484C
:100660000222023003F090FE012001304000C0233E
:100670009B0003430348038070BD0020FCE7C04695
:10068000340300208405002010B58300084A9446F6
:1006900063441C6840226240C024144080225201FE
:1006A00013431C60C000034B9C466044416010BD76
:1006B00004C0014000400140C000034B9C46604420
:1006C00043681F20184070470040014080000B4BDA
:1006D0009C46604400290DD00823002A0CD0042237
:1006E0001343026853400C221340802252011043EE
:1006F000036070470023F0E70022F1E704C00140E7
:10070000C000074B9C466044090403685940C0235D
:100710009B02194080235B01184301607047C0466B
:1007200004400140C000074B9C4660440903036835
:100730005940C0239B01194080235B01184301608D
:100740007047C0460440014010B501238340D022C9
:100750001206936293610521FFF796FF10BD00001A
:10076000EFF3108072B6034B1B68002BFBD0BFF376
:100770005F8F70472C0100D0BFF35F8F024B0022C8
:100780001A6080F3108870472C0100D070B5050006
:100790000E001400FFF7E4FFF208AA1815780721ED
:1007A000314001238B402B4205D1DBB22B43137028
:1007B000FFF7E2FF70BD3100200001F035FCF0B51D
:1007C00083B00700019114001E00FFF7C9FFB44277
:1007D0000ED8E208BA1815780721214001238B4072
:1007E0002B4201D00134F2E7DBB22B43137001E05E
:1007F00001246442FFF7C0FF002C02DB200003B09D
:10080000F0BD019B002BF9D0089801F00DFC000011
:10081000034B1B6802201840431E9841C0B270472A
:1008200000C0064010B58023DB0518680205120DD4
:10083000030B1B041B0C09498A4203D1022B07D16D
:10084000000F10BD064B074A2221074801F052FB5A
:10085000064B044A2321044801F04CFB2709000001
:100860006C6E0010586E0010906E0010E06E00105C
:1008700000231F2B08D8054A9A189200BFF35F8FF8
:10088000002111600133F4E77047C0464000003496
:10089000054A1078431CDBB21370172B02D91300E2
:1008A00010221A707047C0464403002000B583B080
:1008B0000100044B00931F2318220348FFF77FFF1A
:1008C00003B000BDF46E0010A4060020074B9B6827
:1008D000103080001950BFF35F8FBFF35F8F044B60
:1008E0000021196082F310887047C04600ED00E0D7
:1008F000240100D010B5091A0B1F0A4A944661441E
:10090000094A914208D8DA0706D45B105B055B0DF3
:100910000648184380B210BD054B064A9921064887
:1009200001F0E8FAFC070000FE0F000000E0FFFF06
:100930001C7100102C6F00104C71001010B5091ABA
:1009400004394C08090B08D14905490D064A1143E1
:100950000180064B2343438010BD054B054AA1216E
:10096000054801F0C7FAC04600F0FFFF00F8FFFF9E
:10097000906F0010386F00104C71001001238340FD
:10098000034A10681840431E9841C0B27047C046E1
:1009900000E100E0002904D0034B1860034B18600D
:1009A0007047034B1860FBE780E200E000E100E0E5
:1009B00080E100E010B5012383401800FFF7EAFF53
:1009C00010BD0000024B9B6810308000C05870477B
:1009D00000ED00E070B504000D00EFF3108672B674
:1009E0000C4B1B68002BFBD0BFF35F8F2000FFF781
:1009F000E9FF094B984201D0A84205D132002900F5
:100A00002000FFF763FF70BD044B054A7C210548B9
:100A100001F070FA240100D0CD010010E470001044
:100A2000106F00104C710010F0B5C64600B584B0D0
:100A300001900D00EFF3108672B6554B1B68002B2A
:100A4000FBD0BFF35F8F534B9A68019C1034A30017
:100A5000D758514B9F4207D0AF4200D196E0029742
:100A60004E4BFB1A2F2B08D9320039000198FFF7A3
:100A70002DFF04B004BC9046F0BD0198FFF77EFF47
:100A8000039000210198FFF795FFBFF35F8FFFF7F9
:100A9000EAFB011E01D0844211D10123029C9C4338
:100AA0000020A368AB4212D00622A256002A0DDB1A
:100AB00053009B189A002000384CA418F1E72C2111
:100AC000374B384AFF31384801F014FA2000AB4266
:100AD00055D10623E3569846002B36DB5A00424494
:100AE00091002E4B5B189A68A260DA79E2719B79CB
:100AF0005BB2A371002B12DABD200002A080434636
:100B00005B0043449A00254B9B18284A1178997141
:100B10004346137003990198FFF74CFFA4E7201D8B
:100B20001E4A8B181A1D9B88D90A1C2907D1590502
:100B30004915023149005118FFF7DCFEDEE71C4B76
:100B40001C4AA721184801F0D5F9002912D1002824
:100B50000ED0FF238371184B8380144A1378A3713E
:100B6000164B0E49641A644163431B0D1370D1E7A1
:100B7000094FF2E7201D1249FFF7E0FECAE76021A6
:100B8000104B084AFF31084801F0B4F9024F6BE7F7
:100B9000240100D000ED00E0CD010010480300204A
:100BA000B8700010606F00104C710010620B0020D4
:100BB00064700010506F001000BDFFFFAAAA000073
:100BC00082030020DC700010F8B504000126064303
:100BD0002D4BF31A2F2B28D8FFF745FB00282BD0DD
:100BE000EFF3108772B6294B1B68002BFBD0BFF3C5
:100BF0005F8F274D22002449521A524155432D0D33
:100C00006DB2244B9B6880001B58B3421BD000235D
:100C1000032B32D85A00D21891001B4A52189279ED
:100C200052B2AA421FD00133F2E7C2211A4B1B4A2B
:100C300049001B4801F05EF988211A4B174AFF3121
:100C4000174801F057F9134B9B68174A1A50174B76
:100C50001A78A2711D70BFF35F8F0C4B00221A60CF
:100C600087F31088F8BD08495A00D618B000081854
:100C7000FF2686710E4B8380E9E7CC210D4B074A96
:100C80004900074801F036F948030020240100D04C
:100C9000AAAA000000ED00E07C700010746F001044
:100CA0004C710010A4700010CD010010620B0020E8
:100CB00000BDFFFFB07000100022044B02E00449A9
:100CC00002C30132072AFAD97047C04600E400E0A7
:100CD00080808080024B9C4661448900016070479F
:100CE000400000340A4B1A68EFF3108172B61368A3
:100CF000002BFCD0BFF35F8F054B1B68BFF35F8FEA
:100D000000221A6081F3108840BF00200021704744
:100D1000380B002070B505000C00080000F0F6FC50
:100D2000200000F0FDFD0849200000F03DFDFFF728
:100D3000AFFD064B9C466044800068602C75A400A3
:100D4000034BE55070BDC046351000104000003424
:100D5000240B002010B5002922D003681B7B994288
:100D60001ED8174B9C466144090183689C46614428
:100D70000C684968002A19D003681B7B9A4215D871
:100D800083680F488446624412019A1810685368B9
:100D9000020001208B4201D80ED00020C0B210BD4D
:100DA000084B094A3B21094801F0A4F8054B064AC3
:100DB0003B21064801F09EF8A242EFD8EDE7C0467D
:100DC000FFFFFF0F44730010EC710010507400100F
:100DD00010B500291ED0037B99421BD84B005B182D
:100DE000033B0468A4466344002919D0002A1DD09F
:100DF000914221D0002A25D0047BA24222D8046847
:100E000050008018033820188170197800291FD1EC
:100E10001A7010BD104B114A6821114801F06AF890
:100E2000104B114A6F310E4801F064F80F4B0E4A17
:100E300070210B4801F05EF80D4B0B4A71210848F8
:100E400001F058F8044B054A6821054801F052F8B2
:100E500041701A70DDE7C0469C730010AC71001041
:100E6000B87300100C740010B871001018740010E2
:100E70002474001070B506000D001400002914D071
:100E8000002A14D0806873689847002806D0220092
:100E900029003000FFF79CFF280007E02A0021000E
:100EA0003000FFF795FF200000E0100070BD080043
:100EB000FCE7000070B5CE4600B583B00500009297
:100EC00001930AAB1C780BAB1B789946002C28D0F9
:100ED00003685A7B944209D10123002B1BD1002CBB
:100EE0003DD1200003B004BC914670BD002C0CD055
:100EF0001A7B944209D81A6863001B19033BD31864
:100F00009B78002BE9D00123E7E73F4B3F4A68215C
:100F10003F4800F0EFFF3F4B3F4A65213F4800F05C
:100F2000E9FF03689C7B002CD9D012D01A7B944235
:100F30000FD862001219033A19688C46624451783E
:100F40009973002900D1D9730023937053701370E3
:100F5000C5E72D4B2D4A68212D4800F0CBFF002C12
:100F60003BD02B681B7B9C4237D82D4BE3181B01D1
:100F7000AA68944663440099019A19605A60089AD5
:100F80009A60099ADA602E68002C2CD031D0337B1D
:100F90009C422ED863001B19033B3268944663447D
:100FA00000229A705A701A70717B22003000FFF78D
:100FB00061FF7073844200D093E7287D009A019B03
:100FC00000F03AFC061E02D04B46002B17D00C9BBB
:100FD000002B00D185E71E7083E7124B124A3B219C
:100FE0000E4800F087FF114B114AA521084800F078
:100FF00081FF054B054A6821054800F07BFF286802
:10100000210000F043FEE2E79C730010AC71001079
:10101000B873001070720010247200105074001029
:10102000FFFFFF0F44730010EC7100104C740010B0
:10103000CC710010F0B5DE4657464E464546E0B549
:101040008BB00990002308938200B24BD7583D0023
:1010500052E0B14BB14A3F21B14800F04BFFB14BD8
:10106000B14A3B21B14800F045FF002B01D1002AD5
:1010700068D10021604600F0FFFDA04219D132681E
:10108000736806920793B3689846F3689A46434696
:10109000002B14D0002C18D02B681B7B9C4214D83A
:1010A000631EEA68D35C08931B0218432861002082
:1010B00015E09F4B9F4A8C219C4800F01BFF9E4BE4
:1010C0009C4A9021994800F015FF964B9B4A40217D
:1010D000964800F00FFF00239A46984600206B6860
:1010E000BFF35F8F00221A6087F310884346002BFE
:1010F00031D1002800D105E100F014FB0029A8DB64
:1011000000230024069307946A68EFF3108772B6F1
:101110001368002BFCD0BFF35F8F2B689C465C7B71
:10112000002CD8D09BD01B7B9C4298D8844BE618CF
:101130003601AB689846464432687368121A8B4190
:10114000002B92DD32687368099800F075FB00236C
:101150009A469846C3E7089B1B022343994651468B
:101160001800C04706000F006A68EFF3108B72B6D4
:101170001368002BFCD0BFF35F8F002F26DB002FFE
:1011800052DD2B69002B53D04B4574D100F0CAFAC5
:1011900002000B1E75DB0100180092197B4198427A
:1011A00002D804D1914202D901225242D317002B16
:1011B0006DDB0021049101310391029451460191AC
:1011C000414600912800FFF775FE4BE02B69002B8C
:1011D000D5D04B451CD1069A079B10001900921BD5
:1011E000BB41994202D804D1904202D90122524215
:1011F000D317002B12DB00210491013103910294DB
:1012000051460191414600912800FFF753FE29E025
:101210004C4B484A9F21454800F06CFE3E4B3F4AEC
:101220003F213F4800F066FE002F01D1002EA8D1DB
:101230002A68002C47D0537B9C422ED10123002BDF
:1012400041D1D37B002B44D1D473002C54D02B68D4
:101250001B7B9C4250D8013CEB689C46644423783D
:101260000133237000232B616A68BFF35F8F136023
:101270008BF3108840E7334B2E4AA2212B4800F015
:1012800039FE254B254A3F21254800F033FE224BED
:10129000224A3F21224800F02DFE002C0DD0137B66
:1012A0009C420AD863001B19033B11688C466344B7
:1012B0009B78002BC3D00123C1E7234B234A68212D
:1012C000234800F017FE234B234AF621204800F064
:1012D00011FE002B0AD0117B8B4207D85900CB1886
:1012E000033B11688C4663445C70ADE7164B174AAC
:1012F0006821174800F0FEFD0A4B104A40210B48B8
:1013000000F0F8FD0BB03CBC90469946A246AB46B7
:10131000F0BDC046240B0020A06C0010947100109A
:10132000BC6C001044730010EC710010507400107D
:10133000987200103C720010B0720010F87100102A
:10134000FFFFFF0FBC7200109C730010AC71001007
:10135000B8730010F8720010DC71001010B50A4B61
:101360005B68002B04D00A210848FFF7B3FC10BDCE
:10137000054C2300064A1021206800F09BFB032146
:101380002000FFF7C7FCEEE790030020380B002099
:10139000550D001010B5064B5B68002B01D00448BA
:1013A00010BD044B044A5C21044800F0A3FDC04674
:1013B00090030020787300100C720010507400101D
:1013C000F0B5D6464F464646C0B588B080461600B2
:1013D0001F00109B994612AB1B789A461F236B4443
:1013E00000221A7032E0002809D042461268127BAF
:1013F000904204D8421E4146C9688A5C42E03F4B95
:101400003F4A40213F4800F075FD0020002B6DD081
:101410005346002B6AD01199C84704000D00030001
:101420000B4369D000293FDB00F07CF900294FDB3A
:1014300024184D41A94202D804D1A04202D9012466
:101440006442E517002D49DB26002F0043465A6809
:10145000EFF3108472B61368002BFCD0BFF35F8FDC
:101460001F236B440493002303930293119B019366
:101470004B46009332003B004046FFF71BFD031E26
:10148000B1D1020041464968BFF35F8F00250D606E
:1014900084F31088002B27D01F236B441B78002B6C
:1014A000B3D112021043B1E732003B00361BAF410B
:1014B000BB4202D804D1B24202D901267642F717C4
:1014C000002FC3DA104B114A3F21114800F012FDE2
:1014D0000D4B0E4A3F210E4800F00CFD0A4B0B4A03
:1014E0003F210B4800F006FD0120404208B01CBC23
:1014F00090469946A246F0BD0020F7E744730010DD
:10150000F871001050740010A06C0010947100105D
:10151000BC6C001070B504004268EFF3108572B621
:101520001368002BFCD0BFF35F8FCAB22668737BB1
:101530009A421BD1012000284AD023698B422DD02A
:10154000090AC9B2002A30D023681B7B9A422CD8E2
:10155000531EE068C35C8B422DD000206368BFF34C
:101560005F8F00221A6085F3108870BD002A0DD0AD
:10157000337B9A420AD853009B18033B3068844659
:1015800063449B78002B07D10020D4E7134B144A07
:101590006821144800F0AEFC0120CCE78521124BF5
:1015A000124A4900124800F0A5FC124B124A402191
:1015B0000F4800F09FFC1100300000F067FB00288E
:1015C000CCD112210D4B094AFF31094800F092FCA1
:1015D00023698B42C2D100232361BFE79C730010B3
:1015E000AC710010B87300101C730010587200101A
:1015F0005074001044730010F87100104073001014
:1016000070B584B005000C00FFF7C4FE0023029300
:101610000193194B00932A002300FFF7D1FE061E09
:1016200012DC164B5B6A9C4209D8144A926AAA42A1
:1016300008D29C4201D0012002E0002000E00020FE
:1016400004B070BD0120FBE720BFFFF7A3FE31000F
:10165000FFF760FF094B5B6A9C4209D8074A926A10
:10166000AA4207D29C4201D00120E9E70020E7E727
:101670000020E5E70120E3E7E50C0010004005400D
:1016800070B5EFF305833F2018401038EFF3108456
:1016900072B6194B1B68002BFBD0BFF35F8F012381
:1016A00019008140154A5163154A12781500C5404A
:1016B0002B4214D0114B5D6A8300124E9B599D4200
:1016C00006D38300104D5B598A430D490A7007E029
:1016D0000A4A031D9B0099589950002300E00023FB
:1016E000BFF35F8F044A0021116084F31088002B40
:1016F00000D0984770BDC046280100D0004005408A
:10170000640B0020440B00209406002010B501005B
:10171000024A0348FFF73AF810BDC046C8740010EB
:101720005E0B0020044B596A00E01900024B986AD6
:101730005B6A9942F9D1704700400540074B5B6AEC
:101740008B4204D2054B5B6AFAE7044B5B6A8B421F
:1017500003D1024B9B6A8342F7D370470040054098
:1017600070B504000D00FFF7DDFF02000B00200044
:101770002900801859418B4202D804D1824202D9F3
:1017800001204042C117002902DBFFF7D7FF70BDDF
:10179000024B034A3F21034800F0ACFBA06C001051
:1017A00094740010BC6C001070B504000D00EFF3D1
:1017B000108672B61B4B1B68002BFBD0BFF35F8FEC
:1017C000002D1CD02000FFF7FDF8174B98420BD0DE
:1017D00019002000FFF7FEF801212000FFF7EAF8CA
:1017E0000123A340114A1360A400114BE550BFF33D
:1017F0005F8F0C4B00221A6086F3108870BDA20028
:101800000B4B0021D1500122A2400A490B7893438F
:101810000B7005492000FFF707F900212000FFF7B2
:10182000C9F8E4E7280100D08116001038600540AF
:1018300094060020640B0020F0B5DE4600B584B0AD
:101840000500140001921E000293FFF76BFF039442
:101850008E4202D84ED184424CD9EFF3108B72B62F
:10186000274B1B68002BFBD0BFF35F8F254A1778EF
:101870000124AC40E3B23B431370234B5C632A1D4D
:1018800092000199D150AA002049029850501B6A39
:10189000234212D11C4B1B6C234208D00020BFF303
:1018A0005F8F174B00221A608BF3108823E0184BD0
:1018B000184AC121184800F01DFBFFF733FF8E4284
:1018C00014D802D1039B834210D80E4B1B78BB4225
:1018D0000ED00D4B1C625C631F222A4001239340F3
:1018E0000E4A1360074B1F700120D8E70020D6E78F
:1018F0000120D4E7012004B004BC9346F0BDC046EB
:10190000280100D0640B002000400540440B00205B
:10191000EC740010AC7400101075001080E200E050
:1019200010B5EFF3108472B60A4B1B68002BFBD086
:10193000BFF35F8F01238340074A136207490A7888
:101940009A430A70BFF35F8F024B00221A6084F340
:10195000108810BD280100D000400540640B002015
:1019600010B500291ED0037B99421BD84B005B1891
:10197000033B0468A4466344002919D0002A1DD003
:10198000914221D0002A25D0047BA24222D80468AB
:1019900050008018033820188170197800291FD151
:1019A0001A7010BD104B114A6821114800F0A2FABC
:1019B000104B114A6F310E4800F09CFA0F4B0E4A43
:1019C00070210B4800F096FA0D4B0B4A7121084824
:1019D00000F090FA044B054A6821054800F08AFAA5
:1019E00041701A70DDE7C0469C7300105C750010F2
:1019F000B87300100C740010687500101874001093
:101A00002474001070B506000D001400002914D0D5
:101A1000002A14D0806873689847002806D02200F6
:101A200029003000FFF79CFF280007E02A00210072
:101A30003000FFF795FF200000E0100070BD0800A7
:101A4000FCE7000010B50023437301338373037B6D
:101A5000C3730123027B9A4214D9002B0CD0027B62
:101A6000934209D85A00D218033A01688C4662445E
:101A70000133DBB25370EDE70B4B0C4A68210C4885
:101A800000F038FA002A09D0924207D801685300C2
:101A90009A18033A8A180023537010BD024B034A68
:101AA0006821034800F026FA9C7300105C75001052
:101AB000B873001010B5017342608360FFF7C2FF76
:101AC00010BD000070B50400002901D1080070BDF0
:101AD000002934D0037B994231D84B005B18033B7B
:101AE0000268944663445A78002AEFD02DD0037BD5
:101AF0009A422AD853009B18033B006884466344EB
:101B00005D7800205870002925D0237B994222D887
:101B10004B005B18033B20688446634400205870E8
:101B20002000FFF76FFF060029002000FFF7CAFF23
:101B3000020031002000FFF765FF0100C6E7094BF6
:101B4000094A6821094800F0D5F9064B064A682180
:101B5000064800F0CFF9034B034A6821034800F020
:101B6000C9F9C0469C7300105C750010B873001072
:101B700070B505000C001600002928D02DD0037B7D
:101B800099422AD84B005B18033B02689446634491
:101B90005A78002A27D19A78002A2AD11978FFF793
:101BA00091FF0300002E03D0EA7B002A27D1EC73BB
:101BB000002B37D1002C49D02B7B9C4246D82A6879
:101BC00063001C19033C14190023637070BD224B81
:101BD000224A3821224800F08DF9224B224A6821FE
:101BE000224800F087F9224B1C4A3A211C4800F099
:101BF00081F9204B194A3B21194800F07BF9002A52
:101C00000AD0297B8A4207D851008A18033A2968EA
:101C10008C4662445470CAE7124B134A6821134839
:101C200000F068F9002B0BD02A7B934208D84300C0
:101C30001B18033B2A689446634400229A70B9E754
:101C4000084B094A6821094800F054F9054B064A37
:101C50006821064800F04EF9C87500107C75001028
:101C6000D07500109C7300105C750010B8730010E4
:101C7000147600103C76001070B504000A00457B15
:101C80002900FFF775FF6073280070BD10B50400D0
:101C9000002966D0437B8B420ED0002911D0037BF4
:101CA00099420ED84B005B18033B0268D01883782A
:101CB000002B0CD1002055E00121FFF7DDFF0120B2
:101CC00050E0294B294A6821294800F013F9002BDC
:101CD0001FD0227B93421CD85A00D318033B2268A2
:101CE000D21813788B421AD0002B1BD0227B934240
:101CF00018D85A00D318033B2268D21853788B4265
:101D000016D0002BF0D11B4B1B4A67211B4800F05B
:101D1000F1F8154B154A6821154800F0EBF84378A7
:101D2000137007E0104B114A6821114800F0E2F8E7
:101D30004378537000238370437001222000FFF723
:101D400017FF0200617B814205D02000FFF75AFE99
:101D50006073012006E00A4B074A6D21074800F036
:101D6000C9F8002010BDC0469C7300105C750010BF
:101D7000B8730010B070001090750010D07500108E
:101D8000A875001010B50400FEF782FD01002000C8
:101D9000FEF7A0FFFF232371BFF35F8F10BD10B5C7
:101DA0000400FEF775FD01002000FEF793FFFF23FE
:101DB000237100236371BFF35F8F10BD034B9C46FB
:101DC000614489000160BFF35F8F704740000034B9
:101DD00010B504000120FEF769FD01002000FFF7A7
:101DE000EDFF10BD70B505000C00062000F032FAC2
:101DF000C000210001F0C4FBC60908D00E4B9E4272
:101E000017D87F23184001303400460800E0012431
:101E10006C62AE622C3580239B011D4300232B6036
:101E2000062000F017FA8000A101891901F0A8FB33
:101E300070BD0026014CEBE7FEFF0000FFFF000035
:101E4000002909D00A22064B9C466044434258416F
:101E50004000044BC252704780225200F3E7C04654
:101E60000080FCBF680B002070B505000C00062048
:101E700000F0F0F9002829D0164B9D4227D080228F
:101E8000D203154B1A60154B1A60154B9B68110055
:101E90009943FAD100212800FFF7D2FF2100280042
:101EA000FFF7A0FF2C002C34E96A60224A406E2123
:101EB000114080225201224311600A4B2B63802380
:101EC0009B01234310221A600323AB6470BD802260
:101ED0001204D6E70080034000E0004000F000401C
:101EE00000C000400103000000BEFDE710B5FFF791
:101EF000FBFF000010B582B00C001900002A0CD0C6
:101F0000084B002A0BD001920093230002000648E0
:101F100002F07CFB0120FFF7E7FF044BF1E7034AE7
:101F2000F1E7C0463477001044770010C0820010FB
:101F300070B52B4B2B4A1A602B4B2C4A1A602C4B3A
:101F40009A682A4B9343FAD12A4C01E008CC98476F
:101F5000294B9C42FAD300F0FDF8234B274A1A6024
:101F6000234B9B68DB43DB01FAD1254B40229A6768
:101F70005A671A67DA66234C09E0234B234A832108
:101F80002348FFF7B7FF2000FFF7FCFE0834214B82
:101F90009C4209D22368002BF5D0012BEDD1200003
:101FA000FFF7FDFE0834F2E71B4CA1681B4DC02271
:101FB000280002F0E9F9A560FEF755F9002800D0E5
:101FC00000BEFEF755FCFEF777FEFFF7C7F9144C8D
:101FD00001E008CC9847134B9C42FAD370BDC04631
:101FE00000E00040BFCDFBFE00F00040FE7F3C0063
:101FF00000C000402804002038040020FFFFFF013B
:1020000000F0014020040020987700107477001041
:10201000B87700102804002000ED00E00000002048
:1020200038040020400400200FB400B583B00848F5
:1020300002F0BAFA049B002B07D005A90191180001
:1020400002F0C2FA034802F0AFFA0120FFF74CFF9A
:102050008477001094770010F0B5DE46574680B5BF
:1020600083B007000E0092460A9A93424CD3190E91
:1020700001911B02180000930A9A002301F0C2FA92
:1020800005007B00DB199C002D4B9C466444636873
:10209000834200D260603B1FDBB29B46012B39D9E3
:1020A000C0239B012343802212011A60BB00254AF2
:1020B0009958002905D0506901F062FA01300138C1
:1020C000FDD153465B0122685340E0221340802239
:1020D0005201224313605B46012B26D980239B01CA
:1020E0002343802212011A6065602A0000230098B1
:1020F000019901F087FABF00124BF850012003B09C
:102100000CBC92469B46F0BD0F4B104A2D21104847
:10211000FFF7F0FE012EC3D1C0239B01234303220E
:102120001A60A368DB07FCD5CBE721687140032365
:102130000B401360A3680122B2401A42FAD0CDE7E7
:1021400000800040A80600201478001004780010D9
:102150002878001030B583B00C2000F021F9FEF78C
:1021600057FB00280DD00023092B05D899002D4AD4
:102170002D4888500133F7E72A4B2C4A5A6203B0A6
:1021800030BD2B4B00229A6700F012F9294B012237
:102190001A60274B5B6C012BFBD1274B03221A6083
:1021A000234B9B6B012BFBD1013300930433234A58
:1021B0000121234800F054F805230093214A01210E
:1021C000214800F04DF8214B009300220221042009
:1021D000FFF742FF1E4D00952B0000220121052034
:1021E000FFF73AFF104C0094230000220021072043
:1021F000FFF732FF00942300002200210820FFF7A0
:102200002BFF0A4B00932300002200210920FFF737
:1022100023FF00952B00002200210620FFF71CFF62
:10222000ADE7C046A8060020006CDC021BB700002A
:10223000008000403CB0004030B00040002F6859A2
:1022400000800240008C864700C00240001BB7009F
:10225000405973078000014BC0587047A806002002
:10226000F0B583B00500019114001F000C2001F0AF
:1022700087F906003D4BE2183D4B9A4242D8420195
:10228000121A93019B1ADB001B189901200001F020
:1022900077F90200103A98235B009A4238D87B1EE7
:1022A000062B3BD8089B013B062B37D8089B9F4247
:1022B0003AD32309B3423DD33F04089B1E033E4358
:1022C0002B68002B3CDB2B4B9D424BD080214901DE
:1022D000294B1960294B1960294A92680B009343D6
:1022E000FAD1019B2B60A8602A1DC0239B011343D8
:1022F00021221A602A68002AFCDAEE6008221A609D
:1023000003B0F0BD1F4B204A11212048FFF7F2FD1A
:102310001F4B1D4A19211D48FFF7ECFD1D4B1A4AA2
:102320001C211A48FFF7E6FD1B4B174A22211748CC
:10233000FFF7E0FD194B144A25211448FFF7DAFD99
:102340002A683F231340019A9342BCD1AB681B0516
:102350001B0D8342B7D1EB68EE22D2021340B34289
:10236000B1D1CDE780218901B2E7C04680E84BD3E7
:1023700080F8A93200C0024000E0004000F00040B8
:1023800000C000408478001078780010E4780010D5
:102390002C7900104879001094790010AC79001065
:1023A00080239B000343014AD362704700800540AD
:1023B000064BAA2212011A602F22DA60044B054A4A
:1023C0001A60024B5B68002BFBDA7047004002404A
:1023D0000060024000B0FA00704710B5002802D03B
:1023E0000B684968984710BD10B5040000232168A8
:1023F0000A78303AD2B2092A08D89800C31858008F
:102400004B1C23600B781B18303BF0E7180010BD05
:10241000F0B5D6464F464646C0B582B0050000919D
:10242000904601930A9B99460B9C0C9E0D9B9B0723
:102430000CD04E460C9B9946002C19D0013C571CE1
:10244000305D019B0099A8473A00F5E72700A246B6
:10245000B74207D2541C019B00992020A84701379E
:102460002200F5E754460C964E460C9B9946E3E74E
:102470004E460D9B9B0706D4100002B01CBC904634
:102480009946A246F0BD4746D31BB342F4D2541C32
:10249000019B00992020A8472200F5E7F0B5CE4621
:1024A00000B586B0049205930C9D0D9C0EAE33785A
:1024B0009946109F119B129EB2071BD4002B08D087
:1024C000F20706D54A46002A02D10C32324200D029
:1024D000013BBC4208D21F2C06D830222A550134B9
:1024E000F7E730222A550134F20703D59C4201D286
:1024F0001F2CF6D9F20615D5720505D4002C03D091
:10250000BC4223D09C4221D00F9A102A2AD00F9A85
:10251000102A2FD00F9A022A34D01F2C02D830272D
:102520002F5501341F2C05D84A46002A30D02D27BC
:102530002F5501340396029301940095059B049A4C
:10254000FFF766FF06B004BC9146F0BD671E002F82
:1025500006D00F9A102A01D03C00D5E7023CD3E701
:102560003C00D1E7B206D2D41F2CD0D878272F5503
:102570000134D2E7B206CDD51F2CCBD858272F5522
:102580000134CAE71F2CC8D862272F550134C4E78D
:10259000720703D52B272F550134CBE73207C9D556
:1025A00020272F550134C5E7F0B5CE46474680B504
:1025B00095B0089009910A920B931CAB10CB1B7835
:1025C00098461E9D219B9946002C03D110234A4614
:1025D0009A4391468027FF004B461F4018D0002C9D
:1025E00022D0002714E04A4692061BD54121C91883
:1025F000C9B20A39C9B27E1C0CABD95529002000DA
:1026000000F0BEFFAC4210D31F2E0ED837000400DE
:102610002900200000F0B4FFCBB2092BE3D83033FF
:10262000D9B2E8E76121E2E726004B460693209BFA
:1026300005931F9B049303954346029301960CABAD
:1026400000930B9B0A9A09990898FFF727FF15B08A
:102650000CBC90469946F0BDF0B5DE46574680B5B5
:1026600097B00A900B910C920D931E9A08921F9CA2
:1026700020AB1B789B46229B0993239D269B9A4661
:102680002243131E03D1103352469A4392468026AA
:10269000F60053461E4006D0089A1300234333D059
:1026A000002637001AE0370018E05246920621D57E
:1026B0004122D218D2B20A3AD2B27E1C0EABDA55FF
:1026C000099A2B000898210000F09CFFA5421DD814
:1026D00012D01F2E16D8370008900C00099A2B0034
:1026E0000898210000F08EFFD3B2092BDDD83033DB
:1026F000DAB2E2E76122DCE7099B089A9342E8D963
:10270000370004E0370002E0002700E037005346BE
:102710000693259B0593249B0493099B03935B4697
:10272000029301970EAB00930D9B0C9A0B990A989C
:10273000FFF7B4FE17B00CBC92469B46F0BD0000FC
:10274000F0B5D6464F464646C0B594B00A900691BD
:102750000B9207931C9C08941D9D099522002B0049
:102760002000290001F0DDF9002800D0E8E0012276
:102770005242D64B2000290001F0CEF9002800D0AB
:10278000DEE001225242D24B2000290001F0AEF9D6
:10279000002800D0D4E000220023089D2800099CD6
:1027A000210001F0A3F9002800D0DFE0089E099F76
:1027B0008023DB00209A1A409046131E01D1063375
:1027C0001E930C960D973A00324300D1D5E0380D98
:1027D0004005400DBF4A944660443A03120BBE4B7D
:1027E00013431D0001F0B0F9BC4ABD4B01F03BF9A9
:1027F000BC4ABD4B01F010F90C900D910022BB4B6F
:102800003000290001F0FFF8B94ABA4B01F02BF96A
:1028100002000B000C980D9901F0FEF801F0ACF9E4
:10282000824601F091F9B44AB44B0C900D9101F03D
:102830001AF90022B24B01F0EFF801F09DF9050002
:10284000B04AB14B0C980D9901F00DF90C900D9117
:10285000280001F079F9AD4AAD4B01F004F902000E
:102860000B000C980D9901F0CEF802000B000E90B1
:102870000F9101F0F8F810901191A64B9C46654419
:102880002B050D9300230C930E9C0F9D22002B0013
:102890002000290001F0C0F80E900F9122002B00BB
:1028A00000208021C90501F0AEF81290139100229A
:1028B000994B109C119D2000290001F0B6F80022D0
:1028C000964B01F0A9F802000B002000290001F04E
:1028D000ACF80022924B01F09FF802000B002000A0
:1028E000290001F0A2F802000B001298139901F0E0
:1028F00093F802000B000E980F9901F096F8002251
:10290000754B01F089F80C9A0D9B01F0ACF80200B0
:102910000B000C920D9332003B0004000D0001F0FF
:10292000FBF800282BD001235B429C46E2440022A6
:102930007A4B2000290001F078F80C900D911EE0F0
:10294000209B04931F9B03931E9B0293089A099B51
:1029500000920193079B0B9A06990A9800F0F4F8ED
:1029600014B01CBC90469946A246F0BD2E008023B0
:102970001B069C46644427001AE700239A465346E8
:102980006333C62B21D80425209B1B0529D50C9A1F
:102990000D9B1900114310D0624A634B300039007F
:1029A00001F0B2F8002800D182E000225F4B300035
:1029B000390001F09BF800287AD01E9B534506DDB4
:1029C00052469C1A631E1E9303E00525DCE7002394
:1029D0001E938023DB00209A1A43209200250023B7
:1029E0009A461F9B9D426DD25B1B99460223209AFB
:1029F0001A40904603D0002D01D00023994653463B
:102A0000002B07D00C9A0D9B3000390001F00DF817
:102A100006000F00002200230898099901F066F8CB
:102A2000002800D086E0424B209A134004934B4686
:102A300003931E9B029300960197079B0B9A06999E
:102A40000A9800F081F8002D00D189E7209B9B06B1
:102A500075D54526471C079B0200069930000A9E43
:102A6000B0475046C2178318534005220592013DD6
:102A70000495002203920A320292C40F019400933B
:102A8000079B3A0006993000FFF78EFD4346002B66
:102A900000D165E702000A9E0B9C1F9D131BAB42F1
:102AA0004FD2571C079B06992020B0473A00F5E704
:102AB0001E9B002B95D04346002B92D01E9B013BC2
:102AC0001E938EE70023994690E7C046FFFFEF7FF5
:102AD000FFFFEFFF01FCFFFF0000F03FFB799F507D
:102AE0001344D33FB3C8608B288AC63F0000F83F29
:102AF00061436F63A787D23F71A379094F930A405F
:102B00000000E03F1655B5BBB16B0240EF39FAFE4D
:102B1000422EE63FFF03000000002C40000024404E
:102B2000000018402D431CEBE2361A3F80842E41F2
:102B3000FFF7FFFF802109067B181F0073E765265A
:102B400088E710000CE7C046F0B5D646474680B58A
:102B500097B00690079108920993209F1E9A1F9B99
:102B60001000190000F0DDFF002839D10122524287
:102B7000BC4B1E981F9900F0B9FF00283FD10122DD
:102B80005242B94B1E981F9900F0C6FF002845D14C
:102B90000022B64B1E981F9900F0BEFF002856D1A8
:102BA0000022B34B1E981F9900F0A0FF00284ED1C1
:102BB000002200231E981F9900F098FF002856D18C
:102BC00000239A46229B5B055CD500261F2E5BD80E
:102BD000092F59D90EAB30229A55013F0136F5E73E
:102BE000229B0393219B029303230193A14B009308
:102BF000099B089A07990698FFF70AFC03E1229BB4
:102C00000393219B0293042301939B4B0093099B05
:102C1000089A07990698FFF7FBFBF4E00423229A31
:102C2000134010D0954A002B0FD004232299039112
:102C30002199029101930092099B089A079906989D
:102C4000FFF7E6FBDFE08E4AEDE70323EEE7229B8A
:102C50000493219B039302971E9B1F9C0093019456
:102C6000099B089A07990698FFF76AFDCBE01E9A20
:102C70001F9B0020002100F0C6FE1E901F91012323
:102C80009A469FE70627A0E71E981F9900F074FF59
:102C9000040000F059FF02000B001E981F9900F07D
:102CA000B2FEFA00774B9B181A685B680C920D9382
:102CB00000F0D9FE0A900B9100F082FF050000F0B1
:102CC0003FFF02000B000A980B9900F09CFE0A904F
:102CD0000B9100226C4B00F01FFF00282CD0013517
:102CE000280000F02DFF02000B000C980D9900F059
:102CF00003FF002801D001340025002F2AD1200035
:102D000000F022FF02000B001E981F9900F07BFECE
:102D100000225D4B0A900B9100F0E8FE002844D1A0
:102D20000022594B0A980B9900F0F6FE00283CD17E
:102D3000E3073AD5013438E00022534B0A980B9947
:102D400000F0D4FE0028D8D1002D01D0EB07D4D557
:102D50000135D2E70A941F2E11D8013F0A2128001D
:102D600000F00EFC741C30310EAB99550A2128007E
:102D700000F006FC092D0ED905002600EBE70A9CA1
:102D80001F2E0CD87B1E002F09D00EAA3021915582
:102D90001F000136F4E7A0460A9C4646F0E71F2EC6
:102DA00003D80EAB2E229A5501361F2E10D80A21B9
:102DB000200000F0BDFB751C30310EAB99550A2187
:102DC000200000F0B5FB041E01D02E00EDE72E0020
:102DD0000323229A1340012B1AD01F2E06D85346E4
:102DE000002B2FD00EAB2D229A550136229B039338
:102DF000219B029301960EAB0093099B089A0799B9
:102E00000698FFF705FB17B00CBC90469A46F0BD3C
:102E1000219B002B0AD05346002B02D10C331342C6
:102E20000ED0219B013B2193190000E021998E4295
:102E3000D3D21F2ED1D80EAB30229A550136F6E7E9
:102E40002199F4E7229B5B0704D50EAB2B229A5500
:102E50000136CBE7229B1B07C8D50EAB20229A5523
:102E60000136C3E7FFFFEFFFFFFFEF7F65CDCD41E9
:102E700065CDCDC1B47B0010B87B0010AC7B0010D9
:102E8000A87B0010C07B00100000E03FF0B5DE46DC
:102E900057464E464546E0B593B083460B910A929D
:102EA0001193002900D1E6E200275C46119B1878B7
:102EB000002800D1E2E2252809D07D1C0A9B3A00B7
:102EC0000B99A047119B013311932F00EEE70133BB
:102ED000119300261DE00B00303BDBB2092B37D9E4
:102EE0002A293AD000239B46119B1A782E2A44D0D7
:102EF00000239846119A1378683BD9B2122900D959
:102F000080E08B00CB49CB589F4601231E43013202
:102F10001192119A11780B00203BD8B21028DAD800
:102F20008300C548C3589F4602231E4301321192B5
:102F3000EFE704231E4301321192EAE708231E4300
:102F400001321192E5E710231E4301321192E0E7AE
:102F500011A8FFF749FA8346C6E71C9B1A1D1C926D
:102F60001B68002B04DB9B46119B01331193BBE7CD
:102F7000022216435B429B46F6E78022D2001643AC
:102F80005A1C11925A781300303BDBB2092B04D93A
:102F90002A2A07D000239846ACE711A8FFF724FAA5
:102FA0008046A7E71C9B1A1D1C921B68002B04DBA4
:102FB0009846119B013311939CE70023F8E7802387
:102FC0005B003343511C119152786C2A01D01E00D2
:102FD00018E0C0239B001E430131119112E08023B1
:102FE0003343511C11915278682A01D01E0009E028
:102FF000C0231E430131119104E080235B001E4376
:1030000001321192119B18780300253BDAB2532A42
:1030100000D926E29300894AD3589F4680239B001B
:103020001E4301321192EDE780235B001E43013203
:103030001192E7E7782809D0582838D06F2838D07F
:10304000622838D010239E430A2500E01025582816
:1030500033D0692803D0642801D00C22964373052D
:1030600001D50122964369282AD0642828D0B305C7
:1030700000D59FE0F30500D5B8E0730600D4CAE0A0
:103080001C9A111D1C911168FF220A4005965B468F
:1030900004934346039302950023019300920A9BF5
:1030A0003A000B992000FFF77FFA070027E0102570
:1030B000CDE70825CBE70225C9E720221643C8E75C
:1030C000B30520D4F30550D4730666D51C9A111DA0
:1030D0001C911168FF220A40D317D1185940059658
:1030E0005B460493434603930295D20F01920091ED
:1030F0000A9B3A000B992000FFF756FA0700119B34
:1031000001331193D2E61C9BDA1D07218A4311007B
:1031100008311C91116853689C46DB170C930D9382
:103120000C9A0D9B100048400E90624653400F933E
:103130000E980F990C9A0D9B801A99410E900F9141
:1031400008965B4607934346069304950023059330
:103150006346DA0F0292009001910A9B3A000B99A4
:103160002000FFF779FA0700C9E71C9A111D1C918E
:103170001268D317D118594005965B46049343460D
:1031800003930295D20F019200910A9B3A000B998A
:103190002000FFF709FA0700B1E7330605D51C9AAE
:1031A000111D1C910023D25E96E71C9A111D1C91E3
:1031B000126891E71C9BDA1D07218A431100083130
:1031C0001C9108965B46079343460693049500239B
:1031D0000593029353681268009201930A9B3A0088
:1031E0000B992000FFF738FA070088E71C9A111D99
:1031F0001C9105965B460493434603930295002376
:103200000193136800930A9B3A000B992000FFF783
:10321000CBF9070073E7330606D51C9A111D1C91E4
:1032200012681204120C31E71C9A111D1C911268CD
:103230002CE7C046C8790010147A0010587A0010A4
:1032400046281AD01C9B0733072293431A000832E2
:103250001C9204965A460392424602921A685B6890
:10326000009201930A9B3A000B992000FFF76CFC37
:103270000700119B0133119318E620231E43E1E759
:10328000672801D0472802D180231B011E4345280F
:1032900001D0472801D120231E431C9B073307225E
:1032A00093431A0008321C9204965A4603924246EF
:1032B00002921A685B68009201930A9B3A000B998C
:1032C0002000FFF73DFA0700119B01331193EDE554
:1032D000022333409A461ED001261C9B1A1D1C92C5
:1032E0007D1C18780A9B3A000B99A0475346002B87
:1032F00015D1119B013311932F00D7E5551C0A9B63
:103300000B992020A04733002A005E1C9F42F5D86D
:10331000BB461700E1E701233A005F46F5E72A00C4
:10332000A0465C4606E0571C0A9B0B992020C0472C
:103330002E003A00751CB442F5D815004446D8E773
:103340001C9B1A1D1C921B689A464346002B00D1F9
:10335000013B55462A78002A05D05A1E002B02D080
:1033600001351300F6E75346ED1A8023DB003340A6
:10337000994602D0454500D9454602233340109373
:1033800008D03A00564629004D4623004446984648
:1033900089461FE03A0023005C469B4606E0571C26
:1033A0000A9B0B992020D84735003A006E1CAC428E
:1033B000F5D835005B46A346564629004D4644469F
:1033C0009846894606E01C000136571C0A9B0B995B
:1033D000C0473A003078002804D0002DF4D0631E96
:1033E000002CF0D117004D464446109B002B03D112
:1033F000119B0133119359E55C4606E0571C0A9B6B
:103400000B992020C04735003A006E1CAC42F5D81D
:1034100017004446ECE7212333431C9A111D1C91ED
:1034200012680092059308230493434603931023E4
:103430000293002301930A9B3A000B992000FFF7A7
:10344000B3F80700119B013311932FE57D1C0A9BF4
:103450003A000B992520A047119B013311932F00AF
:1034600024E57D1C0A9B3A000B99A047119B013370
:1034700011932F001AE50B4B9B4615E5A3460A9BBB
:103480009F420CD35A1E0A9B0B990020D847380044
:1034900013B03CBC90469946A246AB46F0BD3A00FC
:1034A000F1E7C046D923001000B585B00290039122
:1034B0000121009313004A4202A90248FFF7E6FCEB
:1034C00005B000BDDB23001001480421014B184763
:1034D000C0030020F934001010B5010018231B8828
:1034E00014221088984710BD10B5010018231B88BE
:1034F00016221088984710BDF0B5C64600B50700E3
:103500000E0000250123984600E00135B5420AD29D
:10351000AC003C192068FFF7DFFF20600028F4D1E1
:1035200000239846F1E7404604BC9046F0BD0000F9
:10353000124A936F9B0815D29066D166002905D078
:10354000FFE7FFE7FFE7516F106F704704B5802179
:103550000906C2175140002800D0C84303F06CFB95
:10356000002104BDF0B5146E556E576F166FFFF74E
:10357000E3FF1466556657671667F0BD000000D07C
:10358000114A936F9B0813D210665166002905D02B
:10359000FFE7FFE7FFE7516F106F704704B50028A2
:1035A00001D00020C04303F047FB002104BDC0460A
:1035B000F0B5146E556E576F166FFFF7E5FF146682
:1035C000556657671667F0BD000000D094464E4A16
:1035D000926F9208624601D230E0C046F0B54A4E82
:1035E000B56F6D08FCD3346E756E776F366F00F073
:1035F00025F89446444A146655665767166762462E
:10360000F0BDC0469446404A926F9208624601D28D
:1036100058E0C046F0B53C4EB56F6D08FCD3346E33
:10362000756E776F366F00F04DF89446364A146623
:103630005566576716676246F0BDC046002B24DB0F
:1036400011D000293EDA00B5C943404200D1013112
:1036500000F038F8C943404200D10131DB43524207
:1036600000D1013300BD002AEBD1002801D100298F
:1036700005D00020C90FC90701D1C043410800B5DA
:1036800003F0D2FA0022002300BD00B500290ADBB6
:10369000DB43524200D1013300F014F8C9434042E9
:1036A00000D1013100BDC943404200D10131DB43AB
:1036B000524200D1013300F005F8DB43524200D101
:1036C000013300BD002923D1002B18D1002A0CD0D2
:1036D000BC460D4F38667A6600210023FFE7FFE7FE
:1036E000FFE77A6F386F67467047002801D00748B8
:1036F000010000B503F098FA0022002300BD02008B
:103700000B00002000217047000000D0FFFFFFFFEA
:10371000002B00D0BFE0130C28D1002AE7D080B4E2
:10372000114F39667A66FFE7FFE730B4040C7B6F10
:10373000396F1B0423433B667A66FFE7FFE7FFE729
:10374000C04684B27B6F3D6F1B0423433B667A66A1
:10375000FFE7FFE7C04600232C042D0C7A6F386F7B
:1037600000196941B0BC7047000000D0F0B5944624
:103770000025140E01D112020835140F01D11201D7
:103780000435940F01D192000235D40F01D15200BB
:103790000135D40B0134254F7C66254C3C660E0C5C
:1037A00093B2FFE7FFE7FFE73C6F6643360C770312
:1037B000BE467343DF0B5B04C01AB941130C73435D
:1037C000DB18C91ACE086643360CB64493B273436D
:1037D0001F0F1B01C01AB941130C73431F0B1B05AC
:1037E000C01AB941860D8F023E436643360C092D3F
:1037F00024DB520A7243801A7703460A6643360C6A
:1038000016235B1BDE40DF40BF1964466643821B04
:103810007046043506330100D940A840C01900D3D2
:103820000131A24206D20023F0BD0000000000D00A
:10383000FFFFFFFF121B0130F3D3F1E709277F1BC6
:10384000FE406446A2B27243801A00D20139220CB3
:103850007243130C1204821A99410B00704604350E
:1038600013370100F940A840801900D30131002B23
:1038700002D1A2420AD2F0BD013000D30131121BA5
:10388000FAD2013BF8D1A24200D2F0BD013000D300
:103890000131121BF7E7F0B51C0C00D080E00CB42E
:1038A00000251C0A04D11B02160E334312020835F0
:1038B0001C0B04D11B01160F3343120104359C0B62
:1038C00004D19B00960F334392000235DC0B02D1EA
:1038D00092185B4101351C00971864410134464F32
:1038E0007C66464C3C660E0CFFE7FFE7FFE7C046F0
:1038F0003C6F6643360C7703BE4697B27743C01BD6
:1039000000D20139C01B00D201399FB27743C91BD5
:10391000C91B170C77437E04FF0B801BB941CE08EF
:103920006643360C0C2D33DBB644120B1F053A43AD
:103930001B0B97B27743C01B00D201399FB277436C
:10394000C91B170C77433E043F0C801BB941860D01
:103950008F023E43664329277F1BFE400C3D77467E
:10396000AF40BF1930BCA2B2ABB272437343801AEE
:103970009941220C7243130C1204801A99410200DF
:103980000B000137001BA941F9D2781E0021F0BDC0
:103990000C277F1BFE4077467F0BAF40FF19E0E707
:1039A00000245D1C07D0144F7D663966FFE7FFE7F2
:1039B000FFE7FFE73C6F95B29EB265436643401B4D
:1039C000B141150C1E0C6543664336042F0C3E4373
:1039D0002D04401BB141994204D202000B0020008B
:1039E0000021F0BD01D19042F7D3801A99410134F2
:1039F0009942F2D3F6E70000000000D0FFFFFFFF7E
:103A000048404140484018B41B4B5B68FC4601935A
:103A100008BD04DFDB3C001018B4174B1B68FC46E4
:103A2000019308BD00DFE53C00109446134A926FF5
:103A3000920809D2624618B40F4BDB68FC4601932A
:103A400008BD0CDF9D3F00100C4AF0B5146E556E9A
:103A5000576F166F6246FFF7EEFF084A1466556609
:103A600057671667F0BD18B4034B9B68FC4601937B
:103A700008BD08DF413E00106C0B0020000000D0A4
:103A8000FFB550404240504059404B40594000E043
:103A9000FFB5154F4C00640D03D0BC4204D10C039C
:103AA00014D80020090D09055C00640D03D0BC4248
:103AB00004D11C030AD800221B0D1B0501264B4014
:103AC00009D44B4003D58B4200D18242FFBD9942BD
:103AD000FCD19042FFBD0B43DB1803431343F5D0E9
:103AE000C9434918FFBD0000FF07000000B5FFF7FC
:103AF000CFFF804100BDC04600B5FFF7C9FF01D927
:103B0000002000BD012000BD00B5FFF7B9FF01D9BD
:103B1000002000BD012000BD00B5FFF7B1FF8041CE
:103B200000BD012040054A00121804D85A0012189E
:103B300001D8002070470120704700207047000026
:103B40000021002805D17047C1174840401AFAD01B
:103B5000C90713B5064B1B6898470CBC441CA24010
:103B60001005120B0349091B09051943114310BD28
:103B7000340B00201F04000010B54C00620D8023A0
:103B8000D218DB00D21A5B057E2A10DD9E3A13DACA
:103B9000CC170903490819435242D140640001344B
:103BA0001532202A05DAD0400843604310BD0020BA
:103BB00010BD0846604310BDC80FC018013810BDC5
:103BC00018B4044B5B6AFC46019308BD24DF4D41E9
:103BD000001000006C0B002070B513231C78012C22
:103BE0000CD0012C13DC022C02DC1F4A1F4B9A6400
:103BF0001F48FFF771FC1F4B186070BD00231F2B7F
:103C0000EFD899001848194A88500133F7E71A4845
:103C1000FFF76AFC05001948FFF766FC02380378D5
:103C20009B007F2B19DD80222900104800F0ACFB9F
:103C3000022CD8D1124B1A88B5231B029A4209D103
:103C4000104B1A88104B9A4204D1104B1A88104B13
:103C50009A42C8D00020FEF7E7F90E4B0E4A3221F7
:103C60000E48FEF747F9C046A13C00106C0B00203F
:103C70004C330000340B0020534400005346000036
:103C800054380000D8380000494600009C38000035
:103C900059460000107C0010C47C0010707C00109D
:103CA00007B56046002800D100BE01880A0A02302C
:103CB000DF2AFAD1C9B2820804D3028840880004FE
:103CC000104300E00068024A5050039007BD000016
:103CD0006C0B00200FB403BC0CBCF0B50124E4074E
:103CE000634000E0F0B50C0DCF0F661E3605891B52
:103CF000640503D3C943404200D30131640D03D0AE
:103D0000661CF60A07D0E41B00207F00791C890797
:103D10008912803C24031D0DDF0F6E1E36059B1B90
:103D20006D0503D3DB43524200D301336D0D03D045
:103D30006E1CF60A07D0ED1B00227F007B1C9B0740
:103D40009B12803D2D032F1B661B58D4A446202EAA
:103D500046DA20371400BC401D00BD40F24033411C
:103D60002A4380185941CB0F05D0C943C0430022D4
:103D700064425041514162464D0D28D10D0D07D18D
:103D800000281FD0241940414941013A0D0DF9D0B6
:103D9000640006D3013000D30131002C01D140086A
:103DA0004000013A0BD4941CE40A04D112051144DA
:103DB000DB071944F0BDD907204B194300E0D907B0
:103DC0000020F0BD0029DDD1002CDBD1F0BD013297
:103DD000C6074008CD0728434908002EE1D0D9E79F
:103DE0003C2E29DA203E40371400BC4000D001248C
:103DF000F24014431A00BB401C43D317ACE7AC4657
:103E0000202F08DA20360400B4400D00B540F840F9
:103E100039412843A5E73C2F0CDA203F4036040007
:103E2000B44000D00124F84004430800B1400C43E2
:103E3000C117EAE710001900002494E70000F07FA2
:103E4000F0B50C0D661E3605891BE60A6405640D87
:103E500002D0651CED0A04D0002001210905803C38
:103E60002403A4461C0D671E3F05DB1BE70A6405FF
:103E7000640D02D0651CED0A04D0002201231B054D
:103E8000803C24037740644497B484B296B2744370
:103E9000070C7E43150C6F4380B26843361802D37B
:103EA000012000043F183004350C00197D41844680
:103EB00088B29AB250430C0C62431F0C7C438EB202
:103EC0007E43921902D301263604A4191604170C56
:103ED0003618674101BC81B29AB25143040C624367
:103EE0001B0C5C4380B25843121802D3012000041B
:103EF00024181004130C401863412D185E41002053
:103F0000474106BC88B293B258430C0C6343120C71
:103F1000544389B251435B1802D301210904641848
:103F200019041A0C091862416D18564100204741C6
:103F300018BCF902720D1143F0026A0D1043ED0234
:103F40000A0D03D16D1940414941013B124E9B1BA3
:103F50007600B3420ED26D0007D3013000267141C6
:103F60006646354301D1400840001B05C918E407E7
:103F70002144F0BD0BDA013306D1013004D1013107
:103F80004F0D01D04908F2E7E1070020F0BD0136EE
:103F900031050020EBE70000FF030000F0B51C0D29
:103FA000671E3F05DB1BE70A6405640D02D0661C33
:103FB000F60A04D0002201231B05803C2403D025EF
:103FC0002D060026F6432E661E096E66CE0FF619E4
:103FD000B44649004F0D02D07E1CF60A03D00020E3
:103FE0000021403F3F033E1BB600B444013F7F0524
:103FF000C91B49082E6F013676089C02950D254392
:104000007543ED137543AD1301356D10F603761B43
:104010000CB4CC02450D2C43A2B2B3B25A43270CC8
:104020007B43350C6F43A4B26C431B1902D30124AC
:1040300024043F191C041D0CA4187D4124196D4152
:10404000009A91B2ACB26143170C7C432B0C5F43D6
:1040500092B25A43A41802D301221204BF182204B8
:10406000230C52187B41019C6C431B19520ED90141
:104070000A434401A01A81B2B2B2514303145A4315
:10408000360C734387B27743D617D21900277E4187
:1040900036049B191704160C7F185E417316ED1831
:1040A000F301002680337541A90F06D16400690A27
:1040B000E8055B0A184309D22FE0042294448033B8
:1040C0007541A90AA8059B0A184326D340414941D6
:1040D0002404009A019B0D005543641B4343E41ADA
:1040E00095B286B27543170C7E43030C5F4392B2C0
:1040F0005A43B61802D301221204BF183204330CFB
:1041000052197B4152429C41002C02D400220130C2
:1041100051414008CA071043490802B06246D70718
:104120009210084BD218084B9A4203D212058918F4
:10413000C919F0BD0020002A01DC3900F0BD0133AF
:104140001905F5E7FD030000FE070000002200B599
:10415000203200F004F8080000BD000000220B151A
:104160000AD410B5944600F031F81414013400DA82
:104170000021CB17144C20470020002170476244D7
:10418000343A0CD40C2A07DA040091409040524291
:104190002032D440214310BDD843D94310BD203232
:1041A00007D40C469440524220321141D040204363
:1041B00010BD0800C917203203D4524220321041EA
:1041C00010BD1800190010BD7F4100100A0DCC0F62
:1041D000531E1B05C91A520503D3C943404200D3DD
:1041E0000131520D03D0531CDB0A07D0121B0020F3
:1041F0006400611C89078912803A1203014BD21AAC
:1042000070470000FF03000051434343C9188C4628
:10421000110C83B24B4310B4040C614392B280B2D0
:10422000504362431C041B0C001910BC5941130479
:10423000120CC018514161447047000070B513233F
:104240001D782A48FFF750F90400012D11D0012DE7
:1042500009DDA31E1B789B007F2B40DD80222100FF
:10426000234800F091F82348FFF736F9224B1860F5
:1042700070BD542201001E4800F086F81F4B1A88BA
:104280001F4B9A421CD1A7239B011A881D4B9A42AF
:1042900016D11D4B1A881D4B9A4211D11C4B1A88FE
:1042A00094239B019A420BD11A4B1A881A4B9A42BB
:1042B00006D11A4B1A681A4B9A4201D1152307E00E
:1042C0001848FDF7B1FE99001748094A8850013394
:1042D0001F2BF8D9144A064B1A62DA61B7E7134B61
:1042E000134A42211348FDF705FEC046534600001D
:1042F0006C0C00204C330000340B0020EE29000031
:10430000C40F0000C20D0000962B0000C0B50000D5
:10431000182B0000CC2A000010B50000FC2C000077
:1043200051ED8764C082001039430010D87C001022
:104330005C7D00100C7D001007B56046002800D1A0
:1043400000BE01880A0A0230DF2AFAD1C9B2820807
:1043500004D3028840880004104300E00068024A49
:104360005050039007BD00006C0C00200148042150
:10437000014B1847D0030020F9340010014B1B6893
:1043800018470000D0030020014B5B68184700006D
:10439000D003002010B50C000368110020009847DE
:1043A00010BD0000F8B507000D001600437C002B7F
:1043B00002D0002400200CE0036811002800984778
:1043C0002DE03B7C10E0022115483B689847601CBB
:1043D0000134B44214DA002CF3DD2B19013B1B78B5
:1043E0000D3B5A425341DBB22A5D0A2AF0D1002B21
:1043F000EED1A042E7DA211A28183B689847E2E795
:10440000B04203DA311A28183B689847002E06DDBF
:10441000AD19013D2B780D3B5A4253413B74F8BD19
:10442000E47D001070B505000368002B16D00C4B1E
:104430001C6805E0290004C92000FFF7B3FFE46809
:10444000002C09D02368002BF9D0064B1B68002BE9
:10445000F0D0A342F3D1EDE700232B6070BDC0463E
:10446000100700201407002070B505000C000B6831
:10447000802B05D023685A1C2260E418257170BD7A
:104480000800FFF7CFFFF5E710B582B0D0231B0679
:1044900000241C5701A9074802F0D6FB002806D1CA
:1044A000019B9C4203D0034802F0DEFB012002B0D6
:1044B00010BDC0462004002010B5024802F0ACFB3D
:1044C00010BDC04620040020F0B5C64600B584B03B
:1044D00001900D0016001C00FFF7D6FF80466B1CF4
:1044E00005D0002C08D0194F194B1C6807E0019823
:1044F00002F05CFB0500F4E7164FF5E7E468002CDA
:1045000016D02368002BF9D0134B1B68002B01D069
:10451000A342F3D12A0001992000B847002EEDD024
:1045200002ABD91D0A230B7001222000B847E5E732
:104530004346002B06D1681E8541E8B204B004BC96
:104540009046F0BDFFF7B8FFF5E7C0469543001071
:1045500010070020A543001014070020094A136823
:10456000002B0BD0834202D00C331A00F7E700294E
:1045700007D1C36813600023C36002E0002900D0A4
:10458000106070471007002010B5064B1C6800E053
:10459000E468002C04D06368002BF9D09847F7E753
:1045A00010BDC0461007002070B5050002F0FEFAED
:1045B00004000023012201002800FFF785FFFFF718
:1045C000E3FF200070BD000070B5A2B004000E0033
:1045D000FFF75AFF05008422002101A8FFF7CEFE55
:1045E0003300220001A90848FEF75EFF040001A87D
:1045F000FFF718FFFFF7C8FF002D02D1200022B0FF
:1046000070BDFFF759FFF9E7694400100FB400B51A
:1046100083B004A901C90191FFF7D6FF03B008BC1C
:1046200004B01847F0B583B000251AE06B46073395
:104630000D241C70002403E01F781760013401333F
:10464000002C1CD19769BF06FCD4F5E71E781660D4
:1046500001340133002C03D19669B606FCD4F5E78A
:1046600001358D4210DA094B1A68465D084BD318A4
:104670005C4263415B00074C1B5FB342D6D06B4684
:1046800007331E700024E5E703B0F0BD580B00208F
:104690000080FCBF680B0020F0B583B0070000204D
:1046A0000EE013682B7001340135002C03D193699F
:1046B000DB06FCD4F5E76B4607331B78037030004C
:1046C00088420ADA084A1268956910242C4004D1FD
:1046D000461C38186B46DD1DE7E7002801D003B003
:1046E000F0BD0338FBE7C046580B002070B515003D
:1046F0001C000B4B1860FDF7B7FB002D06DA002CF1
:1047000009DA01210748FFF729FF70BD02212800BF
:10471000FBF7BAFFF3E702212000FBF7B5FFF0E754
:10472000580B0020E003002010B50022022A1AD8FE
:1047300093001249595812481B58994211D101321D
:10474000F4E79A000E4950580C4950500133022B9F
:10475000F7D90C480021FDF703F8084B00221A6036
:1047600010BD0023F3E7054B00221A600648FEF750
:10477000B3FE0300002100209847C04640040020FB
:10478000F47D0010400D03005542000010B51920C3
:10479000FBF7DAFFD0231B06802292045A620548F9
:1047A000054B1860E121012300224902FFF79EFF1B
:1047B00010BDC04600400340540B0020002805D027
:1047C000D0231B06802292045A617047D0231B0617
:1047D000802292049A61F8E710B502F04DFA0123A5
:1047E0005840C0B210BD00007F230340C2095800EA
:1047F00080184001014BC0187047C0461C070020BC
:1048000010B582B001AB00221A7080325A700024B9
:1048100006E001AB185DFFF7E7FF0123C370013429
:10482000012CF6D902B010BD10B5838B3F333F2267
:104830009343022915D0124C2268C260D31823601A
:104840009C0610D10F4C6240634080246401A34257
:104850000FD88906114380231B061943436819604A
:1048600010BD5B00E7E7084B084A54210848FDF7F4
:1048700041FB084B054A56210548FDF73BFBC04666
:104880001C0B002000001050A47E0010307E001091
:10489000D47E0010347F0010F8B505000E0014001F
:1048A000FFF7A2FF7F232B40EF0985707A427A4100
:1048B00042700022C27086838477012F0DD0DA0007
:1048C00012498C4662448260826800211160002B8C
:1048D00009D143600E4BC360F8BDDA000D498C4628
:1048E00062448260F0E7012F09D0013BDB000A4AF5
:1048F0009446634443602100FFF796FFECE7013BD9
:10490000DB00064A944663444360F4E78400105099
:1049100000011050800010500C0010500800105082
:1049200010B500230E2B09D80133DA000021084806
:104930001150844662445160DBB2F3E7F0229200EA
:1049400000210448FFF71AFD034B044A1A6010BD0A
:10495000000010505C0700201C0B0020800110504C
:10496000F0B5CE46474680B583B01D4B9F6D002401
:10497000012614E04B465B0043445B01194AD318FF
:104980009A8A9978012300930023002000F04CFEBE
:10499000280000F043FAB74376000134E4B2002F58
:1049A00018D01F2C16D83E42F6D00F4B9E656308D8
:1049B00099460123634001221A4090464B465D0010
:1049C00045446D01074BED18280000F0B7FA0028A8
:1049D000E1D0CFE703B00CBC90469946F0BDC0468D
:1049E000000011501C0700200030115070B52D4AF6
:1049F0009823D558802464022C400AD1EB0616D4A3
:104A0000EB0419D46B042ED42B0438D4AC4243D11C
:104A100070BDFFF7F5FE01222349002000F0EAFDFA
:104A2000224B802292021A6580246402E6E710235A
:104A30001C43FFF795FFE3E780235B011C43194EFE
:104A400000233360FFF76CFF01220021002000F0FB
:104A5000BBFD164B802212031A65F36CDB03D1D524
:104A600002F09AF8CEE78023DB011C4301220421E7
:104A7000002000F095FD0D4B10221A65C4E780233D
:104A80001B021C4301220521002000F089FD074B79
:104A9000802212011A65B9E7210069400448FDF738
:104AA000C3FAC046000011500000105000301150F1
:104AB000747F001070B50C001500FFF795FE2A00FA
:104AC000210000F017FA70BD10B5002804D10121B3
:104AD0000520FBF76FFF10BDB921034B034A4900C6
:104AE0000348FDF707FAC046687F0010507E0010AB
:104AF000D47E001010B5002805D1002200218020AE
:104B0000FFF7D8FF10BDBF21024B034A49000348FD
:104B1000FDF7F0F9687F0010607E0010D47E001071
:104B200010B5002804D1064B80225201DA6410BD72
:104B3000C421044B044A49000448FDF7DBF9C04690
:104B400000201150687F0010707E0010D47E00108D
:104B5000024B80225202DA647047C0460020115096
:104B600070B5051E25D100F033F9154C0C23A36751
:104B700014490520FBF72EFF402200211248FFF7C1
:104B8000FDFB002240210020FFF786FE002240218D
:104B90008020FFF781FEFFF7C3FE012323648023FB
:104BA0009B05E3649023094AE2502800FFF7D0FFF9
:104BB00070BD4E21064B074AFF310748FDF79AF9B1
:104BC00000001150ED4900101C07002010D001001A
:104BD000687F0010447E0010D47E00100B785B06C6
:104BE00002D14B78052B00D070478A78014B1A60B0
:104BF000FAE7C0460000115010B50C0000280DD196
:104C000009796279072313401B021943E27892075E
:104C1000920FA078FFF740FE012010BDD621034B74
:104C2000034A49000348FDF765F9C046687F001054
:104C3000847E0010D47E001010B5FFF771FE10BD09
:104C400010B50C001100002805D11A002000FFF754
:104C500031FF012010BDBC21024B034AFF31034844
:104C6000FDF748F9687F0010947E0010D47E001094
:104C700010B54B0605D1CB09012B0BD00222064BF8
:104C80009A660800FFF7B0FD80221201002100F0B3
:104C9000CBF810BD0122F2E70020115010B54B06F1
:104CA00000D110BD0800FFF79FFD0023C370002254
:104CB000014900F0B9F8F4E7FFF7FFFFF8B5040089
:104CC0000F00438A828B1E1C934200D9161CB6B279
:104CD0009B1B63828025ED003543E378002B13D0C6
:104CE00080229201154301225340E3706378002B28
:104CF0000CD0638A002B02D18023DB011D43002FDF
:104D000000D02D042800F8BD0022EBE7B801E368CD
:104D10009C4660443200A169FFF736FBA3699C46BC
:104D20006644A66180231B021D43E2E770B50400C0
:104D300083681B68002900D01B0C9D05AD0D6278AF
:104D4000002A11D11B0409D4A38A5B19A382A38B67
:104D5000AB4201D900236382280070BD0E4B0F4A7D
:104D6000D7210F48FDF7C6F81B040ED58901E3686B
:104D70009C4661442A00A069FFF706FBA38A5B19E1
:104D8000A382A3695B19A361E1E7064B034ADE2115
:104D90000348FDF7AFF8C04624800010887F00105C
:104DA00044800010A480001010B5040083681B68C4
:104DB0000021FFF7BBFF63681B685B0002D5A38B74
:104DC000834200D010BD01212000FFF7AFFFF9E7BB
:104DD00010B580235B040C4A13600C4A13600C4B23
:104DE0009A6880235B049343F9D10A4C9C220021EA
:104DF0002000FFF7C3FA8022520100210648FFF786
:104E0000BDFA0923636710BD00E0004000F00040D8
:104E100000C0004000001150000010500023037437
:104E2000438283828361704710B5002902D0836872
:104E30001B681940002A0FD0114353050CD5826816
:104E400013685B050BD40B4B0B401360FFE7FFE7C8
:104E5000FFE7FFE7FFE7FFE78368196010BD83788E
:104E60007F211940DB099B00034A9A580348FDF74C
:104E7000DBF8C046FFFBFFFFF4030020987F001023
:104E800070B5040043681E680021FFF717FF8025F6
:104E90006D010543144B1B6C9B0704D4A378DB09FD
:104EA00014D1013300E00023628A002A01D0002BD4
:104EB0000ED00E4B1E4080239B0533436268136067
:104EC0002A0000212000FFF7AFFF70BD0023EBE7B1
:104ED00001212000FFF7F2FE0543054B1E40A023F1
:104EE000DB053343EAE7C04600001150FFFFFFAF88
:104EF000FFFFFFDF70B504000D001600037C002BE0
:104F000009D166820023A38201332374A5612000A6
:104F1000FFF7B6FF70BD83787F211940DB099B0046
:104F2000044A9A580448FFF771FB2000FFF776FF08
:104F3000E7E7C046F4030020E47F001070B50400EA
:104F4000057C002D06D0FFF72FFF638A002B08D1C8
:104F5000280070BD81787F231940044A0448FDF77A
:104F600063F82000FFF78CFF0025F1E7F403002031
:104F7000B87F001070B5050000240EE06200121921
:104F8000D100184B1B685B1802E0230010E00023DF
:104F90005B68280098470134E4B2134B1B78A342A6
:104FA0000ED3124A002AF0D0A342E7D8E31ADBB2AC
:104FB000002BECD15A00D318DA000D4B9B18E7E711
:104FC0000C4C532200212000FFF7D8F9E01C1022DE
:104FD000FF21FFF7D3F9200013302022FF21FFF734
:104FE000CDF970BD6C0500205C0B002000000000B6
:104FF000E48100103806002010B5FFF7BBFF01F078
:105000000DF810BD70B505000C001600C86801F061
:105010000FF8E368320000212800984770BD0000B7
:10502000F0B5CE46474680B583B001900139C8B28D
:10503000FBF7F6FA002802D04378022B0AD04F4A39
:105040004F495048FFF7E2FA002003B00CBC9046ED
:105050009946F0BDC5796B1101224B4C13401901E3
:1050600023781026B343AD112A4052010B4320216F
:105070008B4313432370050009358278C3781B02E4
:1050800013438046984458E0EB7899462B78ED1806
:105090005AE03E4A3A493B48FFF7B8FA0020D4E7C5
:1050A00063001B19DA003A4B1B689B1802E02300CF
:1050B00017E000239B6832002900019898470700F9
:1050C000082801D986421BD20134E4B2314B1B7847
:1050D000A3422ED3304A002AE9D0A342E0D8E31AF3
:1050E000DBB2002BE5D15A00D218D2002B4B9B1813
:1050F000E0E72B4A22492348FFF788FA0020A4E77B
:10510000002291450DD9AB789B18DBB21E49C91816
:10511000C978FF29EDD11C49CB18DC700132D2B21D
:10512000EFE7194823003A002900133001F048FB4B
:10513000ED19184B1B78A3420ED3454514D26B785A
:105140000B2BA1D0012399466B78042BA1D14346A8
:105150005E1BB6B20024B9E7F32292000849094861
:10516000FFF754FA002070E70E4B002B03D0FBF73B
:1051700085F9012069E7012067E7C0467B0300004D
:1051800084810010FC810010380600209603000086
:105190006C0500205C0B002000000000E481001082
:1051A000BD0300007D04001070B504000D008B7875
:1051B000C87800021843020AC0B20F2A55D89300DB
:1051C0003049CB589F46FBF723FA020012232900EF
:1051D000200000F0D1FE70BD2B4B002B47D000E02B
:1051E00000BF02008178C3781B020B432900200016
:1051F00000F0C2FEEFE7022A10D0244B002B38D07B
:1052000000E000BF00280CD08278C3781B02134353
:1052100002002900200000F0AFFEDCE7FBF700FAF7
:10522000F0E71B4A1B491C48FFF7F0F90020D2E7C2
:105230002B79697909021943FBF7F6F900281AD08E
:10524000037802002900200000F096FEC3E7134B0C
:10525000002B12D000E000BF002810D0037802001D
:105260002900200000F088FEB5E70020B3E7002009
:10527000B1E70020AFE70020ADE70020ABE700205A
:10528000A9E7C046C4800010000000000000000034
:105290001404000098810010FC8100100000000040
:1052A000024B5878431E9841C0B270473806002020
:1052B000024B18784007C00F7047C04638060020E0
:1052C00010B5084B1C786407E40F05D01A78182332
:1052D0001340182B02D00024200010BD0020FFF73F
:1052E0001FFCF9E738060020014B18787047C046CC
:1052F0005D0B002070B50500274B1878002800D002
:1053000070BD532200212548FFF738F8244C2000B7
:10531000FCF738FD234B1C60234C20001C30FCF7AD
:1053200057FD200001F001FB204B1C60204B002B9F
:1053300004D0204800E000BF1F4B186000240DE09F
:1053400062001219D1001C4B1B685B1802E023009D
:105350000FE000231B6898470134E4B2154B1B781B
:10536000A3420ED3124A002AF1D0A342E8D8E31A8E
:10537000DBB2002BEDD15A00D318DA000F4B9B188B
:10538000E8E72800FFF7ECFB2800FFF79DFB024B46
:1053900001221A700120B3E75D0B002038060020BF
:1053A000F00500208C060020FC0300209006002061
:1053B000000000005C0B00206C050020E481001060
:1053C00030B585B004004378032B00D18BE02DD994
:1053D000042B5FD0052B00D0B8E06D4B1B78DB07AA
:1053E00050D56B4A137804218B431370694B1D68A9
:1053F000EA69EFF3108172B61368002BFCD0BFF39B
:105400005F8F29622100280001F059FAEA692B6AAE
:10541000BFF35F8F0021116083F31088002831D122
:10542000A8225D495D48FFF7F1F82BE0022B00D080
:105430008CE0574B1A7801218A431A701A7801318F
:105440008A431A7000225A701A7802318A431A70FD
:10545000504B1D68EA69EFF3108172B61368002B98
:10546000FCD0BFF35F8F29622100280001F027FAEA
:10547000EA692B6ABFF35F8F0021116083F3108804
:10548000002801D005B030BDA82243494348FFF7AA
:10549000BDF8F7E73E4B1B78DB07F3D53C4A1378A2
:1054A00004210B4313703B4B1D68EA69EFF3108135
:1054B00072B61368002BFCD0BFF35F8F2962210006
:1054C000280001F0FCF9EA692B6ABFF35F8F002125
:1054D000116083F310880028D4D1A8222E492F48C8
:1054E000FFF794F8CEE72A4B1B785B07CAD5284A0A
:1054F000137804218B43137001AD0C220021280086
:10550000FEF73CFF23782B7005236B70214B1C6842
:10551000E269EFF3108172B61368002BFCD0BFF381
:105520005F8F216201A9200001F0C9F9E269236AB5
:10553000BFF35F8F0021116083F310880028A1D191
:10554000A82215491548FFF761F89BE7114B1D6824
:10555000EA69EFF3108172B61368002BFCD0BFF339
:105560005F8F29622100280001F0A9F9EA692B6AFE
:10557000BFF35F8F0021116083F31088002800D0F3
:1055800080E7A82204490548FFF740F87AE7C046BB
:10559000380600209006002050810010FC81001089
:1055A000F0B585B007000E00150001AC0A220021FD
:1055B0006B46981DFEF7E2FE2770667029002000FA
:1055C000FFF7FEFE05B0F0BDF0B585B007000E0098
:1055D000150001AC0A2200216B46981DFEF7CEFE95
:1055E000277001236370267129002000FFF7E8FE71
:1055F00005B0F0BDF0B585B007000E00150001AC98
:105600000A2200216B46981DFEF7B8FE277006237C
:1056100063700822310002A8FEF7B6FE29002000C0
:10562000FFF7CEFE05B0F0BDF0B5CE46474680B5DB
:1056300085B08146884617001E000CAB1D7801AC72
:10564000062200216B46981DFEF798FE4B462370FC
:105650000723637043462371A76066712900200009
:10566000FFF7AEFE05B00CBC90469946F0BD0000B9
:1056700070B506000D008B7870221A420DD10D4BCB
:105680009978280001F048F8041E0DD02900300058
:10569000FFF7B2FA0400200070BD074A0749084826
:1056A000FEF7B4FF0024F6E7064A04490448FEF773
:1056B000ADFFF0E738060020C2040000C4810010EE
:1056C000FC810010C3040000F0B5CE46474680B50B
:1056D00083B001900C0090461D000A9B994600275C
:1056E00016E0184A18491948FEF790FF00263000C6
:1056F00003B00CBC90469946F0BD154A12491348B8
:10570000FEF784FFF3E74A4613702378E418013765
:10571000B84514DD6378052BE3D1E3789B079B0F35
:10572000AB42DED121000198FFF7A2FF061EE4D0B4
:10573000A378DA09012AE6D10B9A1370E5E701266E
:10574000D5E7C0469C040000B0810010FC81001029
:105750009D04000070B57F260E40CD0972001D4BE0
:105760009B185B193033DC78E407E40F2ED1194B1A
:105770009B185B193033DB785B0728D4164B18680D
:105780000121494201F068FA7200124B9B185B1923
:105790003033DB78DB0708D40E4B9B185B193033B2
:1057A000DB785B0702D4012400E00024002C08D041
:1057B000760008498E1975193035EB7804221343A9
:1057C000EB70054B186801F027FA00E00024200078
:1057D00070BDC046380600208C060020F0B5C646D5
:1057E00000B582B001937F250D40CE096F00174CA4
:1057F000E419A4193034E478E4071DD46F00134C85
:10580000E419A4193034E3780127BC4667463B43CA
:10581000E370019BFFF714FA002813D16D000B4BC6
:105820005D19AE193036F37801229343F370F378A3
:1058300003329343F37005E0054A06490648FEF734
:10584000E5FE002002B004BC9046F0BD3806002002
:105850000A050000D4810010FC8100107F230B405A
:10586000CA095B000349C91889183031C878C007D4
:10587000C00F70473806002070B57F240C40CD095A
:1058800062000C4B9B185B193033DB789B0700D50B
:1058900070BDFFF7EDF96300064CE418641930346D
:1058A000E37802221343E370E37801221343E370A9
:1058B000EEE7C0463806002070B57F240C40CD09C5
:1058C00062000C4B9B185B193033DB789B0700D4CC
:1058D00070BDFFF7E3F96300064CE4186419303437
:1058E000E37802229343E370E378013A9343E37051
:1058F000EEE7C046380600207F230B40CA095B0054
:105900000349C91889183031C8788007C00F70471B
:1059100038060020F0B5C64600B582B004000D0080
:10592000002000F085FB2B7860221A40602A14D0FA
:10593000402A19D02B78DB06DB0ED9B2012900D121
:10594000DAE05BB2002B1DD0022900D11EE1002657
:10595000300002B004BC9046F0BDCC4ACC49CD48E2
:10596000FEF754FE0026F3E7CB4B002B00D180E17D
:10597000180000F05DFB2A000021200000E000BFBD
:105980000600E5E7202A0AD0002A00D079E16B78EA
:10599000092B00D977E19B00C04AD3589F462B7949
:1059A0000F2B00D967E1BE4AD318DB78BD4A002A25
:1059B00005D0BD4A1278934212D39B1ADBB2002B5A
:1059C00000D05AE15A00D318DA00B84989180029E2
:1059D00000D154E12A002000FFF714FB0600B7E7CE
:1059E0005A00D318DA00B24B19688918EFE728007B
:1059F00000F024FBA9782000FFF77CF8A84A137870
:105A000002210B4313700126A2E7A54B5B786A467F
:105A10000632137001232900200000F0ADFA0126A0
:105A200096E7AF789E4B5B78DBB2BB4205D09C4BD0
:105A30005B78002B09D1002F13D1994B5F7029009F
:105A4000200000F07DFA012682E72000FFF7F4F83D
:105A5000934EB37898462000FFF78CFA4346B37014
:105A6000E9E739002000FFF7DBFA061EE5D1914A8D
:105A700087498848FEF7CAFD6AE729002000FFF73A
:105A800093FB060064E7AA78EB781B021343012B13
:105A900001D000265CE7824A137808210B4313707B
:105AA0002900200000F04CFA012651E7AA78EB7893
:105AB0001B021343012B01D0002649E7784A1378D3
:105AC00008218B4313702900200000F039FA0126C9
:105AD0003EE7734B1A785109920801230B400221CB
