:020000041000EA
:1000000000B5324B212058609868022188439860DF
:10001000D860186158612E4B002199600221596106
:100020000121F02299502B49196001219960352056
:1000300000F044F80222904214D00621196600F024
:1000400034F8196E01211966002018661A6600F04E
:100050002CF8196E196E196E052000F02FF8012189
:100060000842F9D1002199601B49196000215960AB
:100070001A491B48016001219960EB211966A021F2
:10008000196600F012F800219960164914480160C1
:100090000121996001BC002800D000471248134993
:1000A000086003C880F30888084703B5996A0420EC
:1000B0000142FBD001200142F8D103BD02B5186610
:1000C0001866FFF7F2FF186E186E02BD00000240BE
:1000D000000000180000070000035F00212200005C
:1000E000F4000018222000A00001001008ED00E03C
:1000F00000000000000000000000000074B24E7A12
:1001000000200420F7010010C3010010C5010010F9
:10011000C1010010C1010010C1010010C101001097
:10012000C1010010C1010010C1010010C701001081
:10013000C1010010C1010010C9010010CB01001065
:10014000CD010010CD010010CD010010CD01001037
:10015000CD010010CD010010CD010010CD01001027
:10016000CD010010CD010010CD010010CD01001017
:10017000CD010010CD010010CD010010CD01001007
:10018000CD010010CD010010CD010010CD010010F7
:10019000CD010010CD010010CD010010CD010010E7
:1001A000CD010010CD010010CD010010CD010010D7
:1001B000CD010010CD010010CD010010CD010010C7
:1001C00000BE00BE00BE00BE00BE00BE00F04BF888
:1001D000103800BEF2EB88713CA5001064A5001039
:1001E0003402001090A31AE700202149086006C8D5
:1001F00081F3088810471F48006800282FD10DA4FC
:100200000ECC002902D000F012F8F9E71A491B4A77
:10021000002000E001C19142FCD1194988471949E9
:1002200088471949884700BEFDE701C901C29A42C3
:10023000FBD3704764A50010C0000020000C002014
:10024000B0B000100000042000000420B0B0001086
:1002500000100420001004200000000070470B482C
:1002600003F0FCF90047EFF30580C0B270470000CF
:1002700008ED00E0000000D0100C00202821002034
:10028000B5200010810600107120001057560000A4
:1002900006005250ABB360538C9C001006005250C5
:1002A000861C03029C9C0010060052505422A29D02
:1002B000B89C001005005250DE65F468B0B0001024
:1002C000F8B5C0460448054B10B5834203D0044B33
:1002D000002B00D0984710BD000C0020000C00201F
:1002E0000000000006480749091A8910CB0F591869
:1002F00010B5491003D0044B002B00D0984710BD17
:10030000000C0020000C00200000000010B5074C7D
:100310002378002B09D1FFF7D5FF054B002B02D026
:10032000044800E000BF0123237010BD100D002021
:100330000000000050890010054B10B5002B03D0C1
:100340000449054800E000BFFFF7CCFF10BDC046E0
:1003500000000000140D00205089001070B5050049
:10036000002404E00023002B14D00134E4B2052C57
:1003700029D82B1999780029F7D00023052BF1D81B
:10038000144AD2189278914202D00133DBB2F5E7D9
:100390000123E8E72A78223313405A1E9341DBB247
:1003A00049000D4A5118CE5C300004F0D7F90D2EEB
:1003B00005D00A4B1B68986807F0D6FBD5E70A20E2
:1003C00004F0CCF9F5E708222900024804F09EF871
:1003D00070BDC0465C1C00206C890010A00300208A
:1003E00070470000F0B587B005000C000092019343
:1003F0000A000100194804F03BFA03AF184B3A0019
:1004000043CB43C22100280006F00AFC060083000B
:10041000D959144804F02CFA002E07D021002800E6
:1004200006F00EFC002814D007B0F0BD0E4EE70019
:100430003B19580030180230019B009A042106F045
:1004400089FD01003B195A009055084804F010FA44
:10045000E4E7074804F0DAF9E6E7C046048B001049
:1004600050890010388B0010D81B0020588B0010CA
:10047000708B001010B50A000100024804F0F8F972
:1004800010BDC0469C8B001010B513000A0001007F
:10049000014804F0EDF910BD5C89001010B50400AE
:1004A0000378002B0BD0DA0712D54C215A0711D54F
:1004B0004D229B0710D55223084804F0D9F9032296
:1004C000A2560221615601202056FFF7DDFF10BD24
:1004D0002D21EBE72D22ECE72D23EDE7DC8A001040
:1004E00070B515001C4ACB005C1860000400805CED
:1004F0001219941C01280BD02E78002383420CD2B1
:100500009A00A2181178B14208D00133DBB2F5E7A6
:100510009378002BF0D1220001E000220135002A5F
:1005200003D05388012B04D070BD0C4804F06EF941
:10053000FAE75378022B08D0062BF5D1084804F0CF
:1005400065F92800FFF70AFFEEE7064804F05EF9B8
:100550002800FFF7A3FFE7E7D81B00206C8A0010F4
:10056000A08A0010C08A0010F8B504000D00160023
:100570001F0006F055FB012808D0022810D03B00D0
:10058000320029002000FFF7ABFF02E03000FFF748
:10059000E5FE2900200006F053FB002804D0F8BD3A
:1005A0003000FFF77BFFF4E7014804F02FF9F6E78E
:1005B000708B001010B504000100054804F058F9D4
:1005C000012340220349200006F0F4F810BDC04684
:1005D0007C8C0010641C002010B50100014804F060
:1005E00047F910BDA48C001070B50500074C200021
:1005F00004F03EF940220021200003F081FF012396
:1006000040222100280006F0D5F870BD641C0020AF
:1006100010B501F02DF900290CDB11D0FA2292005F
:10062000002303F0B1F8104B1B68C01A0F4A904228
:100630000BD810BD0E4B0F4A3F210F4801F01CFD97
:10064000FA21890003F05EF8EDE701329446634435
:10065000054A1360094C207804F0E2F9237801225E
:1006600053402370E5E7C046AC1C0020E7030000C0
:10067000EC8B0010D48B0010088C0010CB1C0020D9
:1006800010B504F0B5F9064804F0C0F807F03EF8DC
:1006900005F08CFAFFF7BCFFFFF7A2FEF8E7C046B3
:1006A000588C001070B504000D00137B002B26D170
:1006B00015490B0020330A0010320831134804F0AA
:1006C000D7F8697B200006F003FD0600697B200057
:1006D00006F00CFD040001008020400303F012F836
:1006E0000100300003F00EF80100094804F0C0F8E2
:1006F00022003100074804F0BBF8012070BD064815
:1007000004F084F80020F9E7281C0020E08C001099
:10071000F88C00100C8D0010D08C001010B5040067
:10072000044804F073F8044B044A0021200006F04A
:1007300057FD10BD348D0010A5060010281C0020A8
:1007400010B5024804F062F810BDC046588D001084
:1007500010B58300084A944663441C6840226240F6
:10076000C02414408022520113431C60C000034B7C
:100770009C466044416010BD04C0014000400140FF
:1007800010B501238340D0221206936293610521A4
:10079000FFF7DEFF10BD0000EFF3108072B6034BD1
:1007A0001B68002BFBD0BFF35F8F70472C0100D07C
:1007B000BFF35F8F024B00221A6080F310887047EE
:1007C0002C0100D070B505000E001400FFF7E4FF07
:1007D000F208AA1815780721314001238B402B42DB
:1007E00005D1DBB22B431370FFF7E2FF70BD310080
:1007F000200001F0DBFCF0B583B00700019114008C
:100800001E00FFF7C9FFB4420ED8E208BA181578E7
:100810000721214001238B402B4201D00134F2E714
:10082000DBB22B43137001E001246442FFF7C0FFE9
:10083000002C02DB200003B0F0BD019B002BF9D09F
:10084000089801F0B3FC0000034B1B68022018401D
:10085000431E9841C0B2704700C0064000231F2BC2
:1008600008D8054A9A189200BFF35F8F00211160E3
:100870000133F4E77047C04640000034054A107861
:10088000431CDBB21370172B02D9130010221A700D
:100890007047C046C802002000B583B00100044B79
:1008A00000931F2318220348FFF7A5FF03B000BDE4
:1008B0007C8D001020190020074B9B6810308000B1
:1008C0001950BFF35F8FBFF35F8F044B0021196096
:1008D00082F310887047C04600ED00E0240100D08C
:1008E00010B5091A0B1F0A4A94466144094A9142FD
:1008F00008D8DA0706D45B105B055B0D0648184381
:1009000080B210BD054B064A9921064801F0B4FBA0
:10091000FC070000FE0F000000E0FFFFA48F0010A6
:10092000B48D0010D48F001010B5091A04394C088A
:10093000090B08D14905490D064A11430180064BB0
:100940002343438010BD054B054AA121054801F012
:1009500093FBC04600F0FFFF00F8FFFF188E001069
:10096000C08D0010D48F001001238340034A10680B
:100970001840431E9841C0B27047C04600E100E0F5
:10098000002904D0034B1860034B18607047034BD9
:100990001860FBE780E200E000E100E080E100E0B9
:1009A00010B5012383401800FFF7EAFF10BD0000D7
:1009B000024B9B6810308000C058704700ED00E08B
:1009C00070B504000D00EFF3108672B60C4B1B6877
:1009D000002BFBD0BFF35F8F2000FFF7E9FF094B2F
:1009E000984201D0A84205D1320029002000FFF72B
:1009F00063FF70BD044B054A7C21054801F03CFBB8
:100A0000240100D0CD0100106C8F0010988D0010D3
:100A1000D48F0010F0B5C64600B584B001900D002B
:100A2000EFF3108672B6554B1B68002BFBD0BFF35B
:100A30005F8F534B9A68019C1034A300D758514BD9
:100A40009F4207D0AF4200D196E002974E4BFB1A6F
:100A50002F2B08D9320039000198FFF72DFF04B081
:100A600004BC9046F0BD0198FFF77EFF0390002183
:100A70000198FFF795FFBFF35F8FFFF7F4FB011EAF
:100A800001D0844211D10123029C9C430020A36821
:100A9000AB4212D00622A256002A0DDB53009B184F
:100AA0009A002000384CA418F1E72C21374B384A23
:100AB000FF31384801F0E0FA2000AB4255D106235F
:100AC000E3569846002B36DB5A00424491002E4BE9
:100AD0005B189A68A260DA79E2719B795BB2A371C4
:100AE000002B12DABD200002A08043465B00434485
:100AF0009A00254B9B18284A117899714346137028
:100B000003990198FFF74CFFA4E7201D1E4A8B189C
:100B10001A1D9B88D90A1C2907D15905491502318C
:100B200049005118FFF7DCFEDEE71C4B1C4AA721E9
:100B3000184801F0A1FA002912D100280ED0FF2395
:100B40008371184B8380144A1378A371164B0E4996
:100B5000641A644163431B0D1370D1E7094FF2E738
:100B6000201D1249FFF7E0FECAE76021104B084A3A
:100B7000FF31084801F080FA024F6BE7240100D0F2
:100B800000ED00E0CD010010CC020020408F0010ED
:100B9000E88D0010D48F0010CA1C0020EC8E0010CD
:100BA000D88D001000BDFFFFAAAA00000603002098
:100BB000648F0010F8B50400012606432D4BF31A8C
:100BC0002F2B28D8FFF74FFB00282BD0EFF31087EF
:100BD00072B6294B1B68002BFBD0BFF35F8F274DEC
:100BE00022002449521A524155432D0D6DB2244B17
:100BF0009B6880001B58B3421BD00023032B32D8C4
:100C00005A00D21891001B4A5218927952B2AA4245
:100C10001FD00133F2E7C2211A4B1B4A49001B487F
:100C200001F02AFA88211A4B174AFF31174801F0C0
:100C300023FA134B9B68174A1A50174B1A78A27164
:100C40001D70BFF35F8F0C4B00221A6087F3108872
:100C5000F8BD08495A00D618B0000818FF2686715A
:100C60000E4B8380E9E7CC210D4B074A490007482A
:100C700001F002FACC020020240100D0AAAA000050
:100C800000ED00E0048F0010FC8D0010D48F0010E8
:100C90002C8F0010CD010010CA1C002000BDFFFFEA
:100CA000388F00100022044B02E0044902C30132D5
:100CB000072AFAD97047C04600E400E080808080AF
:100CC000024B9C466144890001607047400000343B
:100CD0000A4B1A68EFF3108172B61368002BFCD030
:100CE000BFF35F8F054B1B68BFF35F8F00221A6055
:100CF00081F3108840BF002000217047A81C00200D
:100D000070B505000C00080000F0A6FD200000F002
:100D1000ADFE0849200000F0EDFDFFF7AFFD064BEA
:100D20009C466044800068602C75A400034BE5502D
:100D300070BDC04621100010400000344C1C002043
:100D400010B5002922D003681B7B99421ED8174B8F
:100D50009C466144090183689C4661440C6849686B
:100D6000002A19D003681B7B9A4215D883680F4864
:100D70008446624412019A181068536802000120E8
:100D80008B4201D80ED00020C0B210BD084B094ADA
:100D90003B21094801F070F9054B064A3B21064802
:100DA00001F06AF9A242EFD8EDE7C046FFFFFF0F5E
:100DB000CC91001074900010E492001010B500293E
:100DC0001ED0037B99421BD84B005B18033B046881
:100DD000A4466344002919D0002A1DD0914221D095
:100DE000002A25D0047BA24222D804685000801833
:100DF000033820188170197800291FD11A7010BD8E
:100E0000104B114A6821114801F036F9104B114A74
:100E10006F310E4801F030F90F4B0E4A70210B482C
:100E200001F02AF90D4B0B4A7121084801F024F911
:100E3000044B054A6821054801F01EF941701A70FB
:100E4000DDE7C04630920010349000104C92001044
:100E5000A092001040900010AC920010B8920010C8
:100E600070B506000D001400002914D0002A14D01B
:100E7000806873689847002806D022002900300057
:100E8000FFF79CFF280007E02A0021003000FFF751
:100E900095FF200000E0100070BD0800FCE7000096
:100EA00070B5CE4600B583B00500009201930AAB41
:100EB0001C780BAB1B789946002C28D003685A7B12
:100EC000944209D10123002B1BD1002C3DD12000DD
:100ED00003B004BC914670BD002C0CD01A7B944228
:100EE00009D81A6863001B19033BD3189B78002BA1
:100EF000E9D00123E7E73F4B3F4A68213F4801F033
:100F0000BBF83F4B3F4A65213F4801F0B5F8036805
:100F10009C7B002CD9D012D01A7B94420FD862004F
:100F20001219033A19688C46624451789973002962
:100F300000D1D9730023937053701370C5E72D4B04
:100F40002D4A68212D4801F097F8002C3BD02B68E2
:100F50001B7B9C4237D82D4BE3181B01AA68944693
:100F600063440099019A19605A60089A9A60099A34
:100F7000DA602E68002C2CD031D0337B9C422ED8E6
:100F800063001B19033B32689446634400229A7045
:100F90005A701A70717B22003000FFF761FF707386
:100FA000844200D093E7287D009A019B00F0EAFC80
:100FB000061E02D04B46002B17D00C9B002B00D1F5
:100FC00085E71E7083E7124B124A3B210E4801F061
:100FD00053F8114B114AA521084801F04DF8054B73
:100FE000054A6821054801F047F82868210000F00B
:100FF000F3FEE2E730920010349000104C920010A3
:10100000F8900010AC900010E4920010FFFFFF0F6A
:10101000CC91001074900010E092001054900010D9
:10102000F0B5DE4657464E464546E0B58BB00990D2
:10103000002308938200B24BD7583D0052E0B14BD9
:10104000B14A3F21B14801F017F8B14BB14A3B21F9
:10105000B14801F011F8002B01D1002A68D100211C
:10106000604600F0AFFEA04219D132687368069264
:101070000793B3689846F3689A464346002B14D00A
:10108000002C18D02B681B7B9C4214D8631EEA6886
:10109000D35C08931B0218432861002015E09F4B86
:1010A0009F4A8C219C4800F0E7FF9E4B9C4A902170
:1010B000994800F0E1FF964B9B4A4021964800F08A
:1010C000DBFF00239A46984600206B68BFF35F8FD2
:1010D00000221A6087F310884346002B31D1002884
:1010E00000D105E100F0C4FB0029A8DB00230024A7
:1010F000069307946A68EFF3108772B61368002BA3
:10110000FCD0BFF35F8F2B689C465C7B002CD8D053
:101110009BD01B7B9C4298D8844BE6183601AB6869
:101120009846464432687368121A8B41002B92DD50
:1011300032687368099800F025FC00239A469846A7
:10114000C3E7089B1B022343994651461800C0473A
:1011500006000F006A68EFF3108B72B61368002B5D
:10116000FCD0BFF35F8F002F26DB002F52DD2B69F1
:10117000002B53D04B4574D100F07AFB02000B1EBC
:1011800075DB0100180092197B41984202D804D106
:10119000914202D901225242D317002B6DDB00216C
:1011A000049101310391029451460191414600910D
:1011B0002800FFF775FE4BE02B69002BD5D04B457F
:1011C0001CD1069A079B10001900921BBB41994243
:1011D00002D804D1904202D901225242D317002BE7
:1011E00012DB0021049101310391029451460191D7
:1011F000414600912800FFF753FE29E04C4B484A36
:101200009F21454800F038FF3E4B3F4A3F213F4871
:1012100000F032FF002F01D1002EA8D12A68002C47
:1012200047D0537B9C422ED10123002B41D1D37B4D
:10123000002B44D1D473002C54D02B681B7B9C42D0
:1012400050D8013CEB689C466444237801332370FA
:1012500000232B616A68BFF35F8F13608BF31088E4
:1012600040E7334B2E4AA2212B4800F005FF254BC7
:10127000254A3F21254800F0FFFE224B224A3F210C
:10128000224800F0F9FE002C0DD0137B9C420AD8B6
:1012900063001B19033B11688C4663449B78002B49
:1012A000C3D00123C1E7234B234A6821234800F020
:1012B000E3FE234B234AF621204800F0DDFE002BFD
:1012C0000AD0117B8B4207D85900CB18033B116819
:1012D0008C4663445C70ADE7164B174A682117488B
:1012E00000F0CAFE0A4B104A40210B4800F0C4FE31
:1012F0000BB03CBC90469946A246AB46F0BDC046FA
:101300004C1C0020EC8B00101C900010088C00106E
:10131000CC91001074900010E49200102091001005
:10132000C49000103891001080900010FFFFFF0F54
:101330004491001030920010349000104C92001034
:10134000809100106490001010B50A4B5B68002B70
:1013500004D00A210848FFF7B3FC10BD054C230058
:10136000064A1021206800F04BFC03212000FFF703
:10137000C7FCEEE714030020A81C0020410D00105C
:1013800010B5064B5B68002B01D0044810BD044B20
:10139000044A5C21044800F06FFEC046140300209C
:1013A0000092001094900010E4920010F0B5D64620
:1013B0004F464646C0B588B0804616001F00109BB9
:1013C000994612AB1B789A461F236B4400221A7071
:1013D00032E0002809D042461268127B904204D8BD
:1013E000421E4146C9688A5C42E03F4B3F4A402169
:1013F0003F4800F041FE0020002B6DD05346002BEB
:101400006AD01199C84704000D0003000B4369D04E
:1014100000293FDB00F02CFA00294FDB24184D4156
:10142000A94202D804D1A04202D901246442E5179E
:10143000002D49DB26002F0043465A68EFF3108445
:1014400072B61368002BFCD0BFF35F8F1F236B4471
:101450000493002303930293119B01934B46009343
:1014600032003B004046FFF71BFD031EB1D10200D6
:1014700041464968BFF35F8F00250D6084F31088F3
:10148000002B27D01F236B441B78002BB3D11202F3
:101490001043B1E732003B00361BAF41BB4202D8DC
:1014A00004D1B24202D901267642F717002FC3DADF
:1014B000104B114A3F21114800F0DEFD0D4B0E4A42
:1014C0003F210E4800F0D8FD0A4B0B4A3F210B4844
:1014D00000F0D2FD0120404208B01CBC9046994665
:1014E000A246F0BD0020F7E7CC91001080900010DC
:1014F000E4920010EC8B00101C900010088C00107F
:1015000070B504004268EFF3108572B61368002BC3
:10151000FCD0BFF35F8FCAB22668737B9A421BD19F
:10152000012000284AD023698B422DD0090AC9B274
:10153000002A30D023681B7B9A422CD8531EE068C7
:10154000C35C8B422DD000206368BFF35F8F002205
:101550001A6085F3108870BD002A0DD0337B9A4243
:101560000AD853009B18033B3068844663449B7839
:10157000002B07D10020D4E7134B144A68211448EC
:1015800000F07AFD0120CCE78521124B124A490078
:10159000124800F071FD124B124A40210F4800F032
:1015A0006BFD1100300000F017FC0028CCD1122197
:1015B0000D4B094AFF31094800F05EFD23698B425B
:1015C000C2D100232361BFE7309200103490001095
:1015D0004C920010A4910010E0900010E4920010D2
:1015E000CC91001080900010C8910010F0B587B029
:1015F00006000F00FEF737FE00281ED106246442C5
:10160000E517A4197D41BD4202D803D1B44201D9E6
:1016100000240025002D13DB0494059500F028F923
:10162000002913DB241A8D41002D17DC14D0300063
:10163000390000F029F907B0F0BD234800F0B6FDED
:10164000224B234A3F21234800F016FD1F4B204A1E
:101650003F21204800F010FD002CE8D0FFF790FE5D
:101660000023029301931C4B0093049A059BFFF700
:101670009DFE002818DADAE7002300E00023002BA3
:10168000D5D1164B1A68EFF3108172B61368002B90
:10169000FCD0BFF35F8F114B1B68BFF35F8F00223D
:1016A0001A6081F3108820BF0499059A0C4B5B6A7D
:1016B0009A42E3D80A48806A884203D29A42DBD031
:1016C0000123DCE70123DAE728930010EC8B0010FC
:1016D0001C900010088C0010D10C0010A81C0020D9
:1016E0000040054070B504000D0000F0C1F800296D
:1016F00010DB02000B00001969418B4202D804D1B3
:10170000824202D901204042C117002908DBFFF7BD
:101710006DFF70BD054B064A3F21064800F0ACFC4A
:10172000024B034A3F21034800F0A6FCEC8B00105B
:101730001C900010088C001010B5FA2292000023B3
:10174000002102F023FEFFF7CDFF10BD70B584B07D
:1017500005000C00FFF714FE002302930193194BC0
:1017600000932A002300FFF721FE061E12DC164B11
:101770005B6A9C4209D8144A926AAA4208D29C42E7
:1017800001D0012002E0002000E0002004B070BD84
:101790000120FBE720BFFFF7F3FD3100FFF7B0FEAC
:1017A000094B5B6A9C4209D8074A926AAA4207D24F
:1017B0009C4201D00120E9E70020E7E70020E5E7AF
:1017C0000120E3E7D10C00100040054070B5EFF3B5
:1017D00005833F2018401038EFF3108472B6194B80
:1017E0001B68002BFBD0BFF35F8F012319008140E2
:1017F000154A5163154A12781500C5402B4214D082
:10180000114B5D6A8300124E9B599D4206D38300A3
:10181000104D5B598A430D490A7007E00A4A031DBF
:101820009B0099589950002300E00023BFF35F8F7D
:10183000044A0021116084F31088002B00D09847DF
:1018400070BDC046280100D000400540CC1C0020DF
:10185000B01C0020F818002010B50100024A03480F
:10186000FEF7B0FF10BDC046AC930010C91C0020AD
:10187000044B596A00E01900024B986A5B6A99426E
:10188000F9D1704700400540074B5B6A8B4204D298
:10189000054B5B6AFAE7044B5B6A8B4203D1024B50
:1018A0009B6A8342F7D370470040054070B504003F
:1018B0000D00FFF7DDFF02000B002000290080185B
:1018C00059418B4202D804D1824202D901204042C0
:1018D000C117002902DBFFF7D7FF70BD024B034A97
:1018E0003F21034800F0C8FBEC8B001078930010F8
:1018F000088C001070B504000D00EFF3108672B66E
:101900001B4B1B68002BFBD0BFF35F8F002D1CD03F
:101910002000FFF74DF8174B98420BD0190020001C
:10192000FFF74EF801212000FFF73AF80123A3400A
:10193000114A1360A400114BE550BFF35F8F0C4BAD
:1019400000221A6086F3108870BDA2000B4B0021A4
:10195000D1500122A2400A490B7893430B700549EC
:101960002000FFF757F800212000FFF719F8E4E7FF
:10197000280100D0CD17001038600540F81800206D
:10198000CC1C0020F0B5DE4600B584B00500140084
:1019900001921E000293FFF76BFF03948E4202D860
:1019A0004ED184424CD9EFF3108B72B6274B1B6893
:1019B000002BFBD0BFF35F8F254A17780124AC4082
:1019C000E3B23B431370234B5C632A1D92000199E1
:1019D000D150AA002049029850501B6A234212D1CC
:1019E0001C4B1B6C234208D00020BFF35F8F174BAA
:1019F00000221A608BF3108823E0184B184AC1218B
:101A0000184800F039FBFFF733FF8E4214D802D19B
:101A1000039B834210D80E4B1B78BB420ED00D4B5C
:101A20001C625C631F222A40012393400E4A13600C
:101A3000074B1F700120D8E70020D6E70120D4E72C
:101A4000012004B004BC9346F0BDC046280100D07C
:101A5000CC1C002000400540B01C0020D09300109A
:101A600090930010F493001080E200E010B5EFF3C3
:101A7000108472B60A4B1B68002BFBD0BFF35F8F3C
:101A800001238340074A136207490A789A430A7080
:101A9000BFF35F8F024B00221A6084F3108810BDE1
:101AA000280100D000400540CC1C002010B50029C2
:101AB0001ED0037B99421BD84B005B18033B046884
:101AC000A4466344002919D0002A1DD0914221D098
:101AD000002A25D0047BA24222D804685000801836
:101AE000033820188170197800291FD11A7010BD91
:101AF000104B114A6821114800F0BEFA104B114AF0
:101B00006F310E4800F0B8FA0F4B0E4A70210B48A7
:101B100000F0B2FA0D4B0B4A7121084800F0ACFA04
:101B2000044B054A6821054800F0A6FA41701A7076
:101B3000DDE7C04630920010409400104C92001037
:101B4000A09200104C940010AC920010B8920010BB
:101B500070B506000D001400002914D0002A14D01E
:101B6000806873689847002806D02200290030005A
:101B7000FFF79CFF280007E02A0021003000FFF754
:101B800095FF200000E0100070BD0800FCE7000099
:101B900010B50023437301338373037BC3730123A5
:101BA000027B9A4214D9002B0CD0027B934209D8B5
:101BB0005A00D218033A01688C4662440133DBB202
:101BC0005370EDE70B4B0C4A68210C4800F054FAB7
:101BD000002A09D0924207D8016853009A18033AA4
:101BE0008A180023537010BD024B034A6821034832
:101BF00000F042FA30920010409400104C92001015
:101C000010B5017342608360FFF7C2FF10BD000092
:101C100070B50400002901D1080070BD002934D03E
:101C2000037B994231D84B005B18033B0268944612
:101C300063445A78002AEFD02DD0037B9A422AD8E9
:101C400053009B18033B0068844663445D78002082
:101C50005870002925D0237B994222D84B005B186D
:101C6000033B206884466344002058702000FFF73F
:101C70006FFF060029002000FFF7CAFF02003100B5
:101C80002000FFF765FF0100C6E7094B094A6821FC
:101C9000094800F0F1F9064B064A6821064800F0B1
:101CA000EBF9034B034A6821034800F0E5F9C0460D
:101CB00030920010409400104C92001070B5050056
:101CC0000C001600002928D02DD0037B99422AD879
:101CD0004B005B18033B0268944663445A78002A21
:101CE00027D19A78002A2AD11978FFF791FF0300AB
:101CF000002E03D0EA7B002A27D1EC73002B37D1CA
:101D0000002C49D02B7B9C4246D82A6863001C19C2
:101D1000033C14190023637070BD224B224A382102
:101D2000224800F0A9F9224B224A6821224800F0FB
:101D3000A3F9224B1C4A3A211C4800F09DF9204B84
:101D4000194A3B21194800F097F9002A0AD0297B4B
:101D50008A4207D851008A18033A29688C4662449F
:101D60005470CAE7124B134A6821134800F084F9F3
:101D7000002B0BD02A7B934208D843001B18033B4F
:101D80002A689446634400229A70B9E7084B094ACE
:101D90006821094800F070F9054B064A6821064899
:101DA00000F06AF9AC94001060940010B494001034
:101DB00030920010409400104C920010F8940010E3
:101DC0002095001070B504000A00457B2900FFF73C
:101DD00075FF6073280070BD10B50400002966D03F
:101DE000437B8B420ED0002911D0037B99420ED841
:101DF0004B005B18033B0268D0188378002B0CD192
:101E0000002055E00121FFF7DDFF012050E0294BC4
:101E1000294A6821294800F02FF9002B1FD0227B86
:101E200093421CD85A00D318033B2268D218137867
:101E30008B421AD0002B1BD0227B934218D85A0019
:101E4000D318033B2268D21853788B4216D0002B4C
:101E5000F0D11B4B1B4A67211B4800F00DF9154BB5
:101E6000154A6821154800F007F94378137007E018
:101E7000104B114A6821114800F0FEF84378537066
:101E800000238370437001222000FFF717FF020038
:101E9000617B814205D02000FFF75AFE607301206C
:101EA00006E00A4B074A6D21074800F0E5F80020DC
:101EB00010BDC04630920010409400104C920010AB
:101EC000388F001074940010B49400108C9400109B
:101ED00010B50400FEF7D2FC01002000FEF7F0FE72
:101EE000FF232371BFF35F8F10BD10B50400FEF711
:101EF000C5FC01002000FEF7E3FEFF232371002351
:101F00006371BFF35F8F10BD034B9C466144890032
:101F10000160BFF35F8F70474000003410B50400CC
:101F20000120FEF7B9FC01002000FFF7EDFF10BD16
:101F300070B505000C00062000F04EFAC00021002C
:101F400001F0E0FBC60908D00E4B9E4217D87F2354
:101F5000184001303400460800E001246C62AE6293
:101F60002C3580239B011D4300232B60062000F0AD
:101F700033FA8000A101891901F0C4FB70BD00266D
:101F8000014CEBE7FEFF0000FFFF0000002909D035
:101F90000A22064B9C466044434258414000044B91
:101FA000C252704780225200F3E7C0460080FCBF57
:101FB000D01C002070B505000C00062000F00CFAC3
:101FC000002829D0164B9D4227D08022D203154BE2
:101FD0001A60154B1A60154B9B6811009943FAD192
:101FE00000212800FFF7D2FF21002800FFF7A0FF03
:101FF0002C002C34E96A60224A406E211140802274
:102000005201224311600A4B2B6380239B0123431F
:1020100010221A600323AB6470BD80221204D6E73D
:102020000080034000E0004000F0004000C000409D
:102030000103000000BEFDE703000A4A1268002AFF
:1020400008D0084A1068C318074A9A4206D3054ABE
:1020500013607047034A05491160F2E701204042CE
:10206000F7E7C046D41B00200000042028210020F0
:1020700010B5FFF7DFFF000010B582B00C001900AB
:10208000002A0CD0084B002A0BD0019200932300A9
:102090000200064802F0ECFB0120FFF7CBFF044BE7
:1020A000F1E7034AF1E7C0461896001028960010A1
:1020B000CC8C001070B52B4B2B4A1A602B4B2C4A42
:1020C0001A602C4B9A682A4B9343FAD12A4C01E0B0
:1020D00008CC9847294B9C42FAD300F0FDF8234BDB
:1020E000274A1A60234B9B68DB43DB01FAD1254B5F
:1020F00040229A675A671A67DA66234C09E0234B35
:10210000234A83212348FFF7B7FF2000FFF7E0FEB3
:102110000834214B9C4209D22368002BF5D0012BB7
:10212000EDD12000FFF7E1FE0834F2E71B4CA16877
:102130001B4DC022280002F0E9F9A560FEF793F8D4
:10214000002800D000BEFEF789FBFEF7ABFDFFF7CD
:10215000FBF8144C01E008CC9847134B9C42FAD38F
:1021600070BDC04600E00040BFCDFBFE00F0004067
:10217000FE7F3C0000C00040E80B0020F80B002070
:10218000FFFFFF0100F00140E00B002078960010F7
:102190005896001098960010E80B002000ED00E023
:1021A00000000020F80B0020000C00200FB400B548
:1021B00083B0084802F02AFB049B002B07D005A936
:1021C0000191180002F032FB034802F01FFB0120CE
:1021D000FFF730FF689600106C8B0010F0B5DE46FC
:1021E000574680B583B007000E0092460A9A934284
:1021F0004CD3190E01911B02180000930A9A002378
:1022000001F0C2FA05007B00DB199C002D4B9C46B7
:1022100064446368834200D260603B1FDBB29B462C
:10222000012B39D9C0239B012343802212011A605C
:10223000BB00254A9958002905D0506901F062FA7F
:1022400001300138FDD153465B0122685340E02242
:10225000134080225201224313605B46012B26D992
:1022600080239B012343802212011A6065602A00AB
:1022700000230098019901F087FABF00124BF85033
:10228000012003B00CBC92469B46F0BD0F4B104A98
:102290002D211048FFF7F0FE012EC3D1C0239B0172
:1022A000234303221A60A368DB07FCD5CBE7216830
:1022B000714003230B401360A3680122B2401A420D
:1022C000FAD0CDE70080004024190020F4960010D9
:1022D000E49600100897001030B583B00C2000F091
:1022E00021F9FEF7B1FA00280DD00023092B05D8FB
:1022F00099002D4A2D4888500133F7E72A4B2C4A84
:102300005A6203B030BD2B4B00229A6700F012F9DD
:10231000294B01221A60274B5B6C012BFBD1274B09
:1023200003221A60234B9B6B012BFBD101330093DB
:102330000433234A0121234800F054F80523009375
:10234000214A0121214800F04DF8214B0093002241
:1023500002210420FFF742FF1E4D00952B000022B2
:1023600001210520FFF73AFF104C009423000022C2
:1023700000210720FFF732FF0094230000220021F4
:102380000820FFF72BFF0A4B0093230000220021B7
:102390000920FFF723FF00952B00002200210620D3
:1023A000FFF71CFFADE7C04624190020006CDC02DB
:1023B0001BB70000008000403CB0004030B000403F
:1023C000002F685900800240008C864700C0024000
:1023D000001BB700405973078000014BC05870477D
:1023E00024190020F0B583B00500019114001F00EE
:1023F0000C2001F087F906003D4BE2183D4B9A4254
:1024000042D84201121A93019B1ADB001B18990152
:10241000200001F077F90200103A98235B009A42FD
:1024200038D87B1E062B3BD8089B013B062B37D8A0
:10243000089B9F423AD32309B3423DD33F04089BF4
:102440001E033E432B68002B3CDB2B4B9D424BD0A5
:1024500080214901294B1960294B1960294A92684A
:102460000B009343FAD1019B2B60A8602A1DC02367
:102470009B01134321221A602A68002AFCDAEE60CD
:1024800008221A6003B0F0BD1F4B204A11212048DA
:10249000FFF7F2FD1F4B1D4A19211D48FFF7ECFD08
:1024A0001D4B1A4A1C211A48FFF7E6FD1B4B174A21
:1024B00022211748FFF7E0FD194B144A2521144843
:1024C000FFF7DAFD2A683F231340019A9342BCD1FB
:1024D000AB681B051B0D8342B7D1EB68EE22D2021D
:1024E0001340B342B1D1CDE780218901B2E7C046A4
:1024F00080E84BD380F8A93200C0024000E00040E1
:1025000000F0004000C00040649700105897001091
:10251000C49700100C9800102898001074980010B0
:102520008C98001080239B000343014AD3627047BC
:1025300000800540064BAA2212011A602F22DA60A1
:10254000044B054A1A60024B5B68002BFBDA7047AC
:10255000004002400060024000B0FA00704710B531
:10256000002802D00B684968984710BD10B50400D8
:10257000002321680A78303AD2B2092A08D8980094
:10258000C31858004B1C23600B781B18303BF0E736
:10259000180010BDF0B5D6464F464646C0B582B0CD
:1025A00005000091904601930A9B99460B9C0C9E56
:1025B0000D9B9B070CD04E460C9B9946002C19D0C6
:1025C000013C571C305D019B0099A8473A00F5E794
:1025D0002700A246B74207D2541C019B0099202035
:1025E000A84701372200F5E754460C964E460C9B4F
:1025F0009946E3E74E460D9B9B0706D4100002B0B8
:102600001CBC90469946A246F0BD4746D31BB34238
:10261000F4D2541C019B00992020A8472200F5E722
:10262000F0B5CE4600B586B0049205930C9D0D9C86
:102630000EAE33789946109F119B129EB2071BD4A1
:10264000002B08D0F20706D54A46002A02D10C32E8
:10265000324200D0013BBC4208D21F2C06D83022A7
:102660002A550134F7E730222A550134F20703D501
:102670009C4201D21F2CF6D9F20615D5720505D45D
:10268000002C03D0BC4223D09C4221D00F9A102AA8
:102690002AD00F9A102A2FD00F9A022A34D01F2C3A
:1026A00002D830272F5501341F2C05D84A46002A5E
:1026B00030D02D272F5501340396029301940095B5
:1026C000059B049AFFF766FF06B004BC9146F0BD77
:1026D000671E002F06D00F9A102A01D03C00D5E7C4
:1026E000023CD3E73C00D1E7B206D2D41F2CD0D8AD
:1026F00078272F550134D2E7B206CDD51F2CCBD881
:1027000058272F550134CAE71F2CC8D862272F55E8
:102710000134C4E7720703D52B272F550134CBE7CB
:102720003207C9D520272F550134C5E7F0B5CE466D
:10273000474680B595B0089009910A920B931CAB5F
:1027400010CB1B7898461E9D219B9946002C03D1E7
:1027500010234A469A4391468027FF004B461F406C
:1027600018D0002C22D0002714E04A4692061BD530
:102770004121C918C9B20A39C9B27E1C0CABD9555E
:102780002900200000F0BEFFAC4210D31F2E0ED84F
:10279000370004002900200000F0B4FFCBB2092B61
:1027A000E3D83033D9B2E8E76121E2E726004B46AF
:1027B0000693209B05931F9B049303954346029326
:1027C00001960CAB00930B9B0A9A09990898FFF7A6
:1027D00027FF15B00CBC90469946F0BDF0B5DE461B
:1027E000574680B597B00A900B910C920D931E9AA4
:1027F00008921F9C20AB1B789B46229B0993239D2C
:10280000269B9A462243131E03D1103352469A4305
:1028100092468026F60053461E4006D0089A1300C2
:10282000234333D0002637001AE0370018E0524621
:10283000920621D54122D218D2B20A3AD2B27E1CD7
:102840000EABDA55099A2B000898210000F09CFF86
:10285000A5421DD812D01F2E16D8370008900C00A4
:10286000099A2B000898210000F08EFFD3B2092BA3
:10287000DDD83033DAB2E2E76122DCE7099B089A5F
:102880009342E8D9370004E0370002E0002700E077
:10289000370053460693259B0593249B0493099B7D
:1028A00003935B46029301970EAB00930D9B0C9A2A
:1028B0000B990A98FFF7B4FE17B00CBC92469B46E2
:1028C000F0BD0000F0B5D6464F464646C0B594B0C0
:1028D0000A9006910B9207931C9C08941D9D0995E4
:1028E00022002B002000290001F0DDF9002800D093
:1028F000E8E001225242D64B2000290001F0CEF937
:10290000002800D0DEE001225242D24B20002900F4
:1029100001F0AEF9002800D0D4E000220023089D89
:102920002800099C210001F0A3F9002800D0DFE075
:10293000089E099F8023DB00209A1A409046131EB0
:1029400001D106331E930C960D973A00324300D105
:10295000D5E0380D4005400DBF4A944660443A0327
:10296000120BBE4B13431D0001F0B0F9BC4ABD4B26
:1029700001F03BF9BC4ABD4B01F010F90C900D91F0
:102980000022BB4B3000290001F0FFF8B94ABA4BD6
:1029900001F02BF902000B000C980D9901F0FEF8E4
:1029A00001F0ACF9824601F091F9B44AB44B0C90B5
:1029B0000D9101F01AF90022B24B01F0EFF801F08D
:1029C0009DF90500B04AB14B0C980D9901F00DF935
:1029D0000C900D91280001F079F9AD4AAD4B01F052
:1029E00004F902000B000C980D9901F0CEF80200DA
:1029F0000B000E900F9101F0F8F810901191A64B7A
:102A00009C4665442B050D9300230C930E9C0F9D53
:102A100022002B002000290001F0C0F80E900F9139
:102A200022002B0000208021C90501F0AEF8129091
:102A300013910022994B109C119D2000290001F058
:102A4000B6F80022964B01F0A9F802000B00200016
:102A5000290001F0ACF80022924B01F09FF802002F
:102A60000B002000290001F0A2F802000B001298D0
:102A7000139901F093F802000B000E980F9901F0E2
:102A800096F80022754B01F089F80C9A0D9B01F025
:102A9000ACF802000B000C920D9332003B000400D6
:102AA0000D0001F0FBF800282BD001235B429C466F
:102AB000E24400227A4B2000290001F078F80C90C3
:102AC0000D911EE0209B04931F9B03931E9B02937A
:102AD000089A099B00920193079B0B9A06990A9802
:102AE00000F0F4F814B01CBC90469946A246F0BD24
:102AF0002E0080231B069C46644427001AE700230F
:102B00009A4653466333C62B21D80425209B1B05C8
:102B100029D50C9A0D9B1900114310D0624A634BC2
:102B20003000390001F0B2F8002800D182E0002224
:102B30005F4B3000390001F09BF800287AD01E9BD3
:102B4000534506DD52469C1A631E1E9303E005257D
:102B5000DCE700231E938023DB00209A1A43209297
:102B6000002500239A461F9B9D426DD25B1B994610
:102B70000223209A1A40904603D0002D01D0002352
:102B800099465346002B07D00C9A0D9B3000390014
:102B900001F00DF806000F000022002308980999A3
:102BA00001F066F8002800D086E0424B209A1340DE
:102BB00004934B4603931E9B029300960197079B39
:102BC0000B9A06990A9800F081F8002D00D189E748
:102BD000209B9B0675D54526471C079B020006993E
:102BE00030000A9EB0475046C21783185340052252
:102BF0000592013D0495002203920A320292C40F0D
:102C000001940093079B3A0006993000FFF78EFD70
:102C10004346002B00D165E702000A9E0B9C1F9DD6
:102C2000131BAB424FD2571C079B06992020B0477D
:102C30003A00F5E71E9B002B95D04346002B92D01F
:102C40001E9B013B1E938EE70023994690E7C046EA
:102C5000FFFFEF7FFFFFEFFF01FCFFFF0000F03FF2
:102C6000FB799F501344D33FB3C8608B288AC63F7B
:102C70000000F83F61436F63A787D23F71A37909D2
:102C80004F930A400000E03F1655B5BBB16B0240C0
:102C9000EF39FAFE422EE63FFF03000000002C4011
:102CA00000002440000018402D431CEBE2361A3F80
:102CB00080842E41FFF7FFFF802109067B181F004B
:102CC00073E7652688E710000CE7C046F0B5D646E6
:102CD000474680B597B00690079108920993209FC8
:102CE0001E9A1F9B1000190000F0DDFF002839D14B
:102CF00001225242BC4B1E981F9900F0B9FF0028D8
:102D00003FD101225242B94B1E981F9900F0C6FFD5
:102D1000002845D10022B64B1E981F9900F0BEFF37
:102D2000002856D10022B34B1E981F9900F0A0FF37
:102D300000284ED1002200231E981F9900F098FF12
:102D4000002856D100239A46229B5B055CD50026BD
:102D50001F2E5BD8092F59D90EAB30229A55013F4F
:102D60000136F5E7229B0393219B029303230193F2
:102D7000A14B0093099B089A07990698FFF70AFC54
:102D800003E1229B0393219B0293042301939B4B1A
:102D90000093099B089A07990698FFF7FBFBF4E05C
:102DA0000423229A134010D0954A002B0FD00423FD
:102DB000229903912199029101930092099B089A0B
:102DC00007990698FFF7E6FBDFE08E4AEDE703235D
:102DD000EEE7229B0493219B039302971E9B1F9C6B
:102DE00000930194099B089A07990698FFF76AFDDA
:102DF000CBE01E9A1F9B0020002100F0C6FE1E9013
:102E00001F9101239A469FE70627A0E71E981F9966
:102E100000F074FF040000F059FF02000B001E9840
:102E20001F9900F0B2FEFA00774B9B181A685B6896
:102E30000C920D9300F0D9FE0A900B9100F082FFE6
:102E4000050000F03FFF02000B000A980B9900F00C
:102E50009CFE0A900B9100226C4B00F01FFF002893
:102E60002CD00135280000F02DFF02000B000C983B
:102E70000D9900F003FF002801D001340025002F38
:102E80002AD1200000F022FF02000B001E981F999B
:102E900000F07BFE00225D4B0A900B9100F0E8FEF3
:102EA000002844D10022594B0A980B9900F0F6FEF5
:102EB00000283CD1E3073AD5013438E00022534BD7
:102EC0000A980B9900F0D4FE0028D8D1002D01D02B
:102ED000EB07D4D50135D2E70A941F2E11D8013F54
:102EE0000A21280000F00EFC741C30310EAB9955FD
:102EF0000A21280000F006FC092D0ED90500260045
:102F0000EBE70A9C1F2E0CD87B1E002F09D00EAABF
:102F1000302191551F000136F4E7A0460A9C464631
:102F2000F0E71F2E03D80EAB2E229A5501361F2E26
:102F300010D80A21200000F0BDFB751C30310EAB0B
:102F400099550A21200000F0B5FB041E01D02E0087
:102F5000EDE72E000323229A1340012B1AD01F2ED7
:102F600006D85346002B2FD00EAB2D229A55013692
:102F7000229B0393219B029301960EAB0093099B26
:102F8000089A07990698FFF705FB17B00CBC904606
:102F90009A46F0BD219B002B0AD05346002B02D14C
:102FA0000C3313420ED0219B013B2193190000E00A
:102FB00021998E42D3D21F2ED1D80EAB30229A55F2
:102FC0000136F6E72199F4E7229B5B0704D50EABA7
:102FD0002B229A550136CBE7229B1B07C8D50EAB97
:102FE00020229A550136C3E7FFFFEFFFFFFFEF7F77
:102FF00065CDCD4165CDCDC1949A0010989A001051
:103000008C9A0010889A0010A09A00100000E03FEF
:10301000F0B5DE4657464E464546E0B593B083468A
:103020000B910A921193002900D1E6E200275C4639
:10303000119B1878002800D1E2E2252809D07D1CD8
:103040000A9B3A000B99A047119B013311932F0063
:10305000EEE70133119300261DE00B00303BDBB29D
:10306000092B37D92A293AD000239B46119B1A787D
:103070002E2A44D000239846119A1378683BD9B27F
:10308000122900D980E08B00CB49CB589F46012301
:103090001E4301321192119A11780B00203BD8B2D5
:1030A0001028DAD88300C548C3589F4602231E4320
:1030B00001321192EFE704231E4301321192EAE735
:1030C00008231E4301321192E5E710231E4301320B
:1030D0001192E0E711A8FFF749FA8346C6E71C9B67
:1030E0001A1D1C921B68002B04DB9B46119B0133AD
:1030F0001193BBE7022216435B429B46F6E7802210
:10310000D20016435A1C11925A781300303BDBB29E
:10311000092B04D92A2A07D000239846ACE711A826
:10312000FFF724FA8046A7E71C9B1A1D1C921B6818
:10313000002B04DB9846119B013311939CE700237D
:10314000F8E780235B003343511C119152786C2ABD
:1031500001D01E0018E0C0239B001E4301311191D5
:1031600012E080233343511C11915278682A01D018
:103170001E0009E0C0231E430131119104E08023A9
:103180005B001E4301321192119B18780300253B0E
:10319000DAB2532A00D926E29300894AD3589F46CF
:1031A00080239B001E4301321192EDE780235B00D8
:1031B0001E4301321192E7E7782809D0582838D009
:1031C0006F2838D0622838D010239E430A2500E0AB
:1031D0001025582833D0692803D0642801D00C2248
:1031E0009643730501D50122964369282AD06428A5
:1031F00028D0B30500D59FE0F30500D5B8E07306ED
:1032000000D4CAE01C9A111D1C911168FF220A40CB
:1032100005965B460493434603930295002301936E
:1032200000920A9B3A000B992000FFF77FFA0700F3
:1032300027E01025CDE70825CBE70225C9E72022A6
:103240001643C8E7B30520D4F30550D4730666D5FA
:103250001C9A111D1C911168FF220A40D317D11826
:10326000594005965B460493434603930295D20F5B
:10327000019200910A9B3A000B992000FFF756FA41
:103280000700119B01331193D2E61C9BDA1D072125
:103290008A43110008311C91116853689C46DB1762
:1032A0000C930D930C9A0D9B100048400E906246B3
:1032B00053400F930E980F990C9A0D9B801A9941C9
:1032C0000E900F9108965B4607934346069304952C
:1032D000002305936346DA0F0292009001910A9B46
:1032E0003A000B992000FFF779FA0700C9E71C9A0A
:1032F000111D1C911268D317D118594005965B46D1
:103300000493434603930295D20F019200910A9BC6
:103310003A000B992000FFF709FA0700B1E73306DE
:1033200005D51C9A111D1C910023D25E96E71C9AAC
:10333000111D1C91126891E71C9BDA1D07218A431D
:10334000110008311C9108965B460793434606938B
:103350000495002305930293536812680092019329
:103360000A9B3A000B992000FFF738FA070088E71C
:103370001C9A111D1C9105965B46049343460393CA
:10338000029500230193136800930A9B3A000B995E
:103390002000FFF7CBF9070073E7330606D51C9A28
:1033A000111D1C9112681204120C31E71C9A111D98
:1033B0001C9112682CE7C046A8980010F4980010E1
:1033C0003899001046281AD01C9B073307229343D4
:1033D0001A0008321C9204965A4603924246029200
:1033E0001A685B68009201930A9B3A000B992000CF
:1033F000FFF76CFC0700119B0133119318E62023A3
:103400001E43E1E7672801D0472802D180231B0132
:103410001E43452801D0472801D120231E431C9B71
:103420000733072293431A0008321C9204965A4627
:103430000392424602921A685B68009201930A9BCB
:103440003A000B992000FFF73DFA0700119B01336A
:103450001193EDE5022333409A461ED001261C9BB2
:103460001A1D1C927D1C18780A9B3A000B99A047E4
:103470005346002B15D1119B013311932F00D7E533
:10348000551C0A9B0B992020A04733002A005E1C84
:103490009F42F5D8BB461700E1E701233A005F469B
:1034A000F5E72A00A0465C4606E0571C0A9B0B99EC
:1034B0002020C0472E003A00751CB442F5D81500F4
:1034C0004446D8E71C9B1A1D1C921B689A4643462B
:1034D000002B00D1013B55462A78002A05D05A1E00
:1034E000002B02D001351300F6E75346ED1A802376
:1034F000DB003340994602D0454500D945460223BA
:103500003340109308D03A00564629004D46230018
:103510004446984689461FE03A0023005C469B4695
:1035200006E0571C0A9B0B992020D84735003A002B
:103530006E1CAC42F5D835005B46A34656462900C2
:103540004D4644469846894606E01C000136571C05
:103550000A9B0B99C0473A003078002804D0002D10
:10356000F4D0631E002CF0D117004D464446109B4A
:10357000002B03D1119B0133119359E55C4606E002
:10358000571C0A9B0B992020C04735003A006E1C3F
:10359000AC42F5D817004446ECE7212333431C9A8C
:1035A000111D1C9112680092059308230493434651
:1035B000039310230293002301930A9B3A000B9973
:1035C0002000FFF7B3F80700119B013311932FE59B
:1035D0007D1C0A9B3A000B992520A047119B0133C3
:1035E00011932F0024E57D1C0A9B3A000B99A047FC
:1035F000119B013311932F001AE50B4B9B4615E5E8
:10360000A3460A9B9F420CD35A1E0A9B0B9900208B
:10361000D847380013B03CBC90469946A246AB460A
:10362000F0BD3A00F1E7C0465D25001000B585B059
:10363000029003910121009313004A4202A902481B
:10364000FFF7E6FC05B000BD5F250010014804212E
:10365000014B1847400300207D36001010B50100D3
:1036600018231B8814221088984710BD10B501003C
:1036700018231B8816221088984710BDF0B5C6463F
:1036800000B507000E0000250123984600E0013533
:10369000B5420AD2AC003C192068FFF7DFFF20607A
:1036A0000028F4D100239846F1E7404604BC904638
:1036B000F0BD0000124A936F9B0815D29066D16648
:1036C000002905D0FFE7FFE7FFE7516F106F704754
:1036D00004B580210906C2175140002800D0C84314
:1036E00005F016F9002104BDF0B5146E556E576F44
:1036F000166FFFF7E3FF1466556657671667F0BD50
:10370000000000D0114A936F9B0813D210665166D7
:10371000002905D0FFE7FFE7FFE7516F106F704703
:1037200004B5002801D00020C04305F0F1F80021C5
:1037300004BDC046F0B5146E556E576F166FFFF797
:10374000E5FF1466556657671667F0BD000000D0A8
:1037500094464E4A926F9208624601D230E0C046CB
:10376000F0B54A4EB56F6D08FCD3346E756E776F49
:10377000366F00F025F89446444A1466556657673C
:1037800016676246F0BDC0469446404A926F920862
:10379000624601D258E0C046F0B53C4EB56F6D08A8
:1037A000FCD3346E756E776F366F00F04DF894462B
:1037B000364A14665566576716676246F0BDC046BE
:1037C000002B24DB11D000293EDA00B5C94340426A
:1037D00000D1013100F038F8C943404200D1013135
:1037E000DB43524200D1013300BD002AEBD1002857
:1037F00001D1002905D00020C90FC90701D1C0435C
:10380000410800B505F07CF80022002300BD00B59A
:1038100000290ADBDB43524200D1013300F014F8E7
:10382000C943404200D1013100BDC943404200D1EB
:103830000131DB43524200D1013300F005F8DB4394
:10384000524200D1013300BD002923D1002B18D1F1
:10385000002A0CD0BC460D4F38667A660021002342
:10386000FFE7FFE7FFE77A6F386F6746704700288A
:1038700001D00748010000B505F042F800220023FE
:1038800000BD02000B00002000217047000000D0A6
:10389000FFFFFFFF002B00D0BFE0130C28D1002A50
:1038A000E7D080B4114F39667A66FFE7FFE730B49E
:1038B000040C7B6F396F1B0423433B667A66FFE77A
:1038C000FFE7FFE7C04684B27B6F3D6F1B042343D5
:1038D0003B667A66FFE7FFE7C04600232C042D0C09
:1038E0007A6F386F00196941B0BC7047000000D092
:1038F000F0B594460025140E01D112020835140FBC
:1039000001D112010435940F01D192000235D40F78
:1039100001D152000135D40B0134254F7C66254C72
:103920003C660E0C93B2FFE7FFE7FFE73C6F664390
:10393000360C7703BE467343DF0B5B04C01AB941F4
:10394000130C7343DB18C91ACE086643360CB64411
:1039500093B273431F0F1B01C01AB941130C734379
:103960001F0B1B05C01AB941860D8F023E436643EB
:10397000360C092D24DB520A7243801A7703460A5B
:103980006643360C16235B1BDE40DF40BF196446DE
:103990006643821B7046043506330100D940A840B7
:1039A000C01900D30131A24206D20023F0BD0000AD
:1039B000000000D0FFFFFFFF121B0130F3D3F1E73F
:1039C00009277F1BFE406446A2B27243801A00D2D0
:1039D0000139220C7243130C1204821A99410B0014
:1039E0007046043513370100F940A840801900D310
:1039F0000131002B02D1A2420AD2F0BD013000D326
:103A00000131121BFAD2013BF8D1A24200D2F0BD23
:103A1000013000D30131121BF7E7F0B51C0C00D0C8
:103A200080E00CB400251C0A04D11B02160E33439F
:103A3000120208351C0B04D11B01160F334312016F
:103A400004359C0B04D19B00960F33439200023542
:103A5000DC0B02D192185B4101351C0097186441C0
:103A60000134464F7C66464C3C660E0CFFE7FFE790
:103A7000FFE7C0463C6F6643360C7703BE4697B2FD
:103A80007743C01B00D20139C01B00D201399FB25D
:103A90007743C91BC91B170C77437E04FF0B801BA0
:103AA000B941CE086643360C0C2D33DBB644120BFD
:103AB0001F053A431B0B97B27743C01B00D2013955
:103AC0009FB27743C91B170C77433E043F0C801B02
:103AD000B941860D8F023E43664329277F1BFE4076
:103AE0000C3D7746AF40BF1930BCA2B2ABB27243B7
:103AF0007343801A9941220C7243130C1204801AEA
:103B0000994102000B000137001BA941F9D2781E30
:103B10000021F0BD0C277F1BFE4077467F0BAF4096
:103B2000FF19E0E700245D1C07D0144F7D6639665D
:103B3000FFE7FFE7FFE7FFE73C6F95B29EB2654303
:103B40006643401BB141150C1E0C654366433604A9
:103B50002F0C3E432D04401BB141994204D2020078
:103B60000B0020000021F0BD01D19042F7D3801A54
:103B7000994101349942F2D3F6E70000000000D0E9
:103B8000FFFFFFFF48404140484018B41B4B5B68B3
:103B9000FC46019308BD04DF5F3E001018B4174BCC
:103BA0001B68FC46019308BD00DF693E0010944687
:103BB000134A926F920809D2624618B40F4BDB6821
:103BC000FC46019308BD0CDF214100100C4AF0B502
:103BD000146E556E576F166F6246FFF7EEFF084A78
:103BE0001466556657671667F0BD18B4034B9B689B
:103BF000FC46019308BD08DFC53F0010D41C00201F
:103C0000000000D0FFB550404240504059404B406A
:103C1000594000E0FFB5154F4C00640D03D0BC4285
:103C200004D10C0314D80020090D09055C00640DB3
:103C300003D0BC4204D11C030AD800221B0D1B0573
:103C400001264B4009D44B4003D58B4200D1824220
:103C5000FFBD9942FCD19042FFBD0B43DB180343EB
:103C60001343F5D0C9434918FFBD0000FF0700000A
:103C700000B5FFF7CFFF804100BDC04600B5FFF79C
:103C8000C9FF01D9002000BD012000BD00B5FFF72C
:103C9000B9FF01D9002000BD012000BD00B5FFF72C
:103CA000B1FF804100BD012040054A00121804D830
:103CB0005A00121801D800207047012070470020D8
:103CC000704700000021002805D17047C117484007
:103CD000401AFAD0C90713B5064B1B6898470CBCAD
:103CE000441CA2401005120B0349091B0905194386
:103CF000114310BDA41C00201F04000010B54C008F
:103D0000620D8023D218DB00D21A5B057E2A10DDFB
:103D10009E3A13DACC170903490819435242D1409D
:103D2000640001341532202A05DAD040084360438C
:103D300010BD002010BD0846604310BDC80FC0185C
:103D4000013810BD18B4044B5B6AFC46019308BDF2
:103D500024DFD14200100000D41C002070B51323D2
:103D60001C78012C0CD0012C13DC022C02DC1F4A25
:103D70001F4B9A641F48FFF771FC1F4B186070BD02
:103D800000231F2BEFD899001848194A8850013397
:103D9000F7E71A48FFF76AFC05001948FFF766FCC9
:103DA000023803789B007F2B19DD80222900104800
:103DB00000F0ACFB022CD8D1124B1A88B5231B02A1
:103DC0009A4209D1104B1A88104B9A4204D1104BD9
:103DD0001A88104B9A42C8D00020FEF7E7F90E4B24
:103DE0000E4A32210E48FEF747F9C046253E001024
:103DF000D41C00204C330000A41C002053440000BD
:103E00005346000054380000D838000049460000EE
:103E10009C38000059460000F09A0010A49B001046
:103E2000509B001007B56046002800D100BE0188F5
:103E30000A0A0230DF2AFAD1C9B2820804D3028802
:103E400040880004104300E00068024A505003908C
:103E500007BD0000D41C00200FB403BC0CBCF0B59F
:103E60000124E407634000E0F0B50C0DCF0F661E9F
:103E70003605891B640503D3C943404200D3013191
:103E8000640D03D0661CF60A07D0E41B00207F00F7
:103E9000791C89078912803C24031D0DDF0F6E1EDB
:103EA00036059B1B6D0503D3DB43524200D3013320
:103EB0006D0D03D06E1CF60A07D0ED1B00227F00AB
:103EC0007B1C9B079B12803D2D032F1B661B58D428
:103ED000A446202E46DA20371400BC401D00BD4009
:103EE000F24033412A4380185941CB0F05D0C943D2
:103EF000C043002264425041514162464D0D28D1D9
:103F00000D0D07D100281FD0241940414941013A25
:103F10000D0DF9D0640006D3013000D30131002C1F
:103F200001D140084000013A0BD4941CE40A04D1AA
:103F300012051144DB071944F0BDD907204B194382
:103F400000E0D9070020F0BD0029DDD1002CDBD135
:103F5000F0BD0132C6074008CD0728434908002EAE
:103F6000E1D0D9E73C2E29DA203E40371400BC408E
:103F700000D00124F24014431A00BB401C43D31765
:103F8000ACE7AC46202F08DA20360400B4400D0020
:103F9000B540F84039412843A5E73C2F0CDA203FD3
:103FA00040360400B44000D00124F8400443080027
:103FB000B1400C43C117EAE710001900002494E750
:103FC0000000F07FF0B50C0D661E3605891BE60A71
:103FD0006405640D02D0651CED0A04D000200121A7
:103FE0000905803C2403A4461C0D671E3F05DB1B0E
:103FF000E70A6405640D02D0651CED0A04D00022B6
:1040000001231B05803C24037740644497B484B2A9
:1040100096B27443070C7E43150C6F4380B268431D
:10402000361802D3012000043F183004350C001963
:104030007D41844688B29AB250430C0C62431F0CF7
:104040007C438EB27E43921902D301263604A41912
:104050001604170C3618674101BC81B29AB251435D
:10406000040C62431B0C5C4380B25843121802D309
:104070000120000424181004130C401863412D186B
:104080005E410020474106BC88B293B258430C0CF5
:104090006343120C544389B251435B1802D301218C
:1040A0000904641819041A0C091862416D18564164
:1040B0000020474118BCF902720D1143F0026A0D4D
:1040C0001043ED020A0D03D16D1940414941013BF6
:1040D000124E9B1B7600B3420ED26D0007D3013007
:1040E000002671416646354301D1400840001B055A
:1040F000C918E4072144F0BD0BDA013306D10130C1
:1041000004D101314F0D01D04908F2E7E107002049
:10411000F0BD013631050020EBE70000FF03000091
:10412000F0B51C0D671E3F05DB1BE70A6405640D37
:1041300002D0661CF60A04D0002201231B05803C35
:104140002403D0252D060026F6432E661E096E6632
:10415000CE0FF619B44649004F0D02D07E1CF60A68
:1041600003D000200021403F3F033E1BB600B44473
:10417000013F7F05C91B49082E6F013676089C0256
:10418000950D25437543ED137543AD1301356D1042
:10419000F603761B0CB4CC02450D2C43A2B2B3B28D
:1041A0005A43270C7B43350C6F43A4B26C431B1955
:1041B00002D3012424043F191C041D0CA4187D41C2
:1041C00024196D41009A91B2ACB26143170C7C4343
:1041D0002B0C5F4392B25A43A41802D3012212045B
:1041E000BF182204230C52187B41019C6C431B19FD
:1041F000520ED9010A434401A01A81B2B2B251430E
:1042000003145A43360C734387B27743D617D21937
:1042100000277E4136049B191704160C7F185E4157
:104220007316ED18F301002680337541A90F06D1EE
:104230006400690AE8055B0A184309D22FE00422EA
:10424000944480337541A90AA8059B0A184326D3D4
:10425000404149412404009A019B0D005543641BD1
:104260004343E41A95B286B27543170C7E43030CA0
:104270005F4392B25A43B61802D301221204BF1808
:104280003204330C52197B4152429C41002C02D41F
:104290000022013051414008CA071043490802B0CA
:1042A0006246D7079210084BD218084B9A4203D2A5
:1042B00012058918C919F0BD0020002A01DC390057
:1042C000F0BD01331905F5E7FD030000FE0700000E
:1042D000002200B5203200F004F8080000BD000004
:1042E00000220B150AD410B5944600F031F81414CE
:1042F000013400DA0021CB17144C204700200021A4
:1043000070476244343A0CD40C2A07DA0400914016
:10431000904052422032D440214310BDD843D9436B
:1043200010BD203207D40C46944052422032114135
:10433000D040204310BD0800C917203203D4524298
:104340002032104110BD1800190010BD03430010A9
:104350000A0DCC0F531E1B05C91A520503D3C943BE
:10436000404200D30131520D03D0531CDB0A07D069
:10437000121B00206400611C89078912803A120315
:10438000014BD21A70470000FF0300005143434322
:10439000C9188C46110C83B24B4310B4040C614312
:1043A00092B280B2504362431C041B0C001910BC33
:1043B00059411304120CC018514161447047000068
:1043C00070B513231D782A48FFF750F90400012D1A
:1043D00011D0012D09DDA31E1B789B007F2B40DD32
:1043E00080222100234800F091F82348FFF736F996
:1043F000224B186070BD542201001E4800F086F860
:104400001F4B1A881F4B9A421CD1A7239B011A8865
:104410001D4B9A4216D11D4B1A881D4B9A4211D141
:104420001C4B1A8894239B019A420BD11A4B1A8871
:104430001A4B9A4206D11A4B1A681A4B9A4201D16A
:10444000152307E01848FDF7B1FE99001748094AFF
:10445000885001331F2BF8D9144A064B1A62DA61CF
:10446000B7E7134B134A42211348FDF705FEC04638
:1044700053460000D41D00204C330000A41C002033
:10448000EE290000C40F0000C20D0000962B0000B2
:10449000C0B50000182B0000CC2A000010B50000A9
:1044A000FC2C000051ED8764CC8C0010BD44001042
:1044B000B89B00103C9C0010EC9B001007B56046B8
:1044C000002800D100BE01880A0A0230DF2AFAD192
:1044D000C9B2820804D3028840880004104300E077
:1044E0000068024A5050039007BD0000D41D002010
:1044F00001480421014B1847500300207D3600106D
:10450000014B1B681847000050030020014B5B68FB
:10451000184700005003002010B50C00036811007C
:104520002000984710BD0000F8B507000D001600E8
:10453000437C002B02D0002400200CE00368110013
:10454000280098472DE03B7C10E0022115483B688D
:104550009847601C0134B44214DA002CF3DD2B19A7
:10456000013B1B780D3B5A425341DBB22A5D0A2ABC
:10457000F0D1002BEED1A042E7DA211A28183B68CF
:104580009847E2E7B04203DA311A28183B689847A7
:10459000002E06DDAD19013D2B780D3B5A425341EB
:1045A0003B74F8BDC49C001070B505000368002B77
:1045B00016D00C4B1C6805E0290004C92000FFF749
:1045C000B3FFE468002C09D02368002BF9D0064B18
:1045D0001B68002BF0D0A342F3D1EDE700232B6042
:1045E00070BDC0468C190020D01B002070B505009E
:1045F0000C000B68802B05D023685A1C2260E4183D
:10460000257170BD0800FFF7CFFFF5E7F0B583B067
:1046100005000C001700019327E0B368002B04D0BD
:10462000210028009847002826DCF668002E06D0D6
:10463000124B1B68002BF0D0B342F6D1EDE7019A84
:104640000F4B5B6A9A4209D80D48806AB8420FD274
:104650009A4201D0012302E0002300E00023002B56
:1046600008D101200021FDF721F9064B1E68DDE786
:104670000123F4E70120404203B0F0BDD01B00202D
:10468000004005408C19002010B582B0D0231B06D5
:1046900000241C5701A9074804F042F9002806D15C
:1046A000019B9C4203D0034804F04AF9012002B068
:1046B00010BDC046E00B002010B5024804F018F908
:1046C00010BDC046E00B0020F0B5C64600B584B072
:1046D00001900D0016001C00FFF7D6FF80466B1CF2
:1046E00005D0002C08D0194F194B1C6807E0019821
:1046F00004F012F80500F4E7164FF5E7E468002C23
:1047000016D02368002BF9D0134B1B68002B01D067
:10471000A342F3D12A0001992000B847002EEDD022
:1047200002ABD91D0A230B7001222000B847E5E730
:104730004346002B06D1681E8541E8B204B004BC94
:104740009046F0BDFFF7B8FFF5E7C04619450010E9
:104750008C19002029450010D01B002010B582B014
:1047600004006B46D81D0470002300220121FFF7CE
:10477000ABFF200002B010BD10B50C0011000028E6
:1047800006D1054B1A685B682000FFF73FFF10BD9C
:1047900001204042FBE7C0462892001070B50D0092
:1047A00014000138012807D8002300222100280026
:1047B000FFF78AFF200070BD01204042FBE70000A8
:1047C000094A1368002B0BD0834202D00C331A0025
:1047D000F7E7002907D1C36813600023C36002E034
:1047E000002900D0106070478C19002010B5064BCE
:1047F0001C6800E0E468002C04D06368002BF9D04A
:104800009847F7E710BDC0468C19002070B5050029
:1048100003F082FF04000023012201002800FFF7BB
:1048200053FFFFF7E3FF200070BD000070B5A2B09A
:1048300004000E00FFF728FF05008422002101A8D4
:10484000FFF75EFE3300220001A90848FEF7EEFEE6
:10485000040001A8FFF7A8FEFFF7C8FF002D02D152
:10486000200022B070BDFFF727FFF9E7ED450010EB
:104870000FB400B583B004A901C90191FFF7D6FFB9
:1048800003B008BC04B01847F0B583B000251AE0A7
:104890006B4607330D241C70002403E01F7817605B
:1048A00001340133002C1CD19769BF06FCD4F5E715
:1048B0001E78166001340133002C03D19669B606C8
:1048C000FCD4F5E701358D4210DA094B1A68465DD4
:1048D000084BD3185C4263415B00074C1B5FB3423B
:1048E000D6D06B4607331E700024E5E703B0F0BD59
:1048F000C41C00200080FCBFD01C0020F0B583B099
:10490000070000200EE013682B7001340135002CE5
:1049100003D19369DB06FCD4F5E76B4607331B78BC
:104920000370300088420ADA084A12689569102438
:104930002C4004D1461C38186B46DD1DE7E70028E3
:1049400001D003B0F0BD0338FBE7C046C41C002013
:1049500070B515001C000B4B1860FDF72BFB002DEC
:1049600006DA002C09DA01210748FFF729FF70BD9C
:1049700002212800FBF7ECFEF3E702212000FBF701
:10498000E7FEF0E7C41C00206003002010B5002201
:10499000022A1AD893001249595812481B589942B2
:1049A00011D10132F4E79A000E4950580C49505089
:1049B0000133022BF7D90C480021FCF777FF084B95
:1049C00000221A6010BD0023F3E7054B00221A6095
:1049D0000648FEF743FE0300002100209847C0462A
:1049E000000C0020D49C0010400D03005542000034
:1049F00010B51920FBF7C4FED0231B0680229204B9
:104A00005A620548054B1860E12101230022490242
:104A1000FFF79EFF10BDC04600400340C01C0020B1
:104A2000002805D0D0231B06802292045A617047CB
:104A3000D0231B06802292049A61F8E770B5060025
:104A40004B0617D0012300E001330F2B10D8DA00FA
:104A5000D418A000084C0019D21895002A5D002A2D
:104A6000F2D0C27FB242EFD182788A42ECD100E02C
:104A7000002070BD0048FCE79019002010B501230C
:104A800000200F2B0FD8DA00D118880006494018F3
:104A9000D2189400625C002A01D00133F1E7591E5C
:104AA00003002033197010BD9019002010B50328A1
:104AB00007D01248124B8360124B4360124BC36005
:104AC00010BDFFF7DBFF002810D02023C35CDA0005
:104AD0000E49511881600E498C466244426002338F
:104AE0009B01094A94466344C360E9E70C21094BE2
:104AF000094AFF310948FDF7BFFAC0469019002066
:104B0000800010500001105080011050880010509B
:104B100008001050C89D0010249D0010CC9D00106E
:104B2000F0B583B00E00C47F8578878A00F076FBED
:104B30000123009333003A002900200001F0D6F948
:104B400003B0F0BD10B50C00064B9865080000F0EE
:104B5000EFFB002800D110BD00212000FFF7E0FF8F
:104B6000F9E7C0460030115070B5144B9D6DEB074E
:104B700001D4012411E001239D4311494B681B68B6
:104B80000120FFF7DFFFF4E78543E3001B199900DD
:104B90000B4BC918FFF7D6FF01340F2C07D8002D97
:104BA00005D06300012098402842F5D0ECE7002DA5
:104BB00000D170BD29000348FDF7F8FA000011503C
:104BC00090190020F89E001010B50A4B1B7C002B9A
:104BD00004D0094BDB6C9B0706D410BD074B084A79
:104BE000A4210848FDF748FA00210248FFF798FF82
:104BF000F3E7C0469019002000001150109F0010EC
:104C0000109D0010CC9D001070B5284A9823D458F0
:104C1000012525400BD0136D1B0A9B071AD00121DB
:104C2000002001F076F9224BC02292001A65E306BB
:104C300015D4230718D463051FD4630605D5402374
:104C40001D431B4B802212051A65A30621D4A542E1
:104C500026D170BD0121002001F06CF9E3E710239B
:104C60001D43FFF781FFE4E708231D43104B80221B
:104C7000D2021A65FFF7A8FFDDE78023DB001D43A2
:104C80000B4B802292051A6502210A48FFF748FF64
:104C9000D3E7074B802212061A650748FDF786FA0C
:104CA000290061400548FDF781FAC0460000115017
:104CB0000030115090190020C09E0010D49E0010AA
:104CC00010B5002817D100F083FA0E4C0C23A3670F
:104CD0000D490520FBF774FE9022920000210B483D
:104CE000FFF70EFC03232364094BE3649023094A76
:104CF000E250012010BDB221074B084A4900084884
:104D0000FDF7BAF900001150094C0010901900206D
:104D1000008600207B040000A49E0010509D00101F
:104D2000CC9D001010B5002800D110BDC121034B4F
:104D3000034A49000348FDF79FF9C046A49E0010AE
:104D40005C9D0010CC9D001010B5002808D1084BC8
:104D5000186DC0239B001840431E9841C0B210BD7F
:104D60008A21044B044AFF310448FDF785F9C04607
:104D700000001150A49E00106C9D0010CC9D0010EE
:104D800010B5002809D10B4B1A6D120A03231340EA
:104D9000012B0CD0022B07D110BD9021064B074AE6
:104DA000FF310748FDF768F90648FDF7FFF91800DD
:104DB000F2E7C04600001150A49E0010849D001030
:104DC000CC9D0010B09E001070B505000020FFF7CC
:104DD000D7FF0400280000F0AFFD201A441EA041B8
:104DE000C0B270BDF8B5CE46474680B504009846BF
:104DF00008A8057809A807786068002848D0A36843
:104E0000002B4CD0E368002B50D07F261640B146D3
:104E1000D609B446A270E17766704A46002A4CD1A2
:104E20000132E2704246A283A5772C4A5A403F23C2
:104E3000134044D1AD061543A02212061543002F9E
:104E400001D07B1E1B042B43036001232370002F22
:104E50001AD04B461E040E436346012B36D1080080
:104E6000FFF7B2FF002802D08023DB041E4320227C
:104E7000A35C9B001A498C4663445E60A25C0132CD
:104E800001239340174A53650CBC90469946F8BDE0
:104E90009121154B154A49001548FDF7EDF82421DD
:104EA000144B124AFF311248FDF7E6F89221124BDB
:104EB0000E4A49000E48FDF7DFF80022B1E79C21B9
:104EC0000E4B0A4A49000A48FDF7D6F8A7210C4BB9
:104ED000064A49000648FDF7CFF8C04600001050CA
:104EE00000001150002011502C9E00103C9D00101D
:104EF000CC9D0010449E0010589E0010689E00102B
:104F0000849E00107047000010B5002804D10121D4
:104F10000520FBF745FD10BDD721034B034A49008F
:104F20000348FDF7A9F8C046A49E0010989D001004
:104F3000CC9D001030B583B00C001500D0788007F0
:104F4000800FFFF7B3FD2A79697907230B401B0215
:104F50001343E9788907890FAA78AD790195009103
:104F60002100FFF73FFF012003B030BDF0B5CE4672
:104F700000B584B008000291150003930AAB1F88A6
:104F80007F261640D30999461100FFF757FD041EEE
:104F90001AD08378AB420AD0002E1CD1838B00221A
:104FA0000192827F00922A000299FFF71BFF1B4BA0
:104FB0009C4217D03A000399200000F095F9012097
:104FC00004B004BC9146F0BDDC21154B154AFF31FD
:104FD0001548FDF751F8F021144B124A49001248C8
:104FE000FDF74AF83A000399200000F07DF93304F8
:104FF000029A13430E4A13604B46002B0AD00D4C05
:105000000298FFF7E1FE002806D040232343084A18
:10501000D364D4E7084CF3E70023F7E790190020A6
:10502000C89D0010A89D0010CC9D0010989E0010F7
:1050300000001150098600200586002030B583B09D
:105040000D00110008221548FFF760FA0020FFF755
:105050002DFD0400838B0022019200922900FFF7AE
:10506000C1FE2378002B10D008236382073B2374F2
:105070000B4B1D602800FFF7A7FE00280BD0094A44
:10508000074BDA64012003B030BD074B074A0849DB
:105090000848FCF7F1FF084AF2E7C046000010504C
:1050A0000000115043860020E89E0010B89D0010BB
:1050B0000A020000CC9D001003860020F8B5040011
:1050C0000F00438A828B1E1C934200D9161CB6B275
:1050D0009B1B63828025ED003543E378002B13D0C2
:1050E00080229201154301225340E3706378002B24
:1050F0000CD0638A002B02D18023DB011D43002FDB
:1051000000D02D042800F8BD0022EBE7B801E368C9
:105110009C4660443200A169FFF7F8F9A3699C46F8
:105120006644A66180231B021D43E2E770B50400BC
:1051300083681B68002900D01B0C9D05AD0D6278AB
:10514000002A11D11B0409D4A38A5B19A382A38B63
:10515000AB4201D900236382280070BD0E4B0F4A79
:10516000D7210F48FCF788FF1B040ED58901E3689F
:105170009C4661442A00A069FFF7C8F9A38A5B191D
:10518000A382A3695B19A361E1E7064B034ADE2111
:105190000348FCF771FFC046B89F00101C9F001029
:1051A000D89F001038A0001010B5040083681B6859
:1051B0000021FFF7BBFF63681B685B0002D5A38B70
:1051C000834200D010BD01212000FFF7AFFFF9E7B7
:1051D00010B580235B040C4A13600C4A13600C4B1F
:1051E0009A6880235B049343F9D10A4C9C220021E6
:1051F0002000FFF785F98022520100210648FFF7C1
:105200007FF90923636710BD00E0004000F0004013
:1052100000C0004000001150000010500023037433
:10522000438283828361704710B5002902D083686E
:105230001B681940002A09D01143530506D582681E
:1052400013685B0505D4084B0B4013608368196035
:1052500010BD83787F211940DB099B00034A9A58CF
:105260000348FCF7A3FFC046FFFBFFFF74030020C9
:105270002C9F001070B5040043681E680021FFF7E2
:105280001DFF80256D010543144B1B6C9B0704D447
:10529000A378DB0914D1013300E00023628A002ADD
:1052A00001D0002B0ED00E4B1E4080239B053343B4
:1052B000626813602A0000212000FFF7B5FF70BD6F
:1052C0000023EBE701212000FFF7F8FE0543054B23
:1052D0001E40A023DB053343EAE7C046000011501F
:1052E000FFFFFFAFFFFFFFDF70B504000D001600EA
:1052F000037C002B09D166820023A382013323742F
:10530000A5612000FFF7B6FF70BD83787F211940AB
:10531000DB099B00044A9A580448FFF7A9FA2000C9
:10532000FFF77CFFE7E7C04674030020789F00107A
:1053300070B50400057C002D06D0FFF735FF638AA9
:10534000002B08D1280070BD81787F231940044AC2
:105350000448FCF72BFF2000FFF78CFF0025F1E746
:10536000740300204C9F001030B5002814D0052590
:10537000002813D001240023A34211D25819C0B22F
:10538000421E910089180A0106495218527B002AD0
:1053900007D00133DBB2EFE70125E9E70424EAE7B0
:1053A000FF2030BD941F002000B583B0002A0CD12F
:1053B000144B1B680193DB070ED501AB5B785A07D2
:1053C0000DD45B08012213400AE00F4A0F49104830
:1053D000FFF74EFA00200AE001F044F907E002234B
:1053E0000C4AD37001AB9B78DB0602D4012003B0DA
:1053F00000BD91785078084B142200F0B5FF0120D1
:10540000F5E7C046F41700208A0200000CA1001046
:1054100074A20010740D0020A15D001010B582B0C0
:10542000002A07D10E4B9B78DB060AD4012420000A
:1054300002B010BD0B4A0C490C48FFF719FA0024C2
:10544000F5E70B4B997858780A4B142200F08CFF43
:10545000041EECD1084A04490448FFF709FAE6E7BC
:10546000F417002079020000ECA0001074A20010D4
:10547000740D0020495500108102000010B582B063
:10548000294B1879093843425841C0B2FFF76CFFE5
:105490000400FF2832D0002837D0421E93009B180A
:1054A0001B01224A9B18224A1178197051785970B1
:1054B00091789970D278DA701A7B01210A431A73B5
:1054C000194AD2791A726B461B781F2293434132D4
:1054D00093431F3213406A46137005235370548060
:1054E00000239380D380134B00226946002000F0F4
:1054F000A3FE041E10D0200002B010BD0E4A0F49BA
:105500000F48FFF7B5F90024F5E7DC220D490C48F8
:10551000FFF7AEF90023C6E7CB22920007490848FF
:10552000FFF7A6F9E7E7C046F4170020941F002014
:10553000740D0020C95D00101103000080A100104F
:1055400074A2001088A0001010B5002A07D1FFF740
:1055500095FF074B587801F085F8012010BD9B227C
:10556000920004490448FFF783F90020F6E7C0469B
:10557000740D0020CCA0001074A2001070B582B091
:105580000400002A20D1002825D0431E9A00D218FA
:105590001301174A9B18174A118999805189D9809C
:1055A000917B5972D17B9972117CD9726946124BE9
:1055B000080060CB60C0114B200000F03DFE041ECF
:1055C00010D0200002B070BD0D4A0E490E48FFF702
:1055D0004FF90024F5E7DC220C490B48FFF748F9A6
:1055E0000023D8E70A4A07490748FFF741F9E8E7E7
:1055F000941F0020F417002058A00010155600102A
:105600005A030000B4A1001074A2001088A000107A
:105610007603000010B582B0002A20D11A4B5A88B8
:1056200080235B009A4221D86B461B781F218B4355
:1056300041318B43E0390B4369460B7006234B70B5
:10564000FB33FF334B8000238B80CA800F4B0E4A05
:1056500000F0F2FD041E10D0200002B010BD0C4A74
:105660000C490D48FFF704F90024F5E70B4A0949F6
:105670000948FFF7FDF80024EEE7094A0549064806
:10568000FFF7F6F8E8E7C046F4170020BD58001011
:105690007E030000D4A1001074A200108703000054
:1056A0009A030000F0B5D6464F464646C0B5060000
:1056B0000F0090460024042C5DD825000134E4B28C
:1056C000AB005B191A012E4BD35CB342F3D1002F10
:1056D00004D02B4B9B185B78BB42ECD14346002B8C
:1056E00007D0AB005B191A01254B9B189B784345EB
:1056F000E1D1AB005B191A01214B9B185B7B002B9E
:10570000D9D0204B002B02D02000FAF765FF0023F0
:1057100099460CE04B469B004B449A001A4B9B1851
:105720001B69200098474B460133DBB299464B4634
:10573000032BEFD9AB0099465A1910010830104BD2
:105740009A46504406301022FF21FEF7D9FE4B4600
:105750005A1910011830504406301222FF21FEF76A
:10576000CFFE21003000FFF7CDFB4D442B01534409
:1057700000225A739FE71CBC90469946A246F0BD92
:10578000941F0020D90500108CA20010F0B5D64659
:10579000474680B585B002900D0000280FD0029BCF
:1057A0005A1E93009B181A013E4FD719AA78EB781E
:1057B0001B0213439A46AA442B78ED183FE0DC22E3
:1057C00039493A48FFF754F80027EFE7EE782B788D
:1057D000ED183AE0FA22920035493448FFF748F8CC
:1057E00000200DE0FE22920031493048FFF740F8DA
:1057F000002005E02F4A2E492C48FFF739F80020F9
:1058000005B00CBC90469A46F0BD46460022964232
:105810000BD9AB789B18DBB2F918897BFF29E9D14A
:10582000FB189C730132D2B2F1E72300039A2900DE
:1058300038001E3001F0D8FF039B9C466544554557
:105840002DD26B780B2BC1D001266B78042BC1D1E4
:1058500053465A1B92B23100280001F0DAFF039040
:1058600001900828BED96B79092B04D17C78002CD3
:10587000E2D1B04601E00024B046032CDCD8A300FE
:105880001B199A000C4B9B185E683878019B2A0004
:105890000299B0470028B8D10134E4B2EDE7012005
:1058A000AEE7C046941F002088A0001074A200102C
:1058B00034A20010130400008CA2001030B583B095
:1058C0000500002A14D11449FFF760FF041E16D00A
:1058D0006946124B08330A0011CB11C2104B00224B
:1058E000280000F0A9FC041E0FD0200003B030BD3A
:1058F0000C4A0D490D48FEF7BBFF0024F5E70C4AA2
:1059000009490A48FEF7B4FFEFE70A4A0649074883
:10591000FEF7AEFFE9E7C046F417002058A00010DC
:10592000D15F0010A2030000F8A1001074A20010C3
:10593000A6030000B7030000002807D00138830049
:1059400018180301034A9B18D8787047024BD8787F
:10595000FBE7C046941F0020740D0020014B18780F
:105960007047C046C81C0020F0B5C64600B582B0DE
:105970000190384B1B789846002B04D0404602B06B
:1059800004BC9046F0BDC822520000213248FEF708
:10599000B7FD052200213148FEF7B2FD304C200052
:1059A0001C30FCF7BBFA200001F0F2FF2D4B1C600D
:1059B0000024042C2DD8A7003B191D014035264E8C
:1059C000AD1904352800FCF783FA3B191A01B21807
:1059D000D564002D16D0A6003319180108301E4DCD
:1059E000401906301022FF21FEF78AFD32191001FE
:1059F0001830401906301222FF21FEF781FD0134D4
:105A0000E4B2D6E79522520017491848FEF730FF56
:105A1000B4E7002407E0A3001B199A00144BD358E5
:105A200098470134E4B2032CF5D90198FFF748F9FF
:105A30008046002806D00198FFF766FA054B012240
:105A40001A709BE79C22520007490848FEF710FF96
:105A500094E7C046C81C0020941F0020740D00204D
:105A60007C030020F418002094A0001074A2001001
:105A70008CA20010002802D1044B1878704701381E
:105A8000830018180301024AD05CF7E7740D002068
:105A9000941F002030B583B004000D0005220021C2
:105AA0006B46981CFEF72CFD07236A461370023BD9
:105AB000537095802000FFF7DDFF6A462100FFF755
:105AC00039FA03B030BD000010B582B008210020C3
:105AD000FFF7E0FF041E0FD069460D4B10330A009C
